{
  "contractName": "Ticket",
  "abi": [
    {
      "inputs": [
        {
          "internalType": "string",
          "name": "name",
          "type": "string"
        },
        {
          "internalType": "string",
          "name": "symbol",
          "type": "string"
        },
        {
          "internalType": "uint256",
          "name": "initialSupply",
          "type": "uint256"
        }
      ],
      "stateMutability": "nonpayable",
      "type": "constructor"
    },
    {
      "anonymous": false,
      "inputs": [
        {
          "indexed": true,
          "internalType": "address",
          "name": "owner",
          "type": "address"
        },
        {
          "indexed": true,
          "internalType": "address",
          "name": "spender",
          "type": "address"
        },
        {
          "indexed": false,
          "internalType": "uint256",
          "name": "value",
          "type": "uint256"
        }
      ],
      "name": "Approval",
      "type": "event"
    },
    {
      "anonymous": false,
      "inputs": [
        {
          "indexed": true,
          "internalType": "address",
          "name": "from",
          "type": "address"
        },
        {
          "indexed": true,
          "internalType": "address",
          "name": "to",
          "type": "address"
        },
        {
          "indexed": false,
          "internalType": "uint256",
          "name": "value",
          "type": "uint256"
        }
      ],
      "name": "Transfer",
      "type": "event"
    },
    {
      "inputs": [
        {
          "internalType": "address",
          "name": "owner",
          "type": "address"
        },
        {
          "internalType": "address",
          "name": "spender",
          "type": "address"
        }
      ],
      "name": "allowance",
      "outputs": [
        {
          "internalType": "uint256",
          "name": "",
          "type": "uint256"
        }
      ],
      "stateMutability": "view",
      "type": "function",
      "constant": true
    },
    {
      "inputs": [
        {
          "internalType": "address",
          "name": "spender",
          "type": "address"
        },
        {
          "internalType": "uint256",
          "name": "amount",
          "type": "uint256"
        }
      ],
      "name": "approve",
      "outputs": [
        {
          "internalType": "bool",
          "name": "",
          "type": "bool"
        }
      ],
      "stateMutability": "nonpayable",
      "type": "function"
    },
    {
      "inputs": [
        {
          "internalType": "address",
          "name": "account",
          "type": "address"
        }
      ],
      "name": "balanceOf",
      "outputs": [
        {
          "internalType": "uint256",
          "name": "",
          "type": "uint256"
        }
      ],
      "stateMutability": "view",
      "type": "function",
      "constant": true
    },
    {
      "inputs": [
        {
          "internalType": "address",
          "name": "spender",
          "type": "address"
        },
        {
          "internalType": "uint256",
          "name": "subtractedValue",
          "type": "uint256"
        }
      ],
      "name": "decreaseAllowance",
      "outputs": [
        {
          "internalType": "bool",
          "name": "",
          "type": "bool"
        }
      ],
      "stateMutability": "nonpayable",
      "type": "function"
    },
    {
      "inputs": [
        {
          "internalType": "address",
          "name": "spender",
          "type": "address"
        },
        {
          "internalType": "uint256",
          "name": "addedValue",
          "type": "uint256"
        }
      ],
      "name": "increaseAllowance",
      "outputs": [
        {
          "internalType": "bool",
          "name": "",
          "type": "bool"
        }
      ],
      "stateMutability": "nonpayable",
      "type": "function"
    },
    {
      "inputs": [],
      "name": "name",
      "outputs": [
        {
          "internalType": "string",
          "name": "",
          "type": "string"
        }
      ],
      "stateMutability": "view",
      "type": "function",
      "constant": true
    },
    {
      "inputs": [],
      "name": "symbol",
      "outputs": [
        {
          "internalType": "string",
          "name": "",
          "type": "string"
        }
      ],
      "stateMutability": "view",
      "type": "function",
      "constant": true
    },
    {
      "inputs": [],
      "name": "totalSupply",
      "outputs": [
        {
          "internalType": "uint256",
          "name": "",
          "type": "uint256"
        }
      ],
      "stateMutability": "view",
      "type": "function",
      "constant": true
    },
    {
      "inputs": [
        {
          "internalType": "address",
          "name": "to",
          "type": "address"
        },
        {
          "internalType": "uint256",
          "name": "amount",
          "type": "uint256"
        }
      ],
      "name": "transfer",
      "outputs": [
        {
          "internalType": "bool",
          "name": "",
          "type": "bool"
        }
      ],
      "stateMutability": "nonpayable",
      "type": "function"
    },
    {
      "inputs": [
        {
          "internalType": "address",
          "name": "from",
          "type": "address"
        },
        {
          "internalType": "address",
          "name": "to",
          "type": "address"
        },
        {
          "internalType": "uint256",
          "name": "amount",
          "type": "uint256"
        }
      ],
      "name": "transferFrom",
      "outputs": [
        {
          "internalType": "bool",
          "name": "",
          "type": "bool"
        }
      ],
      "stateMutability": "nonpayable",
      "type": "function"
    },
    {
      "inputs": [],
      "name": "decimals",
      "outputs": [
        {
          "internalType": "uint8",
          "name": "",
          "type": "uint8"
        }
      ],
      "stateMutability": "view",
      "type": "function",
      "constant": true
    },
    {
      "inputs": [
        {
          "internalType": "address",
          "name": "ticketVIPAddress",
          "type": "address"
        }
      ],
      "name": "buyTicket",
      "outputs": [],
      "stateMutability": "payable",
      "type": "function",
      "payable": true
    },
    {
      "inputs": [],
      "name": "giveBackTicket",
      "outputs": [],
      "stateMutability": "nonpayable",
      "type": "function"
    },
    {
      "inputs": [],
      "name": "verifyTicket",
      "outputs": [
        {
          "internalType": "bool",
          "name": "",
          "type": "bool"
        }
      ],
      "stateMutability": "view",
      "type": "function",
      "constant": true
    }
  ],
  "bytecode": "0x6080604052660aa87bee5380006005553480156200001c57600080fd5b5060405162001e0e38038062001e0e833981810160405281019062000042919062000344565b828281600390805190602001906200005c9291906200020b565b508060049080519060200190620000759291906200020b565b5050506200008a30826200009360201b60201c565b50505062000650565b600073ffffffffffffffffffffffffffffffffffffffff168273ffffffffffffffffffffffffffffffffffffffff16141562000106576040517f08c379a0000000000000000000000000000000000000000000000000000000008152600401620000fd906200041f565b60405180910390fd5b6200011a600083836200020160201b60201c565b80600260008282546200012e9190620004d6565b92505081905550806000808473ffffffffffffffffffffffffffffffffffffffff1673ffffffffffffffffffffffffffffffffffffffff168152602001908152602001600020600082825401925050819055508173ffffffffffffffffffffffffffffffffffffffff16600073ffffffffffffffffffffffffffffffffffffffff167fddf252ad1be2c89b69c2b068fc378daa952ba7f163c4a11628f55a4df523b3ef83604051620001e1919062000441565b60405180910390a3620001fd600083836200020660201b60201c565b5050565b505050565b505050565b828054620002199062000573565b90600052602060002090601f0160209004810192826200023d576000855562000289565b82601f106200025857805160ff191683800117855562000289565b8280016001018555821562000289579182015b82811115620002885782518255916020019190600101906200026b565b5b5090506200029891906200029c565b5090565b5b80821115620002b75760008160009055506001016200029d565b5090565b6000620002d2620002cc8462000492565b6200045e565b905082815260208101848484011115620002eb57600080fd5b620002f88482856200053d565b509392505050565b600082601f8301126200031257600080fd5b815162000324848260208601620002bb565b91505092915050565b6000815190506200033e8162000636565b92915050565b6000806000606084860312156200035a57600080fd5b600084015167ffffffffffffffff8111156200037557600080fd5b620003838682870162000300565b935050602084015167ffffffffffffffff811115620003a157600080fd5b620003af8682870162000300565b9250506040620003c2868287016200032d565b9150509250925092565b6000620003db601f83620004c5565b91507f45524332303a206d696e7420746f20746865207a65726f2061646472657373006000830152602082019050919050565b620004198162000533565b82525050565b600060208201905081810360008301526200043a81620003cc565b9050919050565b60006020820190506200045860008301846200040e565b92915050565b6000604051905081810181811067ffffffffffffffff8211171562000488576200048762000607565b5b8060405250919050565b600067ffffffffffffffff821115620004b057620004af62000607565b5b601f19601f8301169050602081019050919050565b600082825260208201905092915050565b6000620004e38262000533565b9150620004f08362000533565b9250827fffffffffffffffffffffffffffffffffffffffffffffffffffffffffffffffff03821115620005285762000527620005a9565b5b828201905092915050565b6000819050919050565b60005b838110156200055d57808201518184015260208101905062000540565b838111156200056d576000848401525b50505050565b600060028204905060018216806200058c57607f821691505b60208210811415620005a357620005a2620005d8565b5b50919050565b7f4e487b7100000000000000000000000000000000000000000000000000000000600052601160045260246000fd5b7f4e487b7100000000000000000000000000000000000000000000000000000000600052602260045260246000fd5b7f4e487b7100000000000000000000000000000000000000000000000000000000600052604160045260246000fd5b620006418162000533565b81146200064d57600080fd5b50565b6117ae80620006606000396000f3fe6080604052600436106100dd5760003560e01c806370a082311161007f578063a457c2d711610059578063a457c2d7146102c4578063a5f8cdbb14610301578063a9059cbb1461031d578063dd62ed3e1461035a576100dd565b806370a082311461024557806377973ac91461028257806395d89b4114610299576100dd565b806323b872dd116100bb57806323b872dd14610175578063313ce567146101b257806339509351146101dd5780634d589a711461021a576100dd565b806306fdde03146100e2578063095ea7b31461010d57806318160ddd1461014a575b600080fd5b3480156100ee57600080fd5b506100f7610397565b60405161010491906113c0565b60405180910390f35b34801561011957600080fd5b50610134600480360381019061012f9190610eaa565b610429565b60405161014191906113a5565b60405180910390f35b34801561015657600080fd5b5061015f61044c565b60405161016c9190611562565b60405180910390f35b34801561018157600080fd5b5061019c60048036038101906101979190610e5b565b610456565b6040516101a991906113a5565b60405180910390f35b3480156101be57600080fd5b506101c7610485565b6040516101d4919061157d565b60405180910390f35b3480156101e957600080fd5b5061020460048036038101906101ff9190610eaa565b61048a565b60405161021191906113a5565b60405180910390f35b34801561022657600080fd5b5061022f6104c1565b60405161023c91906113a5565b60405180910390f35b34801561025157600080fd5b5061026c60048036038101906102679190610df6565b6104d4565b6040516102799190611562565b60405180910390f35b34801561028e57600080fd5b5061029761051c565b005b3480156102a557600080fd5b506102ae610576565b6040516102bb91906113c0565b60405180910390f35b3480156102d057600080fd5b506102eb60048036038101906102e69190610eaa565b610608565b6040516102f891906113a5565b60405180910390f35b61031b60048036038101906103169190610df6565b61067f565b005b34801561032957600080fd5b50610344600480360381019061033f9190610eaa565b61082c565b60405161035191906113a5565b60405180910390f35b34801561036657600080fd5b50610381600480360381019061037c9190610e1f565b61084f565b60405161038e9190611562565b60405180910390f35b6060600380546103a690611692565b80601f01602080910402602001604051908101604052809291908181526020018280546103d290611692565b801561041f5780601f106103f45761010080835404028352916020019161041f565b820191906000526020600020905b81548152906001019060200180831161040257829003601f168201915b5050505050905090565b6000806104346108d6565b90506104418185856108de565b600191505092915050565b6000600254905090565b6000806104616108d6565b905061046e858285610aa9565b610479858585610b35565b60019150509392505050565b600090565b6000806104956108d6565b90506104b68185856104a7858961084f565b6104b191906115b4565b6108de565b600191505092915050565b600060016104ce326104d4565b14905090565b60008060008373ffffffffffffffffffffffffffffffffffffffff1673ffffffffffffffffffffffffffffffffffffffff168152602001908152602001600020549050919050565b6000610527326104d4565b1415610568576040517f08c379a000000000000000000000000000000000000000000000000000000000815260040161055f90611502565b60405180910390fd5b61057432306001610b35565b565b60606004805461058590611692565b80601f01602080910402602001604051908101604052809291908181526020018280546105b190611692565b80156105fe5780601f106105d3576101008083540402835291602001916105fe565b820191906000526020600020905b8154815290600101906020018083116105e157829003601f168201915b5050505050905090565b6000806106136108d6565b90506000610621828661084f565b905083811015610666576040517f08c379a000000000000000000000000000000000000000000000000000000000815260040161065d90611542565b60405180910390fd5b61067382868684036108de565b60019250505092915050565b600061068a306104d4565b116106ca576040517f08c379a00000000000000000000000000000000000000000000000000000000081526004016106c190611522565b60405180910390fd5b60006106d5326104d4565b14610715576040517f08c379a000000000000000000000000000000000000000000000000000000000815260040161070c906114a2565b60405180910390fd5b60008190508073ffffffffffffffffffffffffffffffffffffffff16634d589a716040518163ffffffff1660e01b815260040160206040518083038186803b15801561076057600080fd5b505afa158015610774573d6000803e3d6000fd5b505050506040513d601f19601f820116820180604052508101906107989190610ee6565b156107d8576040517f08c379a00000000000000000000000000000000000000000000000000000000081526004016107cf90611442565b60405180910390fd5b600554341461081c576040517f08c379a000000000000000000000000000000000000000000000000000000000815260040161081390611402565b60405180910390fd5b61082830326001610b35565b5050565b6000806108376108d6565b9050610844818585610b35565b600191505092915050565b6000600160008473ffffffffffffffffffffffffffffffffffffffff1673ffffffffffffffffffffffffffffffffffffffff16815260200190815260200160002060008373ffffffffffffffffffffffffffffffffffffffff1673ffffffffffffffffffffffffffffffffffffffff16815260200190815260200160002054905092915050565b600033905090565b600073ffffffffffffffffffffffffffffffffffffffff168373ffffffffffffffffffffffffffffffffffffffff16141561094e576040517f08c379a0000000000000000000000000000000000000000000000000000000008152600401610945906114e2565b60405180910390fd5b600073ffffffffffffffffffffffffffffffffffffffff168273ffffffffffffffffffffffffffffffffffffffff1614156109be576040517f08c379a00000000000000000000000000000000000000000000000000000000081526004016109b590611422565b60405180910390fd5b80600160008573ffffffffffffffffffffffffffffffffffffffff1673ffffffffffffffffffffffffffffffffffffffff16815260200190815260200160002060008473ffffffffffffffffffffffffffffffffffffffff1673ffffffffffffffffffffffffffffffffffffffff168152602001908152602001600020819055508173ffffffffffffffffffffffffffffffffffffffff168373ffffffffffffffffffffffffffffffffffffffff167f8c5be1e5ebec7d5bd14f71427d1e84f3dd0314c0f7b2291e5b200ac8c7c3b92583604051610a9c9190611562565b60405180910390a3505050565b6000610ab5848461084f565b90507fffffffffffffffffffffffffffffffffffffffffffffffffffffffffffffffff8114610b2f5781811015610b21576040517f08c379a0000000000000000000000000000000000000000000000000000000008152600401610b1890611462565b60405180910390fd5b610b2e84848484036108de565b5b50505050565b600073ffffffffffffffffffffffffffffffffffffffff168373ffffffffffffffffffffffffffffffffffffffff161415610ba5576040517f08c379a0000000000000000000000000000000000000000000000000000000008152600401610b9c906114c2565b60405180910390fd5b600073ffffffffffffffffffffffffffffffffffffffff168273ffffffffffffffffffffffffffffffffffffffff161415610c15576040517f08c379a0000000000000000000000000000000000000000000000000000000008152600401610c0c906113e2565b60405180910390fd5b610c20838383610dad565b60008060008573ffffffffffffffffffffffffffffffffffffffff1673ffffffffffffffffffffffffffffffffffffffff16815260200190815260200160002054905081811015610ca6576040517f08c379a0000000000000000000000000000000000000000000000000000000008152600401610c9d90611482565b60405180910390fd5b8181036000808673ffffffffffffffffffffffffffffffffffffffff1673ffffffffffffffffffffffffffffffffffffffff16815260200190815260200160002081905550816000808573ffffffffffffffffffffffffffffffffffffffff1673ffffffffffffffffffffffffffffffffffffffff168152602001908152602001600020600082825401925050819055508273ffffffffffffffffffffffffffffffffffffffff168473ffffffffffffffffffffffffffffffffffffffff167fddf252ad1be2c89b69c2b068fc378daa952ba7f163c4a11628f55a4df523b3ef84604051610d949190611562565b60405180910390a3610da7848484610db2565b50505050565b505050565b505050565b600081359050610dc681611733565b92915050565b600081519050610ddb8161174a565b92915050565b600081359050610df081611761565b92915050565b600060208284031215610e0857600080fd5b6000610e1684828501610db7565b91505092915050565b60008060408385031215610e3257600080fd5b6000610e4085828601610db7565b9250506020610e5185828601610db7565b9150509250929050565b600080600060608486031215610e7057600080fd5b6000610e7e86828701610db7565b9350506020610e8f86828701610db7565b9250506040610ea086828701610de1565b9150509250925092565b60008060408385031215610ebd57600080fd5b6000610ecb85828601610db7565b9250506020610edc85828601610de1565b9150509250929050565b600060208284031215610ef857600080fd5b6000610f0684828501610dcc565b91505092915050565b610f188161161c565b82525050565b6000610f2982611598565b610f3381856115a3565b9350610f4381856020860161165f565b610f4c81611722565b840191505092915050565b6000610f646023836115a3565b91507f45524332303a207472616e7366657220746f20746865207a65726f206164647260008301527f65737300000000000000000000000000000000000000000000000000000000006020830152604082019050919050565b6000610fca6011836115a3565b91507f4e6f7420656e6f756768206d6f6e6579210000000000000000000000000000006000830152602082019050919050565b600061100a6022836115a3565b91507f45524332303a20617070726f766520746f20746865207a65726f20616464726560008301527f73730000000000000000000000000000000000000000000000000000000000006020830152604082019050919050565b60006110706026836115a3565b91507f596f7527766520616c726561647920707572636861736564206120564950207460008301527f69636b65742100000000000000000000000000000000000000000000000000006020830152604082019050919050565b60006110d6601d836115a3565b91507f45524332303a20696e73756666696369656e7420616c6c6f77616e63650000006000830152602082019050919050565b60006111166026836115a3565b91507f45524332303a207472616e7366657220616d6f756e742065786365656473206260008301527f616c616e636500000000000000000000000000000000000000000000000000006020830152604082019050919050565b600061117c6022836115a3565b91507f596f7527766520616c7265616479207075726368617365642061207469636b6560008301527f74210000000000000000000000000000000000000000000000000000000000006020830152604082019050919050565b60006111e26025836115a3565b91507f45524332303a207472616e736665722066726f6d20746865207a65726f20616460008301527f64726573730000000000000000000000000000000000000000000000000000006020830152604082019050919050565b60006112486024836115a3565b91507f45524332303a20617070726f76652066726f6d20746865207a65726f2061646460008301527f72657373000000000000000000000000000000000000000000000000000000006020830152604082019050919050565b60006112ae6019836115a3565b91507f596f7520646f6e2774206f776e20616e79207469636b657421000000000000006000830152602082019050919050565b60006112ee6010836115a3565b91507f4e6f207469636b657473206c65667421000000000000000000000000000000006000830152602082019050919050565b600061132e6025836115a3565b91507f45524332303a2064656372656173656420616c6c6f77616e63652062656c6f7760008301527f207a65726f0000000000000000000000000000000000000000000000000000006020830152604082019050919050565b61139081611648565b82525050565b61139f81611652565b82525050565b60006020820190506113ba6000830184610f0f565b92915050565b600060208201905081810360008301526113da8184610f1e565b905092915050565b600060208201905081810360008301526113fb81610f57565b9050919050565b6000602082019050818103600083015261141b81610fbd565b9050919050565b6000602082019050818103600083015261143b81610ffd565b9050919050565b6000602082019050818103600083015261145b81611063565b9050919050565b6000602082019050818103600083015261147b816110c9565b9050919050565b6000602082019050818103600083015261149b81611109565b9050919050565b600060208201905081810360008301526114bb8161116f565b9050919050565b600060208201905081810360008301526114db816111d5565b9050919050565b600060208201905081810360008301526114fb8161123b565b9050919050565b6000602082019050818103600083015261151b816112a1565b9050919050565b6000602082019050818103600083015261153b816112e1565b9050919050565b6000602082019050818103600083015261155b81611321565b9050919050565b60006020820190506115776000830184611387565b92915050565b60006020820190506115926000830184611396565b92915050565b600081519050919050565b600082825260208201905092915050565b60006115bf82611648565b91506115ca83611648565b9250827fffffffffffffffffffffffffffffffffffffffffffffffffffffffffffffffff038211156115ff576115fe6116c4565b5b828201905092915050565b600061161582611628565b9050919050565b60008115159050919050565b600073ffffffffffffffffffffffffffffffffffffffff82169050919050565b6000819050919050565b600060ff82169050919050565b60005b8381101561167d578082015181840152602081019050611662565b8381111561168c576000848401525b50505050565b600060028204905060018216806116aa57607f821691505b602082108114156116be576116bd6116f3565b5b50919050565b7f4e487b7100000000000000000000000000000000000000000000000000000000600052601160045260246000fd5b7f4e487b7100000000000000000000000000000000000000000000000000000000600052602260045260246000fd5b6000601f19601f8301169050919050565b61173c8161160a565b811461174757600080fd5b50565b6117538161161c565b811461175e57600080fd5b50565b61176a81611648565b811461177557600080fd5b5056fea26469706673582212200c2ab237d0ea5c9cef0c2907932a160057625132828b8f79156fc228cdf7ea8264736f6c63430008000033",
  "immutableReferences": {},
  "source": "// SPDX-License-Identifier: MIT\npragma solidity ^0.8.0;\n\nimport \"@openzeppelin/contracts/token/ERC20/ERC20.sol\";\nimport \"../contracts/TicketVIP.sol\";\n\ncontract Ticket is ERC20 {\n\n    uint256 private ticketPrice = 3000000000000000; // 0.0030 ETH in Wei\n    \n    constructor(\n        string memory name,\n        string memory symbol,\n        uint256 initialSupply) ERC20(name, symbol) {\n        _mint(address(this), initialSupply);\n    }\n\n    function decimals() public view virtual override returns (uint8) {\n        return 0;\n    }\n\n    function buyTicket(address ticketVIPAddress) payable external {\n        // check if there are any tickets left\n        require(balanceOf(address(this)) > 0, \"No tickets left!\");\n        \n        // check if the sender has already purchased a ticket\n        require(balanceOf(tx.origin) == 0, \"You've already purchased a ticket!\");\n\n        // check if the sender has already purchased a VIP ticket\n        TicketVIP ticketVIP = TicketVIP(ticketVIPAddress);\n        require(!ticketVIP.verifyTicket(), \"You've already purchased a VIP ticket!\");\n\n        // check if sender has enough money\n        require(msg.value == ticketPrice, \"Not enough money!\"); \n\n        // transfer the ticket to the sender\n        _transfer(address(this), tx.origin, 1);\n    }\n\n    function giveBackTicket() external {\n        // check if the sender owns a ticket\n        require(balanceOf(tx.origin) != 0, \"You don't own any ticket!\");\n\n        // give back the ticket to the contract\n        _transfer(tx.origin, address(this), 1);\n    }\n\n    function verifyTicket() external view returns (bool) {\n        return balanceOf(tx.origin) == 1;\n    }\n\n}",
  "sourcePath": "/home/osboxes/dev/unisacon/contracts/Ticket.sol",
  "compiler": {
    "name": "solc",
    "version": "0.8.0+commit.c7dfd78e.Emscripten.clang"
  },
  "schemaVersion": "3.4.14",
  "updatedAt": "2023-08-12T15:37:56.008Z",
  "networkType": "ethereum",
  "devdoc": {
    "kind": "dev",
    "methods": {
      "allowance(address,address)": {
        "details": "See {IERC20-allowance}."
      },
      "approve(address,uint256)": {
        "details": "See {IERC20-approve}. NOTE: If `amount` is the maximum `uint256`, the allowance is not updated on `transferFrom`. This is semantically equivalent to an infinite approval. Requirements: - `spender` cannot be the zero address."
      },
      "balanceOf(address)": {
        "details": "See {IERC20-balanceOf}."
      },
      "decimals()": {
        "details": "Returns the number of decimals used to get its user representation. For example, if `decimals` equals `2`, a balance of `505` tokens should be displayed to a user as `5.05` (`505 / 10 ** 2`). Tokens usually opt for a value of 18, imitating the relationship between Ether and Wei. This is the default value returned by this function, unless it's overridden. NOTE: This information is only used for _display_ purposes: it in no way affects any of the arithmetic of the contract, including {IERC20-balanceOf} and {IERC20-transfer}."
      },
      "decreaseAllowance(address,uint256)": {
        "details": "Atomically decreases the allowance granted to `spender` by the caller. This is an alternative to {approve} that can be used as a mitigation for problems described in {IERC20-approve}. Emits an {Approval} event indicating the updated allowance. Requirements: - `spender` cannot be the zero address. - `spender` must have allowance for the caller of at least `subtractedValue`."
      },
      "increaseAllowance(address,uint256)": {
        "details": "Atomically increases the allowance granted to `spender` by the caller. This is an alternative to {approve} that can be used as a mitigation for problems described in {IERC20-approve}. Emits an {Approval} event indicating the updated allowance. Requirements: - `spender` cannot be the zero address."
      },
      "name()": {
        "details": "Returns the name of the token."
      },
      "symbol()": {
        "details": "Returns the symbol of the token, usually a shorter version of the name."
      },
      "totalSupply()": {
        "details": "See {IERC20-totalSupply}."
      },
      "transfer(address,uint256)": {
        "details": "See {IERC20-transfer}. Requirements: - `to` cannot be the zero address. - the caller must have a balance of at least `amount`."
      },
      "transferFrom(address,address,uint256)": {
        "details": "See {IERC20-transferFrom}. Emits an {Approval} event indicating the updated allowance. This is not required by the EIP. See the note at the beginning of {ERC20}. NOTE: Does not update the allowance if the current allowance is the maximum `uint256`. Requirements: - `from` and `to` cannot be the zero address. - `from` must have a balance of at least `amount`. - the caller must have allowance for ``from``'s tokens of at least `amount`."
      }
    },
    "version": 1
  },
  "userdoc": {
    "kind": "user",
    "methods": {},
    "version": 1
  }
}