{
  "contractName": "TicketVIP",
  "abi": [
    {
      "inputs": [
        {
          "internalType": "string",
          "name": "name",
          "type": "string"
        },
        {
          "internalType": "string",
          "name": "symbol",
          "type": "string"
        },
        {
          "internalType": "uint256",
          "name": "initialSupply",
          "type": "uint256"
        }
      ],
      "stateMutability": "nonpayable",
      "type": "constructor"
    },
    {
      "anonymous": false,
      "inputs": [
        {
          "indexed": true,
          "internalType": "address",
          "name": "owner",
          "type": "address"
        },
        {
          "indexed": true,
          "internalType": "address",
          "name": "spender",
          "type": "address"
        },
        {
          "indexed": false,
          "internalType": "uint256",
          "name": "value",
          "type": "uint256"
        }
      ],
      "name": "Approval",
      "type": "event"
    },
    {
      "anonymous": false,
      "inputs": [
        {
          "indexed": true,
          "internalType": "address",
          "name": "from",
          "type": "address"
        },
        {
          "indexed": true,
          "internalType": "address",
          "name": "to",
          "type": "address"
        },
        {
          "indexed": false,
          "internalType": "uint256",
          "name": "value",
          "type": "uint256"
        }
      ],
      "name": "Transfer",
      "type": "event"
    },
    {
      "inputs": [
        {
          "internalType": "address",
          "name": "owner",
          "type": "address"
        },
        {
          "internalType": "address",
          "name": "spender",
          "type": "address"
        }
      ],
      "name": "allowance",
      "outputs": [
        {
          "internalType": "uint256",
          "name": "",
          "type": "uint256"
        }
      ],
      "stateMutability": "view",
      "type": "function",
      "constant": true
    },
    {
      "inputs": [
        {
          "internalType": "address",
          "name": "spender",
          "type": "address"
        },
        {
          "internalType": "uint256",
          "name": "amount",
          "type": "uint256"
        }
      ],
      "name": "approve",
      "outputs": [
        {
          "internalType": "bool",
          "name": "",
          "type": "bool"
        }
      ],
      "stateMutability": "nonpayable",
      "type": "function"
    },
    {
      "inputs": [
        {
          "internalType": "address",
          "name": "account",
          "type": "address"
        }
      ],
      "name": "balanceOf",
      "outputs": [
        {
          "internalType": "uint256",
          "name": "",
          "type": "uint256"
        }
      ],
      "stateMutability": "view",
      "type": "function",
      "constant": true
    },
    {
      "inputs": [
        {
          "internalType": "address",
          "name": "spender",
          "type": "address"
        },
        {
          "internalType": "uint256",
          "name": "subtractedValue",
          "type": "uint256"
        }
      ],
      "name": "decreaseAllowance",
      "outputs": [
        {
          "internalType": "bool",
          "name": "",
          "type": "bool"
        }
      ],
      "stateMutability": "nonpayable",
      "type": "function"
    },
    {
      "inputs": [
        {
          "internalType": "address",
          "name": "spender",
          "type": "address"
        },
        {
          "internalType": "uint256",
          "name": "addedValue",
          "type": "uint256"
        }
      ],
      "name": "increaseAllowance",
      "outputs": [
        {
          "internalType": "bool",
          "name": "",
          "type": "bool"
        }
      ],
      "stateMutability": "nonpayable",
      "type": "function"
    },
    {
      "inputs": [],
      "name": "name",
      "outputs": [
        {
          "internalType": "string",
          "name": "",
          "type": "string"
        }
      ],
      "stateMutability": "view",
      "type": "function",
      "constant": true
    },
    {
      "inputs": [],
      "name": "symbol",
      "outputs": [
        {
          "internalType": "string",
          "name": "",
          "type": "string"
        }
      ],
      "stateMutability": "view",
      "type": "function",
      "constant": true
    },
    {
      "inputs": [],
      "name": "totalSupply",
      "outputs": [
        {
          "internalType": "uint256",
          "name": "",
          "type": "uint256"
        }
      ],
      "stateMutability": "view",
      "type": "function",
      "constant": true
    },
    {
      "inputs": [
        {
          "internalType": "address",
          "name": "to",
          "type": "address"
        },
        {
          "internalType": "uint256",
          "name": "amount",
          "type": "uint256"
        }
      ],
      "name": "transfer",
      "outputs": [
        {
          "internalType": "bool",
          "name": "",
          "type": "bool"
        }
      ],
      "stateMutability": "nonpayable",
      "type": "function"
    },
    {
      "inputs": [
        {
          "internalType": "address",
          "name": "from",
          "type": "address"
        },
        {
          "internalType": "address",
          "name": "to",
          "type": "address"
        },
        {
          "internalType": "uint256",
          "name": "amount",
          "type": "uint256"
        }
      ],
      "name": "transferFrom",
      "outputs": [
        {
          "internalType": "bool",
          "name": "",
          "type": "bool"
        }
      ],
      "stateMutability": "nonpayable",
      "type": "function"
    },
    {
      "inputs": [],
      "name": "decimals",
      "outputs": [
        {
          "internalType": "uint8",
          "name": "",
          "type": "uint8"
        }
      ],
      "stateMutability": "view",
      "type": "function",
      "constant": true
    },
    {
      "inputs": [
        {
          "internalType": "address",
          "name": "ticketAddress",
          "type": "address"
        }
      ],
      "name": "buyTicket",
      "outputs": [],
      "stateMutability": "payable",
      "type": "function",
      "payable": true
    },
    {
      "inputs": [
        {
          "internalType": "address",
          "name": "ticketAddress",
          "type": "address"
        }
      ],
      "name": "upgradeTicket",
      "outputs": [],
      "stateMutability": "payable",
      "type": "function",
      "payable": true
    },
    {
      "inputs": [],
      "name": "verifyTicket",
      "outputs": [
        {
          "internalType": "bool",
          "name": "",
          "type": "bool"
        }
      ],
      "stateMutability": "view",
      "type": "function",
      "constant": true
    }
  ],
  "bytecode": "0x60806040526614f604cc2cc000600555660a4d88ddd940006006553480156200002757600080fd5b5060405162001fd038038062001fd083398181016040528101906200004d91906200034f565b828281600390805190602001906200006792919062000216565b5080600490805190602001906200008092919062000216565b5050506200009530826200009e60201b60201c565b5050506200065b565b600073ffffffffffffffffffffffffffffffffffffffff168273ffffffffffffffffffffffffffffffffffffffff16141562000111576040517f08c379a000000000000000000000000000000000000000000000000000000000815260040162000108906200042a565b60405180910390fd5b62000125600083836200020c60201b60201c565b8060026000828254620001399190620004e1565b92505081905550806000808473ffffffffffffffffffffffffffffffffffffffff1673ffffffffffffffffffffffffffffffffffffffff168152602001908152602001600020600082825401925050819055508173ffffffffffffffffffffffffffffffffffffffff16600073ffffffffffffffffffffffffffffffffffffffff167fddf252ad1be2c89b69c2b068fc378daa952ba7f163c4a11628f55a4df523b3ef83604051620001ec91906200044c565b60405180910390a362000208600083836200021160201b60201c565b5050565b505050565b505050565b82805462000224906200057e565b90600052602060002090601f01602090048101928262000248576000855562000294565b82601f106200026357805160ff191683800117855562000294565b8280016001018555821562000294579182015b828111156200029357825182559160200191906001019062000276565b5b509050620002a39190620002a7565b5090565b5b80821115620002c2576000816000905550600101620002a8565b5090565b6000620002dd620002d7846200049d565b62000469565b905082815260208101848484011115620002f657600080fd5b6200030384828562000548565b509392505050565b600082601f8301126200031d57600080fd5b81516200032f848260208601620002c6565b91505092915050565b600081519050620003498162000641565b92915050565b6000806000606084860312156200036557600080fd5b600084015167ffffffffffffffff8111156200038057600080fd5b6200038e868287016200030b565b935050602084015167ffffffffffffffff811115620003ac57600080fd5b620003ba868287016200030b565b9250506040620003cd8682870162000338565b9150509250925092565b6000620003e6601f83620004d0565b91507f45524332303a206d696e7420746f20746865207a65726f2061646472657373006000830152602082019050919050565b62000424816200053e565b82525050565b600060208201905081810360008301526200044581620003d7565b9050919050565b600060208201905062000463600083018462000419565b92915050565b6000604051905081810181811067ffffffffffffffff8211171562000493576200049262000612565b5b8060405250919050565b600067ffffffffffffffff821115620004bb57620004ba62000612565b5b601f19601f8301169050602081019050919050565b600082825260208201905092915050565b6000620004ee826200053e565b9150620004fb836200053e565b9250827fffffffffffffffffffffffffffffffffffffffffffffffffffffffffffffffff03821115620005335762000532620005b4565b5b828201905092915050565b6000819050919050565b60005b83811015620005685780820151818401526020810190506200054b565b8381111562000578576000848401525b50505050565b600060028204905060018216806200059757607f821691505b60208210811415620005ae57620005ad620005e3565b5b50919050565b7f4e487b7100000000000000000000000000000000000000000000000000000000600052601160045260246000fd5b7f4e487b7100000000000000000000000000000000000000000000000000000000600052602260045260246000fd5b7f4e487b7100000000000000000000000000000000000000000000000000000000600052604160045260246000fd5b6200064c816200053e565b81146200065857600080fd5b50565b611965806200066b6000396000f3fe6080604052600436106100dd5760003560e01c806370a082311161007f578063a457c2d711610059578063a457c2d7146102c9578063a5f8cdbb14610306578063a9059cbb14610322578063dd62ed3e1461035f576100dd565b806370a08231146102455780638970944f1461028257806395d89b411461029e576100dd565b806323b872dd116100bb57806323b872dd14610175578063313ce567146101b257806339509351146101dd5780634d589a711461021a576100dd565b806306fdde03146100e2578063095ea7b31461010d57806318160ddd1461014a575b600080fd5b3480156100ee57600080fd5b506100f761039c565b6040516101049190611577565b60405180910390f35b34801561011957600080fd5b50610134600480360381019061012f9190611061565b61042e565b604051610141919061155c565b60405180910390f35b34801561015657600080fd5b5061015f610451565b60405161016c9190611719565b60405180910390f35b34801561018157600080fd5b5061019c60048036038101906101979190611012565b61045b565b6040516101a9919061155c565b60405180910390f35b3480156101be57600080fd5b506101c761048a565b6040516101d49190611734565b60405180910390f35b3480156101e957600080fd5b5061020460048036038101906101ff9190611061565b61048f565b604051610211919061155c565b60405180910390f35b34801561022657600080fd5b5061022f6104c6565b60405161023c919061155c565b60405180910390f35b34801561025157600080fd5b5061026c60048036038101906102679190610fad565b6104d9565b6040516102799190611719565b60405180910390f35b61029c60048036038101906102979190610fad565b610521565b005b3480156102aa57600080fd5b506102b361072d565b6040516102c09190611577565b60405180910390f35b3480156102d557600080fd5b506102f060048036038101906102eb9190611061565b6107bf565b6040516102fd919061155c565b60405180910390f35b610320600480360381019061031b9190610fad565b610836565b005b34801561032e57600080fd5b5061034960048036038101906103449190611061565b6109e3565b604051610356919061155c565b60405180910390f35b34801561036b57600080fd5b5061038660048036038101906103819190610fd6565b610a06565b6040516103939190611719565b60405180910390f35b6060600380546103ab90611849565b80601f01602080910402602001604051908101604052809291908181526020018280546103d790611849565b80156104245780601f106103f957610100808354040283529160200191610424565b820191906000526020600020905b81548152906001019060200180831161040757829003601f168201915b5050505050905090565b600080610439610a8d565b9050610446818585610a95565b600191505092915050565b6000600254905090565b600080610466610a8d565b9050610473858285610c60565b61047e858585610cec565b60019150509392505050565b600090565b60008061049a610a8d565b90506104bb8185856104ac8589610a06565b6104b6919061176b565b610a95565b600191505092915050565b600060016104d3326104d9565b14905090565b60008060008373ffffffffffffffffffffffffffffffffffffffff1673ffffffffffffffffffffffffffffffffffffffff168152602001908152602001600020549050919050565b600061052c306104d9565b1161056c576040517f08c379a0000000000000000000000000000000000000000000000000000000008152600401610563906116d9565b60405180910390fd5b6000610577326104d9565b146105b7576040517f08c379a00000000000000000000000000000000000000000000000000000000081526004016105ae906115f9565b60405180910390fd5b60065434146105fb576040517f08c379a00000000000000000000000000000000000000000000000000000000081526004016105f2906115b9565b60405180910390fd5b60008190508073ffffffffffffffffffffffffffffffffffffffff16634d589a716040518163ffffffff1660e01b815260040160206040518083038186803b15801561064657600080fd5b505afa15801561065a573d6000803e3d6000fd5b505050506040513d601f19601f8201168201806040525081019061067e919061109d565b6106bd576040517f08c379a00000000000000000000000000000000000000000000000000000000081526004016106b490611659565b60405180910390fd5b8073ffffffffffffffffffffffffffffffffffffffff166377973ac96040518163ffffffff1660e01b8152600401600060405180830381600087803b15801561070557600080fd5b505af1158015610719573d6000803e3d6000fd5b5050505061072930326001610cec565b5050565b60606004805461073c90611849565b80601f016020809104026020016040519081016040528092919081815260200182805461076890611849565b80156107b55780601f1061078a576101008083540402835291602001916107b5565b820191906000526020600020905b81548152906001019060200180831161079857829003601f168201915b5050505050905090565b6000806107ca610a8d565b905060006107d88286610a06565b90508381101561081d576040517f08c379a0000000000000000000000000000000000000000000000000000000008152600401610814906116f9565b60405180910390fd5b61082a8286868403610a95565b60019250505092915050565b6000610841306104d9565b11610881576040517f08c379a0000000000000000000000000000000000000000000000000000000008152600401610878906116d9565b60405180910390fd5b600061088c326104d9565b146108cc576040517f08c379a00000000000000000000000000000000000000000000000000000000081526004016108c3906115f9565b60405180910390fd5b60008190508073ffffffffffffffffffffffffffffffffffffffff16634d589a716040518163ffffffff1660e01b815260040160206040518083038186803b15801561091757600080fd5b505afa15801561092b573d6000803e3d6000fd5b505050506040513d601f19601f8201168201806040525081019061094f919061109d565b1561098f576040517f08c379a000000000000000000000000000000000000000000000000000000000815260040161098690611679565b60405180910390fd5b60055434146109d3576040517f08c379a00000000000000000000000000000000000000000000000000000000081526004016109ca906115b9565b60405180910390fd5b6109df30326001610cec565b5050565b6000806109ee610a8d565b90506109fb818585610cec565b600191505092915050565b6000600160008473ffffffffffffffffffffffffffffffffffffffff1673ffffffffffffffffffffffffffffffffffffffff16815260200190815260200160002060008373ffffffffffffffffffffffffffffffffffffffff1673ffffffffffffffffffffffffffffffffffffffff16815260200190815260200160002054905092915050565b600033905090565b600073ffffffffffffffffffffffffffffffffffffffff168373ffffffffffffffffffffffffffffffffffffffff161415610b05576040517f08c379a0000000000000000000000000000000000000000000000000000000008152600401610afc906116b9565b60405180910390fd5b600073ffffffffffffffffffffffffffffffffffffffff168273ffffffffffffffffffffffffffffffffffffffff161415610b75576040517f08c379a0000000000000000000000000000000000000000000000000000000008152600401610b6c906115d9565b60405180910390fd5b80600160008573ffffffffffffffffffffffffffffffffffffffff1673ffffffffffffffffffffffffffffffffffffffff16815260200190815260200160002060008473ffffffffffffffffffffffffffffffffffffffff1673ffffffffffffffffffffffffffffffffffffffff168152602001908152602001600020819055508173ffffffffffffffffffffffffffffffffffffffff168373ffffffffffffffffffffffffffffffffffffffff167f8c5be1e5ebec7d5bd14f71427d1e84f3dd0314c0f7b2291e5b200ac8c7c3b92583604051610c539190611719565b60405180910390a3505050565b6000610c6c8484610a06565b90507fffffffffffffffffffffffffffffffffffffffffffffffffffffffffffffffff8114610ce65781811015610cd8576040517f08c379a0000000000000000000000000000000000000000000000000000000008152600401610ccf90611619565b60405180910390fd5b610ce58484848403610a95565b5b50505050565b600073ffffffffffffffffffffffffffffffffffffffff168373ffffffffffffffffffffffffffffffffffffffff161415610d5c576040517f08c379a0000000000000000000000000000000000000000000000000000000008152600401610d5390611699565b60405180910390fd5b600073ffffffffffffffffffffffffffffffffffffffff168273ffffffffffffffffffffffffffffffffffffffff161415610dcc576040517f08c379a0000000000000000000000000000000000000000000000000000000008152600401610dc390611599565b60405180910390fd5b610dd7838383610f64565b60008060008573ffffffffffffffffffffffffffffffffffffffff1673ffffffffffffffffffffffffffffffffffffffff16815260200190815260200160002054905081811015610e5d576040517f08c379a0000000000000000000000000000000000000000000000000000000008152600401610e5490611639565b60405180910390fd5b8181036000808673ffffffffffffffffffffffffffffffffffffffff1673ffffffffffffffffffffffffffffffffffffffff16815260200190815260200160002081905550816000808573ffffffffffffffffffffffffffffffffffffffff1673ffffffffffffffffffffffffffffffffffffffff168152602001908152602001600020600082825401925050819055508273ffffffffffffffffffffffffffffffffffffffff168473ffffffffffffffffffffffffffffffffffffffff167fddf252ad1be2c89b69c2b068fc378daa952ba7f163c4a11628f55a4df523b3ef84604051610f4b9190611719565b60405180910390a3610f5e848484610f69565b50505050565b505050565b505050565b600081359050610f7d816118ea565b92915050565b600081519050610f9281611901565b92915050565b600081359050610fa781611918565b92915050565b600060208284031215610fbf57600080fd5b6000610fcd84828501610f6e565b91505092915050565b60008060408385031215610fe957600080fd5b6000610ff785828601610f6e565b925050602061100885828601610f6e565b9150509250929050565b60008060006060848603121561102757600080fd5b600061103586828701610f6e565b935050602061104686828701610f6e565b925050604061105786828701610f98565b9150509250925092565b6000806040838503121561107457600080fd5b600061108285828601610f6e565b925050602061109385828601610f98565b9150509250929050565b6000602082840312156110af57600080fd5b60006110bd84828501610f83565b91505092915050565b6110cf816117d3565b82525050565b60006110e08261174f565b6110ea818561175a565b93506110fa818560208601611816565b611103816118d9565b840191505092915050565b600061111b60238361175a565b91507f45524332303a207472616e7366657220746f20746865207a65726f206164647260008301527f65737300000000000000000000000000000000000000000000000000000000006020830152604082019050919050565b600061118160118361175a565b91507f4e6f7420656e6f756768206d6f6e6579210000000000000000000000000000006000830152602082019050919050565b60006111c160228361175a565b91507f45524332303a20617070726f766520746f20746865207a65726f20616464726560008301527f73730000000000000000000000000000000000000000000000000000000000006020830152604082019050919050565b600061122760268361175a565b91507f596f7527766520616c726561647920707572636861736564206120564950207460008301527f69636b65742100000000000000000000000000000000000000000000000000006020830152604082019050919050565b600061128d601d8361175a565b91507f45524332303a20696e73756666696369656e7420616c6c6f77616e63650000006000830152602082019050919050565b60006112cd60268361175a565b91507f45524332303a207472616e7366657220616d6f756e742065786365656473206260008301527f616c616e636500000000000000000000000000000000000000000000000000006020830152604082019050919050565b6000611333601e8361175a565b91507f596f7520646f6e277420686176652061206261736963207469636b65742100006000830152602082019050919050565b600061137360228361175a565b91507f596f7527766520616c7265616479207075726368617365642061207469636b6560008301527f74210000000000000000000000000000000000000000000000000000000000006020830152604082019050919050565b60006113d960258361175a565b91507f45524332303a207472616e736665722066726f6d20746865207a65726f20616460008301527f64726573730000000000000000000000000000000000000000000000000000006020830152604082019050919050565b600061143f60248361175a565b91507f45524332303a20617070726f76652066726f6d20746865207a65726f2061646460008301527f72657373000000000000000000000000000000000000000000000000000000006020830152604082019050919050565b60006114a560108361175a565b91507f4e6f207469636b657473206c65667421000000000000000000000000000000006000830152602082019050919050565b60006114e560258361175a565b91507f45524332303a2064656372656173656420616c6c6f77616e63652062656c6f7760008301527f207a65726f0000000000000000000000000000000000000000000000000000006020830152604082019050919050565b611547816117ff565b82525050565b61155681611809565b82525050565b600060208201905061157160008301846110c6565b92915050565b6000602082019050818103600083015261159181846110d5565b905092915050565b600060208201905081810360008301526115b28161110e565b9050919050565b600060208201905081810360008301526115d281611174565b9050919050565b600060208201905081810360008301526115f2816111b4565b9050919050565b600060208201905081810360008301526116128161121a565b9050919050565b6000602082019050818103600083015261163281611280565b9050919050565b60006020820190508181036000830152611652816112c0565b9050919050565b6000602082019050818103600083015261167281611326565b9050919050565b6000602082019050818103600083015261169281611366565b9050919050565b600060208201905081810360008301526116b2816113cc565b9050919050565b600060208201905081810360008301526116d281611432565b9050919050565b600060208201905081810360008301526116f281611498565b9050919050565b60006020820190508181036000830152611712816114d8565b9050919050565b600060208201905061172e600083018461153e565b92915050565b6000602082019050611749600083018461154d565b92915050565b600081519050919050565b600082825260208201905092915050565b6000611776826117ff565b9150611781836117ff565b9250827fffffffffffffffffffffffffffffffffffffffffffffffffffffffffffffffff038211156117b6576117b561187b565b5b828201905092915050565b60006117cc826117df565b9050919050565b60008115159050919050565b600073ffffffffffffffffffffffffffffffffffffffff82169050919050565b6000819050919050565b600060ff82169050919050565b60005b83811015611834578082015181840152602081019050611819565b83811115611843576000848401525b50505050565b6000600282049050600182168061186157607f821691505b60208210811415611875576118746118aa565b5b50919050565b7f4e487b7100000000000000000000000000000000000000000000000000000000600052601160045260246000fd5b7f4e487b7100000000000000000000000000000000000000000000000000000000600052602260045260246000fd5b6000601f19601f8301169050919050565b6118f3816117c1565b81146118fe57600080fd5b50565b61190a816117d3565b811461191557600080fd5b50565b611921816117ff565b811461192c57600080fd5b5056fea264697066735822122034125bbffec6fe79d019f5d32192e98cbb8d81f1e4e7254b3a8cce96e8375acd64736f6c63430008000033",
  "immutableReferences": {},
  "source": "// SPDX-License-Identifier: MIT\npragma solidity ^0.8.0;\n\nimport \"@openzeppelin/contracts/token/ERC20/ERC20.sol\";\nimport \"../contracts/Ticket.sol\";\n\ncontract TicketVIP is ERC20 {\n\n    uint256 private ticketPrice = 5900000000000000; // 0.0059 ETH in Wei\n    uint256 private upgradePrice = 2900000000000000; // 0.0029 ETH in Wei\n\n    constructor(\n        string memory name,\n        string memory symbol,\n        uint256 initialSupply) ERC20(name, symbol) {\n        _mint(address(this), initialSupply);\n    }\n\n    function decimals() public view virtual override returns (uint8) {\n        return 0;\n    }\n\n    function buyTicket(address ticketAddress) external payable {\n        // check if there are any tickets left\n        require(balanceOf(address(this)) > 0, \"No tickets left!\");\n        \n        // check if the sender has already purchased a VIP ticket\n        require(balanceOf(tx.origin) == 0, \"You've already purchased a VIP ticket!\");\n\n        // check if the sender has already purchased a ticket\n        Ticket ticket = Ticket(ticketAddress);\n        require(!ticket.verifyTicket(), \"You've already purchased a ticket!\");\n\n        // check if sender has enough money\n        require(msg.value == ticketPrice, \"Not enough money!\"); \n        \n        // transfer the ticket to the sender\n        _transfer(address(this), tx.origin, 1);\n    }\n\n    function upgradeTicket(address ticketAddress) external payable {\n        // check if there are any tickets left\n        require(balanceOf(address(this)) > 0, \"No tickets left!\");\n        \n        // check if the sender has already purchased a VIP ticket\n        require(balanceOf(tx.origin) == 0, \"You've already purchased a VIP ticket!\");\n    \n        // check if sender has enough money\n        require(msg.value == upgradePrice, \"Not enough money!\");\n\n        // check if the sender owns a basic ticket. In that case, give it back to the contract\n        Ticket ticket = Ticket(ticketAddress);\n        require(ticket.verifyTicket(), \"You don't have a basic ticket!\");\n        ticket.giveBackTicket();\n\n        // transfer the ticket to the sender\n        _transfer(address(this), tx.origin, 1);\n    }\n\n    function verifyTicket() external view returns (bool) {\n        return balanceOf(tx.origin) == 1;\n    }\n    \n}",
  "sourcePath": "/home/osboxes/dev/unisacon/contracts/TicketVIP.sol",
  "compiler": {
    "name": "solc",
    "version": "0.8.0+commit.c7dfd78e.Emscripten.clang"
  },
  "schemaVersion": "3.4.14",
  "updatedAt": "2023-08-13T15:56:26.482Z",
  "networkType": "ethereum",
  "devdoc": {
    "kind": "dev",
    "methods": {
      "allowance(address,address)": {
        "details": "See {IERC20-allowance}."
      },
      "approve(address,uint256)": {
        "details": "See {IERC20-approve}. NOTE: If `amount` is the maximum `uint256`, the allowance is not updated on `transferFrom`. This is semantically equivalent to an infinite approval. Requirements: - `spender` cannot be the zero address."
      },
      "balanceOf(address)": {
        "details": "See {IERC20-balanceOf}."
      },
      "decimals()": {
        "details": "Returns the number of decimals used to get its user representation. For example, if `decimals` equals `2`, a balance of `505` tokens should be displayed to a user as `5.05` (`505 / 10 ** 2`). Tokens usually opt for a value of 18, imitating the relationship between Ether and Wei. This is the default value returned by this function, unless it's overridden. NOTE: This information is only used for _display_ purposes: it in no way affects any of the arithmetic of the contract, including {IERC20-balanceOf} and {IERC20-transfer}."
      },
      "decreaseAllowance(address,uint256)": {
        "details": "Atomically decreases the allowance granted to `spender` by the caller. This is an alternative to {approve} that can be used as a mitigation for problems described in {IERC20-approve}. Emits an {Approval} event indicating the updated allowance. Requirements: - `spender` cannot be the zero address. - `spender` must have allowance for the caller of at least `subtractedValue`."
      },
      "increaseAllowance(address,uint256)": {
        "details": "Atomically increases the allowance granted to `spender` by the caller. This is an alternative to {approve} that can be used as a mitigation for problems described in {IERC20-approve}. Emits an {Approval} event indicating the updated allowance. Requirements: - `spender` cannot be the zero address."
      },
      "name()": {
        "details": "Returns the name of the token."
      },
      "symbol()": {
        "details": "Returns the symbol of the token, usually a shorter version of the name."
      },
      "totalSupply()": {
        "details": "See {IERC20-totalSupply}."
      },
      "transfer(address,uint256)": {
        "details": "See {IERC20-transfer}. Requirements: - `to` cannot be the zero address. - the caller must have a balance of at least `amount`."
      },
      "transferFrom(address,address,uint256)": {
        "details": "See {IERC20-transferFrom}. Emits an {Approval} event indicating the updated allowance. This is not required by the EIP. See the note at the beginning of {ERC20}. NOTE: Does not update the allowance if the current allowance is the maximum `uint256`. Requirements: - `from` and `to` cannot be the zero address. - `from` must have a balance of at least `amount`. - the caller must have allowance for ``from``'s tokens of at least `amount`."
      }
    },
    "version": 1
  },
  "userdoc": {
    "kind": "user",
    "methods": {},
    "version": 1
  }
}