{
  "contractName": "Ticket",
  "abi": [
    {
      "inputs": [
        {
          "internalType": "string",
          "name": "name",
          "type": "string"
        },
        {
          "internalType": "string",
          "name": "symbol",
          "type": "string"
        },
        {
          "internalType": "uint256",
          "name": "initialSupply",
          "type": "uint256"
        }
      ],
      "stateMutability": "nonpayable",
      "type": "constructor"
    },
    {
      "anonymous": false,
      "inputs": [
        {
          "indexed": true,
          "internalType": "address",
          "name": "owner",
          "type": "address"
        },
        {
          "indexed": true,
          "internalType": "address",
          "name": "spender",
          "type": "address"
        },
        {
          "indexed": false,
          "internalType": "uint256",
          "name": "value",
          "type": "uint256"
        }
      ],
      "name": "Approval",
      "type": "event"
    },
    {
      "anonymous": false,
      "inputs": [
        {
          "indexed": true,
          "internalType": "address",
          "name": "from",
          "type": "address"
        },
        {
          "indexed": true,
          "internalType": "address",
          "name": "to",
          "type": "address"
        },
        {
          "indexed": false,
          "internalType": "uint256",
          "name": "value",
          "type": "uint256"
        }
      ],
      "name": "Transfer",
      "type": "event"
    },
    {
      "inputs": [
        {
          "internalType": "address",
          "name": "owner",
          "type": "address"
        },
        {
          "internalType": "address",
          "name": "spender",
          "type": "address"
        }
      ],
      "name": "allowance",
      "outputs": [
        {
          "internalType": "uint256",
          "name": "",
          "type": "uint256"
        }
      ],
      "stateMutability": "view",
      "type": "function",
      "constant": true
    },
    {
      "inputs": [
        {
          "internalType": "address",
          "name": "spender",
          "type": "address"
        },
        {
          "internalType": "uint256",
          "name": "amount",
          "type": "uint256"
        }
      ],
      "name": "approve",
      "outputs": [
        {
          "internalType": "bool",
          "name": "",
          "type": "bool"
        }
      ],
      "stateMutability": "nonpayable",
      "type": "function"
    },
    {
      "inputs": [
        {
          "internalType": "address",
          "name": "account",
          "type": "address"
        }
      ],
      "name": "balanceOf",
      "outputs": [
        {
          "internalType": "uint256",
          "name": "",
          "type": "uint256"
        }
      ],
      "stateMutability": "view",
      "type": "function",
      "constant": true
    },
    {
      "inputs": [
        {
          "internalType": "address",
          "name": "spender",
          "type": "address"
        },
        {
          "internalType": "uint256",
          "name": "subtractedValue",
          "type": "uint256"
        }
      ],
      "name": "decreaseAllowance",
      "outputs": [
        {
          "internalType": "bool",
          "name": "",
          "type": "bool"
        }
      ],
      "stateMutability": "nonpayable",
      "type": "function"
    },
    {
      "inputs": [
        {
          "internalType": "address",
          "name": "spender",
          "type": "address"
        },
        {
          "internalType": "uint256",
          "name": "addedValue",
          "type": "uint256"
        }
      ],
      "name": "increaseAllowance",
      "outputs": [
        {
          "internalType": "bool",
          "name": "",
          "type": "bool"
        }
      ],
      "stateMutability": "nonpayable",
      "type": "function"
    },
    {
      "inputs": [],
      "name": "name",
      "outputs": [
        {
          "internalType": "string",
          "name": "",
          "type": "string"
        }
      ],
      "stateMutability": "view",
      "type": "function",
      "constant": true
    },
    {
      "inputs": [],
      "name": "symbol",
      "outputs": [
        {
          "internalType": "string",
          "name": "",
          "type": "string"
        }
      ],
      "stateMutability": "view",
      "type": "function",
      "constant": true
    },
    {
      "inputs": [],
      "name": "totalSupply",
      "outputs": [
        {
          "internalType": "uint256",
          "name": "",
          "type": "uint256"
        }
      ],
      "stateMutability": "view",
      "type": "function",
      "constant": true
    },
    {
      "inputs": [
        {
          "internalType": "address",
          "name": "to",
          "type": "address"
        },
        {
          "internalType": "uint256",
          "name": "amount",
          "type": "uint256"
        }
      ],
      "name": "transfer",
      "outputs": [
        {
          "internalType": "bool",
          "name": "",
          "type": "bool"
        }
      ],
      "stateMutability": "nonpayable",
      "type": "function"
    },
    {
      "inputs": [
        {
          "internalType": "address",
          "name": "from",
          "type": "address"
        },
        {
          "internalType": "address",
          "name": "to",
          "type": "address"
        },
        {
          "internalType": "uint256",
          "name": "amount",
          "type": "uint256"
        }
      ],
      "name": "transferFrom",
      "outputs": [
        {
          "internalType": "bool",
          "name": "",
          "type": "bool"
        }
      ],
      "stateMutability": "nonpayable",
      "type": "function"
    },
    {
      "inputs": [],
      "name": "decimals",
      "outputs": [
        {
          "internalType": "uint8",
          "name": "",
          "type": "uint8"
        }
      ],
      "stateMutability": "view",
      "type": "function",
      "constant": true
    },
    {
      "inputs": [
        {
          "internalType": "address",
          "name": "ticketVIPAddress",
          "type": "address"
        }
      ],
      "name": "setTicketVIP",
      "outputs": [],
      "stateMutability": "nonpayable",
      "type": "function"
    },
    {
      "inputs": [],
      "name": "buyTicket",
      "outputs": [],
      "stateMutability": "payable",
      "type": "function",
      "payable": true
    },
    {
      "inputs": [
        {
          "internalType": "address",
          "name": "_address",
          "type": "address"
        }
      ],
      "name": "giveBackTicket",
      "outputs": [],
      "stateMutability": "nonpayable",
      "type": "function"
    },
    {
      "inputs": [
        {
          "internalType": "address",
          "name": "_address",
          "type": "address"
        }
      ],
      "name": "verifyTicket",
      "outputs": [
        {
          "internalType": "bool",
          "name": "",
          "type": "bool"
        }
      ],
      "stateMutability": "view",
      "type": "function",
      "constant": true
    }
  ],
  "bytecode": "0x6080604052660aa87bee5380006007553480156200001c57600080fd5b506040516200213e3803806200213e833981810160405281019062000042919062000385565b828281600390805190602001906200005c9291906200024c565b508060049080519060200190620000759291906200024c565b5050506200008a3082620000d460201b60201c565b33600560006101000a81548173ffffffffffffffffffffffffffffffffffffffff021916908373ffffffffffffffffffffffffffffffffffffffff16021790555050505062000691565b600073ffffffffffffffffffffffffffffffffffffffff168273ffffffffffffffffffffffffffffffffffffffff16141562000147576040517f08c379a00000000000000000000000000000000000000000000000000000000081526004016200013e9062000460565b60405180910390fd5b6200015b600083836200024260201b60201c565b80600260008282546200016f919062000517565b92505081905550806000808473ffffffffffffffffffffffffffffffffffffffff1673ffffffffffffffffffffffffffffffffffffffff168152602001908152602001600020600082825401925050819055508173ffffffffffffffffffffffffffffffffffffffff16600073ffffffffffffffffffffffffffffffffffffffff167fddf252ad1be2c89b69c2b068fc378daa952ba7f163c4a11628f55a4df523b3ef8360405162000222919062000482565b60405180910390a36200023e600083836200024760201b60201c565b5050565b505050565b505050565b8280546200025a90620005b4565b90600052602060002090601f0160209004810192826200027e5760008555620002ca565b82601f106200029957805160ff1916838001178555620002ca565b82800160010185558215620002ca579182015b82811115620002c9578251825591602001919060010190620002ac565b5b509050620002d99190620002dd565b5090565b5b80821115620002f8576000816000905550600101620002de565b5090565b6000620003136200030d84620004d3565b6200049f565b9050828152602081018484840111156200032c57600080fd5b620003398482856200057e565b509392505050565b600082601f8301126200035357600080fd5b815162000365848260208601620002fc565b91505092915050565b6000815190506200037f8162000677565b92915050565b6000806000606084860312156200039b57600080fd5b600084015167ffffffffffffffff811115620003b657600080fd5b620003c48682870162000341565b935050602084015167ffffffffffffffff811115620003e257600080fd5b620003f08682870162000341565b925050604062000403868287016200036e565b9150509250925092565b60006200041c601f8362000506565b91507f45524332303a206d696e7420746f20746865207a65726f2061646472657373006000830152602082019050919050565b6200045a8162000574565b82525050565b600060208201905081810360008301526200047b816200040d565b9050919050565b60006020820190506200049960008301846200044f565b92915050565b6000604051905081810181811067ffffffffffffffff82111715620004c957620004c862000648565b5b8060405250919050565b600067ffffffffffffffff821115620004f157620004f062000648565b5b601f19601f8301169050602081019050919050565b600082825260208201905092915050565b6000620005248262000574565b9150620005318362000574565b9250827fffffffffffffffffffffffffffffffffffffffffffffffffffffffffffffffff03821115620005695762000568620005ea565b5b828201905092915050565b6000819050919050565b60005b838110156200059e57808201518184015260208101905062000581565b83811115620005ae576000848401525b50505050565b60006002820490506001821680620005cd57607f821691505b60208210811415620005e457620005e362000619565b5b50919050565b7f4e487b7100000000000000000000000000000000000000000000000000000000600052601160045260246000fd5b7f4e487b7100000000000000000000000000000000000000000000000000000000600052602260045260246000fd5b7f4e487b7100000000000000000000000000000000000000000000000000000000600052604160045260246000fd5b620006828162000574565b81146200068e57600080fd5b50565b611a9d80620006a16000396000f3fe6080604052600436106100e85760003560e01c80636f49924a1161008a578063a457c2d711610059578063a457c2d71461031c578063a9059cbb14610359578063dd62ed3e14610396578063edca914c146103d3576100e8565b80636f49924a1461026257806370a082311461028b57806391b72932146102c857806395d89b41146102f1576100e8565b806318160ddd116100c657806318160ddd1461019257806323b872dd146101bd578063313ce567146101fa5780633950935114610225576100e8565b806306fdde03146100ed578063095ea7b314610118578063158c613414610155575b600080fd5b3480156100f957600080fd5b506101026103dd565b60405161010f919061168f565b60405180910390f35b34801561012457600080fd5b5061013f600480360381019061013a919061110f565b61046f565b60405161014c9190611674565b60405180910390f35b34801561016157600080fd5b5061017c6004803603810190610177919061105b565b610492565b6040516101899190611674565b60405180910390f35b34801561019e57600080fd5b506101a7610537565b6040516101b49190611851565b60405180910390f35b3480156101c957600080fd5b506101e460048036038101906101df91906110c0565b610541565b6040516101f19190611674565b60405180910390f35b34801561020657600080fd5b5061020f610570565b60405161021c919061186c565b60405180910390f35b34801561023157600080fd5b5061024c6004803603810190610247919061110f565b610575565b6040516102599190611674565b60405180910390f35b34801561026e57600080fd5b506102896004803603810190610284919061105b565b6105ac565b005b34801561029757600080fd5b506102b260048036038101906102ad919061105b565b610661565b6040516102bf9190611851565b60405180910390f35b3480156102d457600080fd5b506102ef60048036038101906102ea919061105b565b6106a9565b005b3480156102fd57600080fd5b50610306610747565b604051610313919061168f565b60405180910390f35b34801561032857600080fd5b50610343600480360381019061033e919061110f565b6107d9565b6040516103509190611674565b60405180910390f35b34801561036557600080fd5b50610380600480360381019061037b919061110f565b610850565b60405161038d9190611674565b60405180910390f35b3480156103a257600080fd5b506103bd60048036038101906103b89190611084565b610873565b6040516103ca9190611851565b60405180910390f35b6103db6108fa565b005b6060600380546103ec90611981565b80601f016020809104026020016040519081016040528092919081815260200182805461041890611981565b80156104655780601f1061043a57610100808354040283529160200191610465565b820191906000526020600020905b81548152906001019060200180831161044857829003601f168201915b5050505050905090565b60008061047a610b3b565b9050610487818585610b43565b600191505092915050565b6000600660009054906101000a900473ffffffffffffffffffffffffffffffffffffffff1673ffffffffffffffffffffffffffffffffffffffff163373ffffffffffffffffffffffffffffffffffffffff16148061051b57508173ffffffffffffffffffffffffffffffffffffffff163373ffffffffffffffffffffffffffffffffffffffff16145b61052457600080fd5b600161052f83610661565b149050919050565b6000600254905090565b60008061054c610b3b565b9050610559858285610d0e565b610564858585610d9a565b60019150509392505050565b600090565b600080610580610b3b565b90506105a18185856105928589610873565b61059c91906118a3565b610b43565b600191505092915050565b600660009054906101000a900473ffffffffffffffffffffffffffffffffffffffff1673ffffffffffffffffffffffffffffffffffffffff163373ffffffffffffffffffffffffffffffffffffffff161461060657600080fd5b600061061182610661565b1415610652576040517f08c379a0000000000000000000000000000000000000000000000000000000008152600401610649906117f1565b60405180910390fd5b61065e81306001610d9a565b50565b60008060008373ffffffffffffffffffffffffffffffffffffffff1673ffffffffffffffffffffffffffffffffffffffff168152602001908152602001600020549050919050565b600560009054906101000a900473ffffffffffffffffffffffffffffffffffffffff1673ffffffffffffffffffffffffffffffffffffffff163373ffffffffffffffffffffffffffffffffffffffff161461070357600080fd5b80600660006101000a81548173ffffffffffffffffffffffffffffffffffffffff021916908373ffffffffffffffffffffffffffffffffffffffff16021790555050565b60606004805461075690611981565b80601f016020809104026020016040519081016040528092919081815260200182805461078290611981565b80156107cf5780601f106107a4576101008083540402835291602001916107cf565b820191906000526020600020905b8154815290600101906020018083116107b257829003601f168201915b5050505050905090565b6000806107e4610b3b565b905060006107f28286610873565b905083811015610837576040517f08c379a000000000000000000000000000000000000000000000000000000000815260040161082e90611831565b60405180910390fd5b6108448286868403610b43565b60019250505092915050565b60008061085b610b3b565b9050610868818585610d9a565b600191505092915050565b6000600160008473ffffffffffffffffffffffffffffffffffffffff1673ffffffffffffffffffffffffffffffffffffffff16815260200190815260200160002060008373ffffffffffffffffffffffffffffffffffffffff1673ffffffffffffffffffffffffffffffffffffffff16815260200190815260200160002054905092915050565b3273ffffffffffffffffffffffffffffffffffffffff163373ffffffffffffffffffffffffffffffffffffffff1614610968576040517f08c379a000000000000000000000000000000000000000000000000000000000815260040161095f90611791565b60405180910390fd5b600061097330610661565b116109b3576040517f08c379a00000000000000000000000000000000000000000000000000000000081526004016109aa90611811565b60405180910390fd5b60006109be33610661565b146109fe576040517f08c379a00000000000000000000000000000000000000000000000000000000081526004016109f590611771565b60405180910390fd5b600660009054906101000a900473ffffffffffffffffffffffffffffffffffffffff1673ffffffffffffffffffffffffffffffffffffffff1663158c6134336040518263ffffffff1660e01b8152600401610a599190611659565b60206040518083038186803b158015610a7157600080fd5b505afa158015610a85573d6000803e3d6000fd5b505050506040513d601f19601f82011682018060405250810190610aa9919061114b565b15610ae9576040517f08c379a0000000000000000000000000000000000000000000000000000000008152600401610ae090611711565b60405180910390fd5b6007543414610b2d576040517f08c379a0000000000000000000000000000000000000000000000000000000008152600401610b24906116d1565b60405180910390fd5b610b3930336001610d9a565b565b600033905090565b600073ffffffffffffffffffffffffffffffffffffffff168373ffffffffffffffffffffffffffffffffffffffff161415610bb3576040517f08c379a0000000000000000000000000000000000000000000000000000000008152600401610baa906117d1565b60405180910390fd5b600073ffffffffffffffffffffffffffffffffffffffff168273ffffffffffffffffffffffffffffffffffffffff161415610c23576040517f08c379a0000000000000000000000000000000000000000000000000000000008152600401610c1a906116f1565b60405180910390fd5b80600160008573ffffffffffffffffffffffffffffffffffffffff1673ffffffffffffffffffffffffffffffffffffffff16815260200190815260200160002060008473ffffffffffffffffffffffffffffffffffffffff1673ffffffffffffffffffffffffffffffffffffffff168152602001908152602001600020819055508173ffffffffffffffffffffffffffffffffffffffff168373ffffffffffffffffffffffffffffffffffffffff167f8c5be1e5ebec7d5bd14f71427d1e84f3dd0314c0f7b2291e5b200ac8c7c3b92583604051610d019190611851565b60405180910390a3505050565b6000610d1a8484610873565b90507fffffffffffffffffffffffffffffffffffffffffffffffffffffffffffffffff8114610d945781811015610d86576040517f08c379a0000000000000000000000000000000000000000000000000000000008152600401610d7d90611731565b60405180910390fd5b610d938484848403610b43565b5b50505050565b600073ffffffffffffffffffffffffffffffffffffffff168373ffffffffffffffffffffffffffffffffffffffff161415610e0a576040517f08c379a0000000000000000000000000000000000000000000000000000000008152600401610e01906117b1565b60405180910390fd5b600073ffffffffffffffffffffffffffffffffffffffff168273ffffffffffffffffffffffffffffffffffffffff161415610e7a576040517f08c379a0000000000000000000000000000000000000000000000000000000008152600401610e71906116b1565b60405180910390fd5b610e85838383611012565b60008060008573ffffffffffffffffffffffffffffffffffffffff1673ffffffffffffffffffffffffffffffffffffffff16815260200190815260200160002054905081811015610f0b576040517f08c379a0000000000000000000000000000000000000000000000000000000008152600401610f0290611751565b60405180910390fd5b8181036000808673ffffffffffffffffffffffffffffffffffffffff1673ffffffffffffffffffffffffffffffffffffffff16815260200190815260200160002081905550816000808573ffffffffffffffffffffffffffffffffffffffff1673ffffffffffffffffffffffffffffffffffffffff168152602001908152602001600020600082825401925050819055508273ffffffffffffffffffffffffffffffffffffffff168473ffffffffffffffffffffffffffffffffffffffff167fddf252ad1be2c89b69c2b068fc378daa952ba7f163c4a11628f55a4df523b3ef84604051610ff99190611851565b60405180910390a361100c848484611017565b50505050565b505050565b505050565b60008135905061102b81611a22565b92915050565b60008151905061104081611a39565b92915050565b60008135905061105581611a50565b92915050565b60006020828403121561106d57600080fd5b600061107b8482850161101c565b91505092915050565b6000806040838503121561109757600080fd5b60006110a58582860161101c565b92505060206110b68582860161101c565b9150509250929050565b6000806000606084860312156110d557600080fd5b60006110e38682870161101c565b93505060206110f48682870161101c565b925050604061110586828701611046565b9150509250925092565b6000806040838503121561112257600080fd5b60006111308582860161101c565b925050602061114185828601611046565b9150509250929050565b60006020828403121561115d57600080fd5b600061116b84828501611031565b91505092915050565b61117d816118f9565b82525050565b61118c8161190b565b82525050565b600061119d82611887565b6111a78185611892565b93506111b781856020860161194e565b6111c081611a11565b840191505092915050565b60006111d8602383611892565b91507f45524332303a207472616e7366657220746f20746865207a65726f206164647260008301527f65737300000000000000000000000000000000000000000000000000000000006020830152604082019050919050565b600061123e601183611892565b91507f4e6f7420656e6f756768206d6f6e6579210000000000000000000000000000006000830152602082019050919050565b600061127e602283611892565b91507f45524332303a20617070726f766520746f20746865207a65726f20616464726560008301527f73730000000000000000000000000000000000000000000000000000000000006020830152604082019050919050565b60006112e4602683611892565b91507f596f7527766520616c726561647920707572636861736564206120564950207460008301527f69636b65742100000000000000000000000000000000000000000000000000006020830152604082019050919050565b600061134a601d83611892565b91507f45524332303a20696e73756666696369656e7420616c6c6f77616e63650000006000830152602082019050919050565b600061138a602683611892565b91507f45524332303a207472616e7366657220616d6f756e742065786365656473206260008301527f616c616e636500000000000000000000000000000000000000000000000000006020830152604082019050919050565b60006113f0602283611892565b91507f596f7527766520616c7265616479207075726368617365642061207469636b6560008301527f74210000000000000000000000000000000000000000000000000000000000006020830152604082019050919050565b6000611456601b83611892565b91507f4f6e6c7920454f412063616e2063616c6c2066756e6374696f6e2100000000006000830152602082019050919050565b6000611496602583611892565b91507f45524332303a207472616e736665722066726f6d20746865207a65726f20616460008301527f64726573730000000000000000000000000000000000000000000000000000006020830152604082019050919050565b60006114fc602483611892565b91507f45524332303a20617070726f76652066726f6d20746865207a65726f2061646460008301527f72657373000000000000000000000000000000000000000000000000000000006020830152604082019050919050565b6000611562601983611892565b91507f596f7520646f6e2774206f776e20616e79207469636b657421000000000000006000830152602082019050919050565b60006115a2601083611892565b91507f4e6f207469636b657473206c65667421000000000000000000000000000000006000830152602082019050919050565b60006115e2602583611892565b91507f45524332303a2064656372656173656420616c6c6f77616e63652062656c6f7760008301527f207a65726f0000000000000000000000000000000000000000000000000000006020830152604082019050919050565b61164481611937565b82525050565b61165381611941565b82525050565b600060208201905061166e6000830184611174565b92915050565b60006020820190506116896000830184611183565b92915050565b600060208201905081810360008301526116a98184611192565b905092915050565b600060208201905081810360008301526116ca816111cb565b9050919050565b600060208201905081810360008301526116ea81611231565b9050919050565b6000602082019050818103600083015261170a81611271565b9050919050565b6000602082019050818103600083015261172a816112d7565b9050919050565b6000602082019050818103600083015261174a8161133d565b9050919050565b6000602082019050818103600083015261176a8161137d565b9050919050565b6000602082019050818103600083015261178a816113e3565b9050919050565b600060208201905081810360008301526117aa81611449565b9050919050565b600060208201905081810360008301526117ca81611489565b9050919050565b600060208201905081810360008301526117ea816114ef565b9050919050565b6000602082019050818103600083015261180a81611555565b9050919050565b6000602082019050818103600083015261182a81611595565b9050919050565b6000602082019050818103600083015261184a816115d5565b9050919050565b6000602082019050611866600083018461163b565b92915050565b6000602082019050611881600083018461164a565b92915050565b600081519050919050565b600082825260208201905092915050565b60006118ae82611937565b91506118b983611937565b9250827fffffffffffffffffffffffffffffffffffffffffffffffffffffffffffffffff038211156118ee576118ed6119b3565b5b828201905092915050565b600061190482611917565b9050919050565b60008115159050919050565b600073ffffffffffffffffffffffffffffffffffffffff82169050919050565b6000819050919050565b600060ff82169050919050565b60005b8381101561196c578082015181840152602081019050611951565b8381111561197b576000848401525b50505050565b6000600282049050600182168061199957607f821691505b602082108114156119ad576119ac6119e2565b5b50919050565b7f4e487b7100000000000000000000000000000000000000000000000000000000600052601160045260246000fd5b7f4e487b7100000000000000000000000000000000000000000000000000000000600052602260045260246000fd5b6000601f19601f8301169050919050565b611a2b816118f9565b8114611a3657600080fd5b50565b611a428161190b565b8114611a4d57600080fd5b50565b611a5981611937565b8114611a6457600080fd5b5056fea26469706673582212201b0fca772eda4012c93b77e5396515abc4b359e859b4fbea869bf07dc5cb55d364736f6c63430008000033",
  "immutableReferences": {},
  "source": "// SPDX-License-Identifier: MIT\npragma solidity ^0.8.0;\n\nimport \"@openzeppelin/contracts/token/ERC20/ERC20.sol\";\nimport \"../contracts/TicketVIP.sol\";\n\ncontract Ticket is ERC20 {\n\n    address private owner;\n    TicketVIP ticketVIP;\n    uint256 private ticketPrice = 3000000000000000; // 0.0030 ETH in Wei\n    \n    constructor(\n        string memory name,\n        string memory symbol,\n        uint256 initialSupply) ERC20(name, symbol) {\n        _mint(address(this), initialSupply);\n        owner = msg.sender;\n    }\n    \n    function decimals() public view virtual override returns (uint8) {\n        return 0;\n    }\n\n    function setTicketVIP(address ticketVIPAddress) external {\n        require(msg.sender == owner);\n        ticketVIP = TicketVIP(ticketVIPAddress);\n    }\n\n    function buyTicket() payable external {\n        require(msg.sender == tx.origin, \"Only EOA can call function!\");\n\n        // check if there are any tickets left\n        require(balanceOf(address(this)) > 0, \"No tickets left!\");\n        \n        // check if the sender has already purchased a ticket\n        require(balanceOf(msg.sender) == 0, \"You've already purchased a ticket!\");\n\n        // check if the sender has already purchased a VIP ticket\n        require(!ticketVIP.verifyTicket(msg.sender), \"You've already purchased a VIP ticket!\");\n\n        // check if sender has enough money\n        require(msg.value == ticketPrice, \"Not enough money!\"); \n\n        // transfer the ticket to the sender\n        _transfer(address(this), msg.sender, 1);\n    }\n\n    function giveBackTicket(address _address) external {\n        require(msg.sender == address(ticketVIP)); // only ticketVIP contract can call this function\n\n        // check if _address owns a ticket\n        require(balanceOf(_address) != 0, \"You don't own any ticket!\");\n\n        // give back the ticket to the contract\n        _transfer(_address, address(this), 1);\n    }\n\n    function verifyTicket(address _address) external view returns (bool) {\n        require(msg.sender == address(ticketVIP) || msg.sender == _address); // only ticketVIP contract or _address can call this function\n\n        return balanceOf(_address) == 1;\n    }\n\n}",
  "sourcePath": "/home/osboxes/dev/unisacon/contracts/Ticket.sol",
  "compiler": {
    "name": "solc",
    "version": "0.8.0+commit.c7dfd78e.Emscripten.clang"
  },
  "schemaVersion": "3.4.14",
  "updatedAt": "2023-09-04T16:57:33.854Z",
  "networkType": "ethereum",
  "devdoc": {
    "kind": "dev",
    "methods": {
      "allowance(address,address)": {
        "details": "See {IERC20-allowance}."
      },
      "approve(address,uint256)": {
        "details": "See {IERC20-approve}. NOTE: If `amount` is the maximum `uint256`, the allowance is not updated on `transferFrom`. This is semantically equivalent to an infinite approval. Requirements: - `spender` cannot be the zero address."
      },
      "balanceOf(address)": {
        "details": "See {IERC20-balanceOf}."
      },
      "decimals()": {
        "details": "Returns the number of decimals used to get its user representation. For example, if `decimals` equals `2`, a balance of `505` tokens should be displayed to a user as `5.05` (`505 / 10 ** 2`). Tokens usually opt for a value of 18, imitating the relationship between Ether and Wei. This is the default value returned by this function, unless it's overridden. NOTE: This information is only used for _display_ purposes: it in no way affects any of the arithmetic of the contract, including {IERC20-balanceOf} and {IERC20-transfer}."
      },
      "decreaseAllowance(address,uint256)": {
        "details": "Atomically decreases the allowance granted to `spender` by the caller. This is an alternative to {approve} that can be used as a mitigation for problems described in {IERC20-approve}. Emits an {Approval} event indicating the updated allowance. Requirements: - `spender` cannot be the zero address. - `spender` must have allowance for the caller of at least `subtractedValue`."
      },
      "increaseAllowance(address,uint256)": {
        "details": "Atomically increases the allowance granted to `spender` by the caller. This is an alternative to {approve} that can be used as a mitigation for problems described in {IERC20-approve}. Emits an {Approval} event indicating the updated allowance. Requirements: - `spender` cannot be the zero address."
      },
      "name()": {
        "details": "Returns the name of the token."
      },
      "symbol()": {
        "details": "Returns the symbol of the token, usually a shorter version of the name."
      },
      "totalSupply()": {
        "details": "See {IERC20-totalSupply}."
      },
      "transfer(address,uint256)": {
        "details": "See {IERC20-transfer}. Requirements: - `to` cannot be the zero address. - the caller must have a balance of at least `amount`."
      },
      "transferFrom(address,address,uint256)": {
        "details": "See {IERC20-transferFrom}. Emits an {Approval} event indicating the updated allowance. This is not required by the EIP. See the note at the beginning of {ERC20}. NOTE: Does not update the allowance if the current allowance is the maximum `uint256`. Requirements: - `from` and `to` cannot be the zero address. - `from` must have a balance of at least `amount`. - the caller must have allowance for ``from``'s tokens of at least `amount`."
      }
    },
    "version": 1
  },
  "userdoc": {
    "kind": "user",
    "methods": {},
    "version": 1
  }
}