{
  "contractName": "TicketVIP",
  "abi": [
    {
      "inputs": [
        {
          "internalType": "string",
          "name": "name",
          "type": "string"
        },
        {
          "internalType": "string",
          "name": "symbol",
          "type": "string"
        },
        {
          "internalType": "uint256",
          "name": "initialSupply",
          "type": "uint256"
        }
      ],
      "stateMutability": "nonpayable",
      "type": "constructor"
    },
    {
      "anonymous": false,
      "inputs": [
        {
          "indexed": true,
          "internalType": "address",
          "name": "owner",
          "type": "address"
        },
        {
          "indexed": true,
          "internalType": "address",
          "name": "spender",
          "type": "address"
        },
        {
          "indexed": false,
          "internalType": "uint256",
          "name": "value",
          "type": "uint256"
        }
      ],
      "name": "Approval",
      "type": "event"
    },
    {
      "anonymous": false,
      "inputs": [
        {
          "indexed": true,
          "internalType": "address",
          "name": "from",
          "type": "address"
        },
        {
          "indexed": true,
          "internalType": "address",
          "name": "to",
          "type": "address"
        },
        {
          "indexed": false,
          "internalType": "uint256",
          "name": "value",
          "type": "uint256"
        }
      ],
      "name": "Transfer",
      "type": "event"
    },
    {
      "inputs": [
        {
          "internalType": "address",
          "name": "owner",
          "type": "address"
        },
        {
          "internalType": "address",
          "name": "spender",
          "type": "address"
        }
      ],
      "name": "allowance",
      "outputs": [
        {
          "internalType": "uint256",
          "name": "",
          "type": "uint256"
        }
      ],
      "stateMutability": "view",
      "type": "function",
      "constant": true
    },
    {
      "inputs": [
        {
          "internalType": "address",
          "name": "spender",
          "type": "address"
        },
        {
          "internalType": "uint256",
          "name": "amount",
          "type": "uint256"
        }
      ],
      "name": "approve",
      "outputs": [
        {
          "internalType": "bool",
          "name": "",
          "type": "bool"
        }
      ],
      "stateMutability": "nonpayable",
      "type": "function"
    },
    {
      "inputs": [
        {
          "internalType": "address",
          "name": "account",
          "type": "address"
        }
      ],
      "name": "balanceOf",
      "outputs": [
        {
          "internalType": "uint256",
          "name": "",
          "type": "uint256"
        }
      ],
      "stateMutability": "view",
      "type": "function",
      "constant": true
    },
    {
      "inputs": [
        {
          "internalType": "address",
          "name": "spender",
          "type": "address"
        },
        {
          "internalType": "uint256",
          "name": "subtractedValue",
          "type": "uint256"
        }
      ],
      "name": "decreaseAllowance",
      "outputs": [
        {
          "internalType": "bool",
          "name": "",
          "type": "bool"
        }
      ],
      "stateMutability": "nonpayable",
      "type": "function"
    },
    {
      "inputs": [
        {
          "internalType": "address",
          "name": "spender",
          "type": "address"
        },
        {
          "internalType": "uint256",
          "name": "addedValue",
          "type": "uint256"
        }
      ],
      "name": "increaseAllowance",
      "outputs": [
        {
          "internalType": "bool",
          "name": "",
          "type": "bool"
        }
      ],
      "stateMutability": "nonpayable",
      "type": "function"
    },
    {
      "inputs": [],
      "name": "name",
      "outputs": [
        {
          "internalType": "string",
          "name": "",
          "type": "string"
        }
      ],
      "stateMutability": "view",
      "type": "function",
      "constant": true
    },
    {
      "inputs": [],
      "name": "symbol",
      "outputs": [
        {
          "internalType": "string",
          "name": "",
          "type": "string"
        }
      ],
      "stateMutability": "view",
      "type": "function",
      "constant": true
    },
    {
      "inputs": [],
      "name": "totalSupply",
      "outputs": [
        {
          "internalType": "uint256",
          "name": "",
          "type": "uint256"
        }
      ],
      "stateMutability": "view",
      "type": "function",
      "constant": true
    },
    {
      "inputs": [
        {
          "internalType": "address",
          "name": "to",
          "type": "address"
        },
        {
          "internalType": "uint256",
          "name": "amount",
          "type": "uint256"
        }
      ],
      "name": "transfer",
      "outputs": [
        {
          "internalType": "bool",
          "name": "",
          "type": "bool"
        }
      ],
      "stateMutability": "nonpayable",
      "type": "function"
    },
    {
      "inputs": [
        {
          "internalType": "address",
          "name": "from",
          "type": "address"
        },
        {
          "internalType": "address",
          "name": "to",
          "type": "address"
        },
        {
          "internalType": "uint256",
          "name": "amount",
          "type": "uint256"
        }
      ],
      "name": "transferFrom",
      "outputs": [
        {
          "internalType": "bool",
          "name": "",
          "type": "bool"
        }
      ],
      "stateMutability": "nonpayable",
      "type": "function"
    },
    {
      "inputs": [],
      "name": "decimals",
      "outputs": [
        {
          "internalType": "uint8",
          "name": "",
          "type": "uint8"
        }
      ],
      "stateMutability": "view",
      "type": "function",
      "constant": true
    },
    {
      "inputs": [
        {
          "internalType": "address",
          "name": "ticketAddress",
          "type": "address"
        }
      ],
      "name": "setTicket",
      "outputs": [],
      "stateMutability": "nonpayable",
      "type": "function"
    },
    {
      "inputs": [],
      "name": "buyTicket",
      "outputs": [],
      "stateMutability": "payable",
      "type": "function",
      "payable": true
    },
    {
      "inputs": [],
      "name": "upgradeTicket",
      "outputs": [],
      "stateMutability": "payable",
      "type": "function",
      "payable": true
    },
    {
      "inputs": [
        {
          "internalType": "address",
          "name": "_address",
          "type": "address"
        }
      ],
      "name": "verifyTicket",
      "outputs": [
        {
          "internalType": "bool",
          "name": "",
          "type": "bool"
        }
      ],
      "stateMutability": "view",
      "type": "function",
      "constant": true
    }
  ],
  "bytecode": "0x60806040526614f604cc2cc000600755660a4d88ddd940006008553480156200002757600080fd5b50604051620023423803806200234283398181016040528101906200004d919062000390565b828281600390805190602001906200006792919062000257565b5080600490805190602001906200008092919062000257565b505050620000953082620000df60201b60201c565b33600560006101000a81548173ffffffffffffffffffffffffffffffffffffffff021916908373ffffffffffffffffffffffffffffffffffffffff1602179055505050506200069c565b600073ffffffffffffffffffffffffffffffffffffffff168273ffffffffffffffffffffffffffffffffffffffff16141562000152576040517f08c379a000000000000000000000000000000000000000000000000000000000815260040162000149906200046b565b60405180910390fd5b62000166600083836200024d60201b60201c565b80600260008282546200017a919062000522565b92505081905550806000808473ffffffffffffffffffffffffffffffffffffffff1673ffffffffffffffffffffffffffffffffffffffff168152602001908152602001600020600082825401925050819055508173ffffffffffffffffffffffffffffffffffffffff16600073ffffffffffffffffffffffffffffffffffffffff167fddf252ad1be2c89b69c2b068fc378daa952ba7f163c4a11628f55a4df523b3ef836040516200022d91906200048d565b60405180910390a362000249600083836200025260201b60201c565b5050565b505050565b505050565b8280546200026590620005bf565b90600052602060002090601f016020900481019282620002895760008555620002d5565b82601f10620002a457805160ff1916838001178555620002d5565b82800160010185558215620002d5579182015b82811115620002d4578251825591602001919060010190620002b7565b5b509050620002e49190620002e8565b5090565b5b8082111562000303576000816000905550600101620002e9565b5090565b60006200031e6200031884620004de565b620004aa565b9050828152602081018484840111156200033757600080fd5b6200034484828562000589565b509392505050565b600082601f8301126200035e57600080fd5b81516200037084826020860162000307565b91505092915050565b6000815190506200038a8162000682565b92915050565b600080600060608486031215620003a657600080fd5b600084015167ffffffffffffffff811115620003c157600080fd5b620003cf868287016200034c565b935050602084015167ffffffffffffffff811115620003ed57600080fd5b620003fb868287016200034c565b92505060406200040e8682870162000379565b9150509250925092565b600062000427601f8362000511565b91507f45524332303a206d696e7420746f20746865207a65726f2061646472657373006000830152602082019050919050565b62000465816200057f565b82525050565b60006020820190508181036000830152620004868162000418565b9050919050565b6000602082019050620004a460008301846200045a565b92915050565b6000604051905081810181811067ffffffffffffffff82111715620004d457620004d362000653565b5b8060405250919050565b600067ffffffffffffffff821115620004fc57620004fb62000653565b5b601f19601f8301169050602081019050919050565b600082825260208201905092915050565b60006200052f826200057f565b91506200053c836200057f565b9250827fffffffffffffffffffffffffffffffffffffffffffffffffffffffffffffffff03821115620005745762000573620005f5565b5b828201905092915050565b6000819050919050565b60005b83811015620005a95780820151818401526020810190506200058c565b83811115620005b9576000848401525b50505050565b60006002820490506001821680620005d857607f821691505b60208210811415620005ef57620005ee62000624565b5b50919050565b7f4e487b7100000000000000000000000000000000000000000000000000000000600052601160045260246000fd5b7f4e487b7100000000000000000000000000000000000000000000000000000000600052602260045260246000fd5b7f4e487b7100000000000000000000000000000000000000000000000000000000600052604160045260246000fd5b6200068d816200057f565b81146200069957600080fd5b50565b611c9680620006ac6000396000f3fe6080604052600436106100e85760003560e01c8063395093511161008a578063a457c2d711610059578063a457c2d7146102fd578063a9059cbb1461033a578063dd62ed3e14610377578063edca914c146103b4576100e8565b8063395093511461024e57806358b5ddcf1461028b57806370a082311461029557806395d89b41146102d2576100e8565b806318160ddd116100c657806318160ddd146101925780631c65c78b146101bd57806323b872dd146101e6578063313ce56714610223576100e8565b806306fdde03146100ed578063095ea7b314610118578063158c613414610155575b600080fd5b3480156100f957600080fd5b506101026103be565b60405161010f9190611888565b60405180910390f35b34801561012457600080fd5b5061013f600480360381019061013a9190611308565b610450565b60405161014c919061186d565b60405180910390f35b34801561016157600080fd5b5061017c60048036038101906101779190611254565b610473565b604051610189919061186d565b60405180910390f35b34801561019e57600080fd5b506101a7610518565b6040516101b49190611a4a565b60405180910390f35b3480156101c957600080fd5b506101e460048036038101906101df9190611254565b610522565b005b3480156101f257600080fd5b5061020d600480360381019061020891906112b9565b6105c0565b60405161021a919061186d565b60405180910390f35b34801561022f57600080fd5b506102386105ef565b6040516102459190611a65565b60405180910390f35b34801561025a57600080fd5b5061027560048036038101906102709190611308565b6105f4565b604051610282919061186d565b60405180910390f35b61029361062b565b005b3480156102a157600080fd5b506102bc60048036038101906102b79190611254565b6108f8565b6040516102c99190611a4a565b60405180910390f35b3480156102de57600080fd5b506102e7610940565b6040516102f49190611888565b60405180910390f35b34801561030957600080fd5b50610324600480360381019061031f9190611308565b6109d2565b604051610331919061186d565b60405180910390f35b34801561034657600080fd5b50610361600480360381019061035c9190611308565b610a49565b60405161036e919061186d565b60405180910390f35b34801561038357600080fd5b5061039e6004803603810190610399919061127d565b610a6c565b6040516103ab9190611a4a565b60405180910390f35b6103bc610af3565b005b6060600380546103cd90611b7a565b80601f01602080910402602001604051908101604052809291908181526020018280546103f990611b7a565b80156104465780601f1061041b57610100808354040283529160200191610446565b820191906000526020600020905b81548152906001019060200180831161042957829003601f168201915b5050505050905090565b60008061045b610d34565b9050610468818585610d3c565b600191505092915050565b6000600660009054906101000a900473ffffffffffffffffffffffffffffffffffffffff1673ffffffffffffffffffffffffffffffffffffffff163373ffffffffffffffffffffffffffffffffffffffff1614806104fc57508173ffffffffffffffffffffffffffffffffffffffff163373ffffffffffffffffffffffffffffffffffffffff16145b61050557600080fd5b6001610510836108f8565b149050919050565b6000600254905090565b3373ffffffffffffffffffffffffffffffffffffffff16600560009054906101000a900473ffffffffffffffffffffffffffffffffffffffff1673ffffffffffffffffffffffffffffffffffffffff161461057c57600080fd5b80600660006101000a81548173ffffffffffffffffffffffffffffffffffffffff021916908373ffffffffffffffffffffffffffffffffffffffff16021790555050565b6000806105cb610d34565b90506105d8858285610f07565b6105e3858585610f93565b60019150509392505050565b600090565b6000806105ff610d34565b90506106208185856106118589610a6c565b61061b9190611a9c565b610d3c565b600191505092915050565b3273ffffffffffffffffffffffffffffffffffffffff163373ffffffffffffffffffffffffffffffffffffffff1614610699576040517f08c379a00000000000000000000000000000000000000000000000000000000081526004016106909061198a565b60405180910390fd5b60006106a4306108f8565b116106e4576040517f08c379a00000000000000000000000000000000000000000000000000000000081526004016106db90611a0a565b60405180910390fd5b60006106ef336108f8565b1461072f576040517f08c379a00000000000000000000000000000000000000000000000000000000081526004016107269061190a565b60405180910390fd5b6008543414610773576040517f08c379a000000000000000000000000000000000000000000000000000000000815260040161076a906118ca565b60405180910390fd5b600660009054906101000a900473ffffffffffffffffffffffffffffffffffffffff1673ffffffffffffffffffffffffffffffffffffffff1663158c6134336040518263ffffffff1660e01b81526004016107ce9190611852565b60206040518083038186803b1580156107e657600080fd5b505afa1580156107fa573d6000803e3d6000fd5b505050506040513d601f19601f8201168201806040525081019061081e9190611344565b61085d576040517f08c379a0000000000000000000000000000000000000000000000000000000008152600401610854906119aa565b60405180910390fd5b600660009054906101000a900473ffffffffffffffffffffffffffffffffffffffff1673ffffffffffffffffffffffffffffffffffffffff16636f49924a336040518263ffffffff1660e01b81526004016108b89190611852565b600060405180830381600087803b1580156108d257600080fd5b505af11580156108e6573d6000803e3d6000fd5b505050506108f630336001610f93565b565b60008060008373ffffffffffffffffffffffffffffffffffffffff1673ffffffffffffffffffffffffffffffffffffffff168152602001908152602001600020549050919050565b60606004805461094f90611b7a565b80601f016020809104026020016040519081016040528092919081815260200182805461097b90611b7a565b80156109c85780601f1061099d576101008083540402835291602001916109c8565b820191906000526020600020905b8154815290600101906020018083116109ab57829003601f168201915b5050505050905090565b6000806109dd610d34565b905060006109eb8286610a6c565b905083811015610a30576040517f08c379a0000000000000000000000000000000000000000000000000000000008152600401610a2790611a2a565b60405180910390fd5b610a3d8286868403610d3c565b60019250505092915050565b600080610a54610d34565b9050610a61818585610f93565b600191505092915050565b6000600160008473ffffffffffffffffffffffffffffffffffffffff1673ffffffffffffffffffffffffffffffffffffffff16815260200190815260200160002060008373ffffffffffffffffffffffffffffffffffffffff1673ffffffffffffffffffffffffffffffffffffffff16815260200190815260200160002054905092915050565b3273ffffffffffffffffffffffffffffffffffffffff163373ffffffffffffffffffffffffffffffffffffffff1614610b61576040517f08c379a0000000000000000000000000000000000000000000000000000000008152600401610b589061198a565b60405180910390fd5b6000610b6c306108f8565b11610bac576040517f08c379a0000000000000000000000000000000000000000000000000000000008152600401610ba390611a0a565b60405180910390fd5b6000610bb7336108f8565b14610bf7576040517f08c379a0000000000000000000000000000000000000000000000000000000008152600401610bee9061190a565b60405180910390fd5b600660009054906101000a900473ffffffffffffffffffffffffffffffffffffffff1673ffffffffffffffffffffffffffffffffffffffff1663158c6134336040518263ffffffff1660e01b8152600401610c529190611852565b60206040518083038186803b158015610c6a57600080fd5b505afa158015610c7e573d6000803e3d6000fd5b505050506040513d601f19601f82011682018060405250810190610ca29190611344565b15610ce2576040517f08c379a0000000000000000000000000000000000000000000000000000000008152600401610cd99061196a565b60405180910390fd5b6007543414610d26576040517f08c379a0000000000000000000000000000000000000000000000000000000008152600401610d1d906118ca565b60405180910390fd5b610d3230336001610f93565b565b600033905090565b600073ffffffffffffffffffffffffffffffffffffffff168373ffffffffffffffffffffffffffffffffffffffff161415610dac576040517f08c379a0000000000000000000000000000000000000000000000000000000008152600401610da3906119ea565b60405180910390fd5b600073ffffffffffffffffffffffffffffffffffffffff168273ffffffffffffffffffffffffffffffffffffffff161415610e1c576040517f08c379a0000000000000000000000000000000000000000000000000000000008152600401610e13906118ea565b60405180910390fd5b80600160008573ffffffffffffffffffffffffffffffffffffffff1673ffffffffffffffffffffffffffffffffffffffff16815260200190815260200160002060008473ffffffffffffffffffffffffffffffffffffffff1673ffffffffffffffffffffffffffffffffffffffff168152602001908152602001600020819055508173ffffffffffffffffffffffffffffffffffffffff168373ffffffffffffffffffffffffffffffffffffffff167f8c5be1e5ebec7d5bd14f71427d1e84f3dd0314c0f7b2291e5b200ac8c7c3b92583604051610efa9190611a4a565b60405180910390a3505050565b6000610f138484610a6c565b90507fffffffffffffffffffffffffffffffffffffffffffffffffffffffffffffffff8114610f8d5781811015610f7f576040517f08c379a0000000000000000000000000000000000000000000000000000000008152600401610f769061192a565b60405180910390fd5b610f8c8484848403610d3c565b5b50505050565b600073ffffffffffffffffffffffffffffffffffffffff168373ffffffffffffffffffffffffffffffffffffffff161415611003576040517f08c379a0000000000000000000000000000000000000000000000000000000008152600401610ffa906119ca565b60405180910390fd5b600073ffffffffffffffffffffffffffffffffffffffff168273ffffffffffffffffffffffffffffffffffffffff161415611073576040517f08c379a000000000000000000000000000000000000000000000000000000000815260040161106a906118aa565b60405180910390fd5b61107e83838361120b565b60008060008573ffffffffffffffffffffffffffffffffffffffff1673ffffffffffffffffffffffffffffffffffffffff16815260200190815260200160002054905081811015611104576040517f08c379a00000000000000000000000000000000000000000000000000000000081526004016110fb9061194a565b60405180910390fd5b8181036000808673ffffffffffffffffffffffffffffffffffffffff1673ffffffffffffffffffffffffffffffffffffffff16815260200190815260200160002081905550816000808573ffffffffffffffffffffffffffffffffffffffff1673ffffffffffffffffffffffffffffffffffffffff168152602001908152602001600020600082825401925050819055508273ffffffffffffffffffffffffffffffffffffffff168473ffffffffffffffffffffffffffffffffffffffff167fddf252ad1be2c89b69c2b068fc378daa952ba7f163c4a11628f55a4df523b3ef846040516111f29190611a4a565b60405180910390a3611205848484611210565b50505050565b505050565b505050565b60008135905061122481611c1b565b92915050565b60008151905061123981611c32565b92915050565b60008135905061124e81611c49565b92915050565b60006020828403121561126657600080fd5b600061127484828501611215565b91505092915050565b6000806040838503121561129057600080fd5b600061129e85828601611215565b92505060206112af85828601611215565b9150509250929050565b6000806000606084860312156112ce57600080fd5b60006112dc86828701611215565b93505060206112ed86828701611215565b92505060406112fe8682870161123f565b9150509250925092565b6000806040838503121561131b57600080fd5b600061132985828601611215565b925050602061133a8582860161123f565b9150509250929050565b60006020828403121561135657600080fd5b60006113648482850161122a565b91505092915050565b61137681611af2565b82525050565b61138581611b04565b82525050565b600061139682611a80565b6113a08185611a8b565b93506113b0818560208601611b47565b6113b981611c0a565b840191505092915050565b60006113d1602383611a8b565b91507f45524332303a207472616e7366657220746f20746865207a65726f206164647260008301527f65737300000000000000000000000000000000000000000000000000000000006020830152604082019050919050565b6000611437601183611a8b565b91507f4e6f7420656e6f756768206d6f6e6579210000000000000000000000000000006000830152602082019050919050565b6000611477602283611a8b565b91507f45524332303a20617070726f766520746f20746865207a65726f20616464726560008301527f73730000000000000000000000000000000000000000000000000000000000006020830152604082019050919050565b60006114dd602683611a8b565b91507f596f7527766520616c726561647920707572636861736564206120564950207460008301527f69636b65742100000000000000000000000000000000000000000000000000006020830152604082019050919050565b6000611543601d83611a8b565b91507f45524332303a20696e73756666696369656e7420616c6c6f77616e63650000006000830152602082019050919050565b6000611583602683611a8b565b91507f45524332303a207472616e7366657220616d6f756e742065786365656473206260008301527f616c616e636500000000000000000000000000000000000000000000000000006020830152604082019050919050565b60006115e9602283611a8b565b91507f596f7527766520616c7265616479207075726368617365642061207469636b6560008301527f74210000000000000000000000000000000000000000000000000000000000006020830152604082019050919050565b600061164f601b83611a8b565b91507f4f6e6c7920454f412063616e2063616c6c2066756e6374696f6e2100000000006000830152602082019050919050565b600061168f602083611a8b565b91507f596f7520646f6e27742068617665206120726567756c6172207469636b6574216000830152602082019050919050565b60006116cf602583611a8b565b91507f45524332303a207472616e736665722066726f6d20746865207a65726f20616460008301527f64726573730000000000000000000000000000000000000000000000000000006020830152604082019050919050565b6000611735602483611a8b565b91507f45524332303a20617070726f76652066726f6d20746865207a65726f2061646460008301527f72657373000000000000000000000000000000000000000000000000000000006020830152604082019050919050565b600061179b601083611a8b565b91507f4e6f207469636b657473206c65667421000000000000000000000000000000006000830152602082019050919050565b60006117db602583611a8b565b91507f45524332303a2064656372656173656420616c6c6f77616e63652062656c6f7760008301527f207a65726f0000000000000000000000000000000000000000000000000000006020830152604082019050919050565b61183d81611b30565b82525050565b61184c81611b3a565b82525050565b6000602082019050611867600083018461136d565b92915050565b6000602082019050611882600083018461137c565b92915050565b600060208201905081810360008301526118a2818461138b565b905092915050565b600060208201905081810360008301526118c3816113c4565b9050919050565b600060208201905081810360008301526118e38161142a565b9050919050565b600060208201905081810360008301526119038161146a565b9050919050565b60006020820190508181036000830152611923816114d0565b9050919050565b6000602082019050818103600083015261194381611536565b9050919050565b6000602082019050818103600083015261196381611576565b9050919050565b60006020820190508181036000830152611983816115dc565b9050919050565b600060208201905081810360008301526119a381611642565b9050919050565b600060208201905081810360008301526119c381611682565b9050919050565b600060208201905081810360008301526119e3816116c2565b9050919050565b60006020820190508181036000830152611a0381611728565b9050919050565b60006020820190508181036000830152611a238161178e565b9050919050565b60006020820190508181036000830152611a43816117ce565b9050919050565b6000602082019050611a5f6000830184611834565b92915050565b6000602082019050611a7a6000830184611843565b92915050565b600081519050919050565b600082825260208201905092915050565b6000611aa782611b30565b9150611ab283611b30565b9250827fffffffffffffffffffffffffffffffffffffffffffffffffffffffffffffffff03821115611ae757611ae6611bac565b5b828201905092915050565b6000611afd82611b10565b9050919050565b60008115159050919050565b600073ffffffffffffffffffffffffffffffffffffffff82169050919050565b6000819050919050565b600060ff82169050919050565b60005b83811015611b65578082015181840152602081019050611b4a565b83811115611b74576000848401525b50505050565b60006002820490506001821680611b9257607f821691505b60208210811415611ba657611ba5611bdb565b5b50919050565b7f4e487b7100000000000000000000000000000000000000000000000000000000600052601160045260246000fd5b7f4e487b7100000000000000000000000000000000000000000000000000000000600052602260045260246000fd5b6000601f19601f8301169050919050565b611c2481611af2565b8114611c2f57600080fd5b50565b611c3b81611b04565b8114611c4657600080fd5b50565b611c5281611b30565b8114611c5d57600080fd5b5056fea2646970667358221220ba0bcbef6ddff92184b163dac969de953dd65b7bc465a351119b3a269f10651c64736f6c63430008000033",
  "immutableReferences": {},
  "source": "// SPDX-License-Identifier: MIT\npragma solidity ^0.8.0;\n\nimport \"@openzeppelin/contracts/token/ERC20/ERC20.sol\";\nimport \"../contracts/Ticket.sol\";\n\ncontract TicketVIP is ERC20 {\n\n    address owner;\n    Ticket ticket;\n    uint256 private ticketPrice = 5900000000000000; // 0.0059 ETH in Wei\n    uint256 private upgradePrice = 2900000000000000; // 0.0029 ETH in Wei\n\n    constructor(\n        string memory name,\n        string memory symbol,\n        uint256 initialSupply) ERC20(name, symbol) {\n        _mint(address(this), initialSupply);\n        owner = msg.sender;\n    }\n\n    function decimals() public view virtual override returns (uint8) {\n        return 0;\n    }\n\n    function setTicket(address ticketAddress) external {\n        require(owner == msg.sender);\n        ticket = Ticket(ticketAddress);\n    }\n\n    function buyTicket() external payable {\n        require(msg.sender == tx.origin, \"Only EOA can call function!\");\n\n        // check if there are any tickets left\n        require(balanceOf(address(this)) > 0, \"No tickets left!\");\n        \n        // check if the sender has already purchased a VIP ticket\n        require(balanceOf(msg.sender) == 0, \"You've already purchased a VIP ticket!\");\n\n        // check if the sender has already purchased a ticket\n        require(!ticket.verifyTicket(msg.sender), \"You've already purchased a ticket!\");\n\n        // check if sender has enough money\n        require(msg.value == ticketPrice, \"Not enough money!\"); \n        \n        // transfer the ticket to the sender\n        _transfer(address(this), msg.sender, 1);\n    }\n\n    function upgradeTicket() external payable {\n        require(msg.sender == tx.origin, \"Only EOA can call function!\");\n\n        // check if there are any tickets left\n        require(balanceOf(address(this)) > 0, \"No tickets left!\");\n        \n        // check if the sender has already purchased a VIP ticket\n        require(balanceOf(msg.sender) == 0, \"You've already purchased a VIP ticket!\");\n    \n        // check if sender has enough money\n        require(msg.value == upgradePrice, \"Not enough money!\");\n\n        // check if the sender owns a regular ticket.\n        require(ticket.verifyTicket(msg.sender), \"You don't have a regular ticket!\");\n\n        // give back the regular ticket to the Ticket.sol contract\n        ticket.giveBackTicket(msg.sender);\n\n        // transfer the ticket to the sender\n        _transfer(address(this), msg.sender, 1);\n    }\n\n    function verifyTicket(address _address) external view returns (bool) {\n        require(msg.sender == address(ticket) || msg.sender == _address); // only ticket contract or _address can call this function\n\n        return balanceOf(_address) == 1;\n    }\n    \n}",
  "sourcePath": "/home/osboxes/dev/unisacon/contracts/TicketVIP.sol",
  "compiler": {
    "name": "solc",
    "version": "0.8.0+commit.c7dfd78e.Emscripten.clang"
  },
  "schemaVersion": "3.4.14",
  "updatedAt": "2023-09-04T16:57:33.908Z",
  "networkType": "ethereum",
  "devdoc": {
    "kind": "dev",
    "methods": {
      "allowance(address,address)": {
        "details": "See {IERC20-allowance}."
      },
      "approve(address,uint256)": {
        "details": "See {IERC20-approve}. NOTE: If `amount` is the maximum `uint256`, the allowance is not updated on `transferFrom`. This is semantically equivalent to an infinite approval. Requirements: - `spender` cannot be the zero address."
      },
      "balanceOf(address)": {
        "details": "See {IERC20-balanceOf}."
      },
      "decimals()": {
        "details": "Returns the number of decimals used to get its user representation. For example, if `decimals` equals `2`, a balance of `505` tokens should be displayed to a user as `5.05` (`505 / 10 ** 2`). Tokens usually opt for a value of 18, imitating the relationship between Ether and Wei. This is the default value returned by this function, unless it's overridden. NOTE: This information is only used for _display_ purposes: it in no way affects any of the arithmetic of the contract, including {IERC20-balanceOf} and {IERC20-transfer}."
      },
      "decreaseAllowance(address,uint256)": {
        "details": "Atomically decreases the allowance granted to `spender` by the caller. This is an alternative to {approve} that can be used as a mitigation for problems described in {IERC20-approve}. Emits an {Approval} event indicating the updated allowance. Requirements: - `spender` cannot be the zero address. - `spender` must have allowance for the caller of at least `subtractedValue`."
      },
      "increaseAllowance(address,uint256)": {
        "details": "Atomically increases the allowance granted to `spender` by the caller. This is an alternative to {approve} that can be used as a mitigation for problems described in {IERC20-approve}. Emits an {Approval} event indicating the updated allowance. Requirements: - `spender` cannot be the zero address."
      },
      "name()": {
        "details": "Returns the name of the token."
      },
      "symbol()": {
        "details": "Returns the symbol of the token, usually a shorter version of the name."
      },
      "totalSupply()": {
        "details": "See {IERC20-totalSupply}."
      },
      "transfer(address,uint256)": {
        "details": "See {IERC20-transfer}. Requirements: - `to` cannot be the zero address. - the caller must have a balance of at least `amount`."
      },
      "transferFrom(address,address,uint256)": {
        "details": "See {IERC20-transferFrom}. Emits an {Approval} event indicating the updated allowance. This is not required by the EIP. See the note at the beginning of {ERC20}. NOTE: Does not update the allowance if the current allowance is the maximum `uint256`. Requirements: - `from` and `to` cannot be the zero address. - `from` must have a balance of at least `amount`. - the caller must have allowance for ``from``'s tokens of at least `amount`."
      }
    },
    "version": 1
  },
  "userdoc": {
    "kind": "user",
    "methods": {},
    "version": 1
  }
}