{
  "contractName": "Ticket",
  "abi": [
    {
      "inputs": [
        {
          "internalType": "string",
          "name": "name",
          "type": "string"
        },
        {
          "internalType": "string",
          "name": "symbol",
          "type": "string"
        },
        {
          "internalType": "uint256",
          "name": "initialSupply",
          "type": "uint256"
        }
      ],
      "stateMutability": "nonpayable",
      "type": "constructor"
    },
    {
      "anonymous": false,
      "inputs": [
        {
          "indexed": true,
          "internalType": "address",
          "name": "owner",
          "type": "address"
        },
        {
          "indexed": true,
          "internalType": "address",
          "name": "spender",
          "type": "address"
        },
        {
          "indexed": false,
          "internalType": "uint256",
          "name": "value",
          "type": "uint256"
        }
      ],
      "name": "Approval",
      "type": "event"
    },
    {
      "anonymous": false,
      "inputs": [
        {
          "indexed": true,
          "internalType": "address",
          "name": "from",
          "type": "address"
        },
        {
          "indexed": true,
          "internalType": "address",
          "name": "to",
          "type": "address"
        },
        {
          "indexed": false,
          "internalType": "uint256",
          "name": "value",
          "type": "uint256"
        }
      ],
      "name": "Transfer",
      "type": "event"
    },
    {
      "inputs": [
        {
          "internalType": "address",
          "name": "owner",
          "type": "address"
        },
        {
          "internalType": "address",
          "name": "spender",
          "type": "address"
        }
      ],
      "name": "allowance",
      "outputs": [
        {
          "internalType": "uint256",
          "name": "",
          "type": "uint256"
        }
      ],
      "stateMutability": "view",
      "type": "function",
      "constant": true
    },
    {
      "inputs": [
        {
          "internalType": "address",
          "name": "spender",
          "type": "address"
        },
        {
          "internalType": "uint256",
          "name": "amount",
          "type": "uint256"
        }
      ],
      "name": "approve",
      "outputs": [
        {
          "internalType": "bool",
          "name": "",
          "type": "bool"
        }
      ],
      "stateMutability": "nonpayable",
      "type": "function"
    },
    {
      "inputs": [
        {
          "internalType": "address",
          "name": "account",
          "type": "address"
        }
      ],
      "name": "balanceOf",
      "outputs": [
        {
          "internalType": "uint256",
          "name": "",
          "type": "uint256"
        }
      ],
      "stateMutability": "view",
      "type": "function",
      "constant": true
    },
    {
      "inputs": [
        {
          "internalType": "address",
          "name": "spender",
          "type": "address"
        },
        {
          "internalType": "uint256",
          "name": "subtractedValue",
          "type": "uint256"
        }
      ],
      "name": "decreaseAllowance",
      "outputs": [
        {
          "internalType": "bool",
          "name": "",
          "type": "bool"
        }
      ],
      "stateMutability": "nonpayable",
      "type": "function"
    },
    {
      "inputs": [
        {
          "internalType": "address",
          "name": "spender",
          "type": "address"
        },
        {
          "internalType": "uint256",
          "name": "addedValue",
          "type": "uint256"
        }
      ],
      "name": "increaseAllowance",
      "outputs": [
        {
          "internalType": "bool",
          "name": "",
          "type": "bool"
        }
      ],
      "stateMutability": "nonpayable",
      "type": "function"
    },
    {
      "inputs": [],
      "name": "name",
      "outputs": [
        {
          "internalType": "string",
          "name": "",
          "type": "string"
        }
      ],
      "stateMutability": "view",
      "type": "function",
      "constant": true
    },
    {
      "inputs": [],
      "name": "symbol",
      "outputs": [
        {
          "internalType": "string",
          "name": "",
          "type": "string"
        }
      ],
      "stateMutability": "view",
      "type": "function",
      "constant": true
    },
    {
      "inputs": [],
      "name": "totalSupply",
      "outputs": [
        {
          "internalType": "uint256",
          "name": "",
          "type": "uint256"
        }
      ],
      "stateMutability": "view",
      "type": "function",
      "constant": true
    },
    {
      "inputs": [
        {
          "internalType": "address",
          "name": "to",
          "type": "address"
        },
        {
          "internalType": "uint256",
          "name": "amount",
          "type": "uint256"
        }
      ],
      "name": "transfer",
      "outputs": [
        {
          "internalType": "bool",
          "name": "",
          "type": "bool"
        }
      ],
      "stateMutability": "nonpayable",
      "type": "function"
    },
    {
      "inputs": [
        {
          "internalType": "address",
          "name": "from",
          "type": "address"
        },
        {
          "internalType": "address",
          "name": "to",
          "type": "address"
        },
        {
          "internalType": "uint256",
          "name": "amount",
          "type": "uint256"
        }
      ],
      "name": "transferFrom",
      "outputs": [
        {
          "internalType": "bool",
          "name": "",
          "type": "bool"
        }
      ],
      "stateMutability": "nonpayable",
      "type": "function"
    },
    {
      "inputs": [],
      "name": "decimals",
      "outputs": [
        {
          "internalType": "uint8",
          "name": "",
          "type": "uint8"
        }
      ],
      "stateMutability": "view",
      "type": "function",
      "constant": true
    },
    {
      "inputs": [
        {
          "internalType": "address",
          "name": "ticketVIPAddress",
          "type": "address"
        }
      ],
      "name": "buyTicket",
      "outputs": [],
      "stateMutability": "payable",
      "type": "function",
      "payable": true
    },
    {
      "inputs": [],
      "name": "giveBackTicket",
      "outputs": [],
      "stateMutability": "nonpayable",
      "type": "function"
    },
    {
      "inputs": [],
      "name": "verifyTicket",
      "outputs": [
        {
          "internalType": "bool",
          "name": "",
          "type": "bool"
        }
      ],
      "stateMutability": "view",
      "type": "function",
      "constant": true
    }
  ],
  "bytecode": "0x6080604052660aa87bee5380006005553480156200001c57600080fd5b5060405162001d6a38038062001d6a833981810160405281019062000042919062000344565b828281600390805190602001906200005c9291906200020b565b508060049080519060200190620000759291906200020b565b5050506200008a30826200009360201b60201c565b50505062000650565b600073ffffffffffffffffffffffffffffffffffffffff168273ffffffffffffffffffffffffffffffffffffffff16141562000106576040517f08c379a0000000000000000000000000000000000000000000000000000000008152600401620000fd906200041f565b60405180910390fd5b6200011a600083836200020160201b60201c565b80600260008282546200012e9190620004d6565b92505081905550806000808473ffffffffffffffffffffffffffffffffffffffff1673ffffffffffffffffffffffffffffffffffffffff168152602001908152602001600020600082825401925050819055508173ffffffffffffffffffffffffffffffffffffffff16600073ffffffffffffffffffffffffffffffffffffffff167fddf252ad1be2c89b69c2b068fc378daa952ba7f163c4a11628f55a4df523b3ef83604051620001e1919062000441565b60405180910390a3620001fd600083836200020660201b60201c565b5050565b505050565b505050565b828054620002199062000573565b90600052602060002090601f0160209004810192826200023d576000855562000289565b82601f106200025857805160ff191683800117855562000289565b8280016001018555821562000289579182015b82811115620002885782518255916020019190600101906200026b565b5b5090506200029891906200029c565b5090565b5b80821115620002b75760008160009055506001016200029d565b5090565b6000620002d2620002cc8462000492565b6200045e565b905082815260208101848484011115620002eb57600080fd5b620002f88482856200053d565b509392505050565b600082601f8301126200031257600080fd5b815162000324848260208601620002bb565b91505092915050565b6000815190506200033e8162000636565b92915050565b6000806000606084860312156200035a57600080fd5b600084015167ffffffffffffffff8111156200037557600080fd5b620003838682870162000300565b935050602084015167ffffffffffffffff811115620003a157600080fd5b620003af8682870162000300565b9250506040620003c2868287016200032d565b9150509250925092565b6000620003db601f83620004c5565b91507f45524332303a206d696e7420746f20746865207a65726f2061646472657373006000830152602082019050919050565b620004198162000533565b82525050565b600060208201905081810360008301526200043a81620003cc565b9050919050565b60006020820190506200045860008301846200040e565b92915050565b6000604051905081810181811067ffffffffffffffff8211171562000488576200048762000607565b5b8060405250919050565b600067ffffffffffffffff821115620004b057620004af62000607565b5b601f19601f8301169050602081019050919050565b600082825260208201905092915050565b6000620004e38262000533565b9150620004f08362000533565b9250827fffffffffffffffffffffffffffffffffffffffffffffffffffffffffffffffff03821115620005285762000527620005a9565b5b828201905092915050565b6000819050919050565b60005b838110156200055d57808201518184015260208101905062000540565b838111156200056d576000848401525b50505050565b600060028204905060018216806200058c57607f821691505b60208210811415620005a357620005a2620005d8565b5b50919050565b7f4e487b7100000000000000000000000000000000000000000000000000000000600052601160045260246000fd5b7f4e487b7100000000000000000000000000000000000000000000000000000000600052602260045260246000fd5b7f4e487b7100000000000000000000000000000000000000000000000000000000600052604160045260246000fd5b620006418162000533565b81146200064d57600080fd5b50565b61170a80620006606000396000f3fe6080604052600436106100dd5760003560e01c806370a082311161007f578063a457c2d711610059578063a457c2d7146102c4578063a5f8cdbb14610301578063a9059cbb1461031d578063dd62ed3e1461035a576100dd565b806370a082311461024557806377973ac91461028257806395d89b4114610299576100dd565b806323b872dd116100bb57806323b872dd14610175578063313ce567146101b257806339509351146101dd5780634d589a711461021a576100dd565b806306fdde03146100e2578063095ea7b31461010d57806318160ddd1461014a575b600080fd5b3480156100ee57600080fd5b506100f7610397565b604051610104919061133c565b60405180910390f35b34801561011957600080fd5b50610134600480360381019061012f9190610e66565b610429565b6040516101419190611321565b60405180910390f35b34801561015657600080fd5b5061015f61044c565b60405161016c91906114be565b60405180910390f35b34801561018157600080fd5b5061019c60048036038101906101979190610e17565b610456565b6040516101a99190611321565b60405180910390f35b3480156101be57600080fd5b506101c7610485565b6040516101d491906114d9565b60405180910390f35b3480156101e957600080fd5b5061020460048036038101906101ff9190610e66565b61048a565b6040516102119190611321565b60405180910390f35b34801561022657600080fd5b5061022f6104c1565b60405161023c9190611321565b60405180910390f35b34801561025157600080fd5b5061026c60048036038101906102679190610db2565b6104d4565b60405161027991906114be565b60405180910390f35b34801561028e57600080fd5b5061029761051c565b005b3480156102a557600080fd5b506102ae610576565b6040516102bb919061133c565b60405180910390f35b3480156102d057600080fd5b506102eb60048036038101906102e69190610e66565b610608565b6040516102f89190611321565b60405180910390f35b61031b60048036038101906103169190610db2565b61067f565b005b34801561032957600080fd5b50610344600480360381019061033f9190610e66565b6107e8565b6040516103519190611321565b60405180910390f35b34801561036657600080fd5b50610381600480360381019061037c9190610ddb565b61080b565b60405161038e91906114be565b60405180910390f35b6060600380546103a6906115ee565b80601f01602080910402602001604051908101604052809291908181526020018280546103d2906115ee565b801561041f5780601f106103f45761010080835404028352916020019161041f565b820191906000526020600020905b81548152906001019060200180831161040257829003601f168201915b5050505050905090565b600080610434610892565b905061044181858561089a565b600191505092915050565b6000600254905090565b600080610461610892565b905061046e858285610a65565b610479858585610af1565b60019150509392505050565b600090565b600080610495610892565b90506104b68185856104a7858961080b565b6104b19190611510565b61089a565b600191505092915050565b600060016104ce326104d4565b14905090565b60008060008373ffffffffffffffffffffffffffffffffffffffff1673ffffffffffffffffffffffffffffffffffffffff168152602001908152602001600020549050919050565b6000610527326104d4565b1415610568576040517f08c379a000000000000000000000000000000000000000000000000000000000815260040161055f9061143e565b60405180910390fd5b61057432306001610af1565b565b606060048054610585906115ee565b80601f01602080910402602001604051908101604052809291908181526020018280546105b1906115ee565b80156105fe5780601f106105d3576101008083540402835291602001916105fe565b820191906000526020600020905b8154815290600101906020018083116105e157829003601f168201915b5050505050905090565b600080610613610892565b90506000610621828661080b565b905083811015610666576040517f08c379a000000000000000000000000000000000000000000000000000000000815260040161065d9061149e565b60405180910390fd5b610673828686840361089a565b60019250505092915050565b600061068a306104d4565b116106ca576040517f08c379a00000000000000000000000000000000000000000000000000000000081526004016106c19061145e565b60405180910390fd5b60006106d5326104d4565b14610715576040517f08c379a000000000000000000000000000000000000000000000000000000000815260040161070c906113de565b60405180910390fd5b60008190508073ffffffffffffffffffffffffffffffffffffffff16634d589a716040518163ffffffff1660e01b815260040160206040518083038186803b15801561076057600080fd5b505afa158015610774573d6000803e3d6000fd5b505050506040513d601f19601f820116820180604052508101906107989190610ea2565b156107d8576040517f08c379a00000000000000000000000000000000000000000000000000000000081526004016107cf9061147e565b60405180910390fd5b6107e430326001610af1565b5050565b6000806107f3610892565b9050610800818585610af1565b600191505092915050565b6000600160008473ffffffffffffffffffffffffffffffffffffffff1673ffffffffffffffffffffffffffffffffffffffff16815260200190815260200160002060008373ffffffffffffffffffffffffffffffffffffffff1673ffffffffffffffffffffffffffffffffffffffff16815260200190815260200160002054905092915050565b600033905090565b600073ffffffffffffffffffffffffffffffffffffffff168373ffffffffffffffffffffffffffffffffffffffff16141561090a576040517f08c379a00000000000000000000000000000000000000000000000000000000081526004016109019061141e565b60405180910390fd5b600073ffffffffffffffffffffffffffffffffffffffff168273ffffffffffffffffffffffffffffffffffffffff16141561097a576040517f08c379a00000000000000000000000000000000000000000000000000000000081526004016109719061137e565b60405180910390fd5b80600160008573ffffffffffffffffffffffffffffffffffffffff1673ffffffffffffffffffffffffffffffffffffffff16815260200190815260200160002060008473ffffffffffffffffffffffffffffffffffffffff1673ffffffffffffffffffffffffffffffffffffffff168152602001908152602001600020819055508173ffffffffffffffffffffffffffffffffffffffff168373ffffffffffffffffffffffffffffffffffffffff167f8c5be1e5ebec7d5bd14f71427d1e84f3dd0314c0f7b2291e5b200ac8c7c3b92583604051610a5891906114be565b60405180910390a3505050565b6000610a71848461080b565b90507fffffffffffffffffffffffffffffffffffffffffffffffffffffffffffffffff8114610aeb5781811015610add576040517f08c379a0000000000000000000000000000000000000000000000000000000008152600401610ad49061139e565b60405180910390fd5b610aea848484840361089a565b5b50505050565b600073ffffffffffffffffffffffffffffffffffffffff168373ffffffffffffffffffffffffffffffffffffffff161415610b61576040517f08c379a0000000000000000000000000000000000000000000000000000000008152600401610b58906113fe565b60405180910390fd5b600073ffffffffffffffffffffffffffffffffffffffff168273ffffffffffffffffffffffffffffffffffffffff161415610bd1576040517f08c379a0000000000000000000000000000000000000000000000000000000008152600401610bc89061135e565b60405180910390fd5b610bdc838383610d69565b60008060008573ffffffffffffffffffffffffffffffffffffffff1673ffffffffffffffffffffffffffffffffffffffff16815260200190815260200160002054905081811015610c62576040517f08c379a0000000000000000000000000000000000000000000000000000000008152600401610c59906113be565b60405180910390fd5b8181036000808673ffffffffffffffffffffffffffffffffffffffff1673ffffffffffffffffffffffffffffffffffffffff16815260200190815260200160002081905550816000808573ffffffffffffffffffffffffffffffffffffffff1673ffffffffffffffffffffffffffffffffffffffff168152602001908152602001600020600082825401925050819055508273ffffffffffffffffffffffffffffffffffffffff168473ffffffffffffffffffffffffffffffffffffffff167fddf252ad1be2c89b69c2b068fc378daa952ba7f163c4a11628f55a4df523b3ef84604051610d5091906114be565b60405180910390a3610d63848484610d6e565b50505050565b505050565b505050565b600081359050610d828161168f565b92915050565b600081519050610d97816116a6565b92915050565b600081359050610dac816116bd565b92915050565b600060208284031215610dc457600080fd5b6000610dd284828501610d73565b91505092915050565b60008060408385031215610dee57600080fd5b6000610dfc85828601610d73565b9250506020610e0d85828601610d73565b9150509250929050565b600080600060608486031215610e2c57600080fd5b6000610e3a86828701610d73565b9350506020610e4b86828701610d73565b9250506040610e5c86828701610d9d565b9150509250925092565b60008060408385031215610e7957600080fd5b6000610e8785828601610d73565b9250506020610e9885828601610d9d565b9150509250929050565b600060208284031215610eb457600080fd5b6000610ec284828501610d88565b91505092915050565b610ed481611578565b82525050565b6000610ee5826114f4565b610eef81856114ff565b9350610eff8185602086016115bb565b610f088161167e565b840191505092915050565b6000610f206023836114ff565b91507f45524332303a207472616e7366657220746f20746865207a65726f206164647260008301527f65737300000000000000000000000000000000000000000000000000000000006020830152604082019050919050565b6000610f866022836114ff565b91507f45524332303a20617070726f766520746f20746865207a65726f20616464726560008301527f73730000000000000000000000000000000000000000000000000000000000006020830152604082019050919050565b6000610fec601d836114ff565b91507f45524332303a20696e73756666696369656e7420616c6c6f77616e63650000006000830152602082019050919050565b600061102c6026836114ff565b91507f45524332303a207472616e7366657220616d6f756e742065786365656473206260008301527f616c616e636500000000000000000000000000000000000000000000000000006020830152604082019050919050565b60006110926022836114ff565b91507f596f7527766520616c7265616479207075726368617365642061207469636b6560008301527f74210000000000000000000000000000000000000000000000000000000000006020830152604082019050919050565b60006110f86025836114ff565b91507f45524332303a207472616e736665722066726f6d20746865207a65726f20616460008301527f64726573730000000000000000000000000000000000000000000000000000006020830152604082019050919050565b600061115e6024836114ff565b91507f45524332303a20617070726f76652066726f6d20746865207a65726f2061646460008301527f72657373000000000000000000000000000000000000000000000000000000006020830152604082019050919050565b60006111c46019836114ff565b91507f596f7520646f6e2774206f776e20616e79207469636b657421000000000000006000830152602082019050919050565b60006112046010836114ff565b91507f4e6f207469636b657473206c65667421000000000000000000000000000000006000830152602082019050919050565b60006112446025836114ff565b91507f5468652073656e64657220616c7265616479206f776e7320612056495020746960008301527f636b6574210000000000000000000000000000000000000000000000000000006020830152604082019050919050565b60006112aa6025836114ff565b91507f45524332303a2064656372656173656420616c6c6f77616e63652062656c6f7760008301527f207a65726f0000000000000000000000000000000000000000000000000000006020830152604082019050919050565b61130c816115a4565b82525050565b61131b816115ae565b82525050565b60006020820190506113366000830184610ecb565b92915050565b600060208201905081810360008301526113568184610eda565b905092915050565b6000602082019050818103600083015261137781610f13565b9050919050565b6000602082019050818103600083015261139781610f79565b9050919050565b600060208201905081810360008301526113b781610fdf565b9050919050565b600060208201905081810360008301526113d78161101f565b9050919050565b600060208201905081810360008301526113f781611085565b9050919050565b60006020820190508181036000830152611417816110eb565b9050919050565b6000602082019050818103600083015261143781611151565b9050919050565b60006020820190508181036000830152611457816111b7565b9050919050565b60006020820190508181036000830152611477816111f7565b9050919050565b6000602082019050818103600083015261149781611237565b9050919050565b600060208201905081810360008301526114b78161129d565b9050919050565b60006020820190506114d36000830184611303565b92915050565b60006020820190506114ee6000830184611312565b92915050565b600081519050919050565b600082825260208201905092915050565b600061151b826115a4565b9150611526836115a4565b9250827fffffffffffffffffffffffffffffffffffffffffffffffffffffffffffffffff0382111561155b5761155a611620565b5b828201905092915050565b600061157182611584565b9050919050565b60008115159050919050565b600073ffffffffffffffffffffffffffffffffffffffff82169050919050565b6000819050919050565b600060ff82169050919050565b60005b838110156115d95780820151818401526020810190506115be565b838111156115e8576000848401525b50505050565b6000600282049050600182168061160657607f821691505b6020821081141561161a5761161961164f565b5b50919050565b7f4e487b7100000000000000000000000000000000000000000000000000000000600052601160045260246000fd5b7f4e487b7100000000000000000000000000000000000000000000000000000000600052602260045260246000fd5b6000601f19601f8301169050919050565b61169881611566565b81146116a357600080fd5b50565b6116af81611578565b81146116ba57600080fd5b50565b6116c6816115a4565b81146116d157600080fd5b5056fea2646970667358221220bfa76afb61d8780d57f9f867659a1408f1827f72fdf7a31e18fdbc267697930a64736f6c63430008000033",
  "immutableReferences": {},
  "source": "// SPDX-License-Identifier: MIT\npragma solidity ^0.8.0;\n\nimport \"@openzeppelin/contracts/token/ERC20/ERC20.sol\";\nimport \"../contracts/TicketVIP.sol\";\n\ncontract Ticket is ERC20 {\n\n    uint256 private ticketPrice = 3000000000000000; // 0.0030 ETH in Wei\n    \n    constructor(\n        string memory name,\n        string memory symbol,\n        uint256 initialSupply) ERC20(name, symbol) {\n        _mint(address(this), initialSupply);\n    }\n\n    function decimals() public view virtual override returns (uint8) {\n        return 0;\n    }\n\n    function buyTicket(address ticketVIPAddress) payable external {\n        // check if there is any ticket left\n        require(balanceOf(address(this)) > 0, \"No tickets left!\");\n        \n        // check if the sender has already purchased a ticket or a VIP ticket\n        require(balanceOf(tx.origin) == 0, \"You've already purchased a ticket!\");\n        TicketVIP ticketVIP = TicketVIP(ticketVIPAddress);\n        require(!ticketVIP.verifyTicket(), \"The sender already owns a VIP ticket!\");\n\n        // check if sender has enough money\n        //require(msg.value == ticketPrice, \"Not enough money!\"); \n\n        // Transfer the ticket price from sender to the contract and the ticket\n        // address payable contractAddress = payable(address(this));\n        // // contractAddress.transfer(ticketPrice);\n        // contractAddress.call{gas:100000, value: msg.value};\n        _transfer(address(this), tx.origin, 1);\n    }\n\n    function giveBackTicket() external {\n        // check if the sender owns a ticket\n        require(balanceOf(tx.origin) != 0, \"You don't own any ticket!\");\n\n        // give back the ticket to the contract\n        _transfer(tx.origin, address(this), 1);\n    }\n\n    function verifyTicket() external view returns (bool) {\n        return balanceOf(tx.origin) == 1;\n    }\n\n    // TODO: function to withdraw money\n}",
  "sourcePath": "/home/osboxes/dev/unisacon/contracts/Ticket.sol",
  "compiler": {
    "name": "solc",
    "version": "0.8.0+commit.c7dfd78e.Emscripten.clang"
  },
  "schemaVersion": "3.4.14",
  "updatedAt": "2023-08-11T18:15:20.887Z",
  "networkType": "ethereum",
  "devdoc": {
    "kind": "dev",
    "methods": {
      "allowance(address,address)": {
        "details": "See {IERC20-allowance}."
      },
      "approve(address,uint256)": {
        "details": "See {IERC20-approve}. NOTE: If `amount` is the maximum `uint256`, the allowance is not updated on `transferFrom`. This is semantically equivalent to an infinite approval. Requirements: - `spender` cannot be the zero address."
      },
      "balanceOf(address)": {
        "details": "See {IERC20-balanceOf}."
      },
      "decimals()": {
        "details": "Returns the number of decimals used to get its user representation. For example, if `decimals` equals `2`, a balance of `505` tokens should be displayed to a user as `5.05` (`505 / 10 ** 2`). Tokens usually opt for a value of 18, imitating the relationship between Ether and Wei. This is the default value returned by this function, unless it's overridden. NOTE: This information is only used for _display_ purposes: it in no way affects any of the arithmetic of the contract, including {IERC20-balanceOf} and {IERC20-transfer}."
      },
      "decreaseAllowance(address,uint256)": {
        "details": "Atomically decreases the allowance granted to `spender` by the caller. This is an alternative to {approve} that can be used as a mitigation for problems described in {IERC20-approve}. Emits an {Approval} event indicating the updated allowance. Requirements: - `spender` cannot be the zero address. - `spender` must have allowance for the caller of at least `subtractedValue`."
      },
      "increaseAllowance(address,uint256)": {
        "details": "Atomically increases the allowance granted to `spender` by the caller. This is an alternative to {approve} that can be used as a mitigation for problems described in {IERC20-approve}. Emits an {Approval} event indicating the updated allowance. Requirements: - `spender` cannot be the zero address."
      },
      "name()": {
        "details": "Returns the name of the token."
      },
      "symbol()": {
        "details": "Returns the symbol of the token, usually a shorter version of the name."
      },
      "totalSupply()": {
        "details": "See {IERC20-totalSupply}."
      },
      "transfer(address,uint256)": {
        "details": "See {IERC20-transfer}. Requirements: - `to` cannot be the zero address. - the caller must have a balance of at least `amount`."
      },
      "transferFrom(address,address,uint256)": {
        "details": "See {IERC20-transferFrom}. Emits an {Approval} event indicating the updated allowance. This is not required by the EIP. See the note at the beginning of {ERC20}. NOTE: Does not update the allowance if the current allowance is the maximum `uint256`. Requirements: - `from` and `to` cannot be the zero address. - `from` must have a balance of at least `amount`. - the caller must have allowance for ``from``'s tokens of at least `amount`."
      }
    },
    "version": 1
  },
  "userdoc": {
    "kind": "user",
    "methods": {},
    "version": 1
  }
}