{
  "contractName": "TicketVIP",
  "abi": [
    {
      "inputs": [
        {
          "internalType": "string",
          "name": "name",
          "type": "string"
        },
        {
          "internalType": "string",
          "name": "symbol",
          "type": "string"
        },
        {
          "internalType": "uint256",
          "name": "initialSupply",
          "type": "uint256"
        }
      ],
      "stateMutability": "nonpayable",
      "type": "constructor"
    },
    {
      "anonymous": false,
      "inputs": [
        {
          "indexed": true,
          "internalType": "address",
          "name": "owner",
          "type": "address"
        },
        {
          "indexed": true,
          "internalType": "address",
          "name": "spender",
          "type": "address"
        },
        {
          "indexed": false,
          "internalType": "uint256",
          "name": "value",
          "type": "uint256"
        }
      ],
      "name": "Approval",
      "type": "event"
    },
    {
      "anonymous": false,
      "inputs": [
        {
          "indexed": true,
          "internalType": "address",
          "name": "from",
          "type": "address"
        },
        {
          "indexed": true,
          "internalType": "address",
          "name": "to",
          "type": "address"
        },
        {
          "indexed": false,
          "internalType": "uint256",
          "name": "value",
          "type": "uint256"
        }
      ],
      "name": "Transfer",
      "type": "event"
    },
    {
      "inputs": [
        {
          "internalType": "address",
          "name": "owner",
          "type": "address"
        },
        {
          "internalType": "address",
          "name": "spender",
          "type": "address"
        }
      ],
      "name": "allowance",
      "outputs": [
        {
          "internalType": "uint256",
          "name": "",
          "type": "uint256"
        }
      ],
      "stateMutability": "view",
      "type": "function",
      "constant": true
    },
    {
      "inputs": [
        {
          "internalType": "address",
          "name": "spender",
          "type": "address"
        },
        {
          "internalType": "uint256",
          "name": "amount",
          "type": "uint256"
        }
      ],
      "name": "approve",
      "outputs": [
        {
          "internalType": "bool",
          "name": "",
          "type": "bool"
        }
      ],
      "stateMutability": "nonpayable",
      "type": "function"
    },
    {
      "inputs": [
        {
          "internalType": "address",
          "name": "account",
          "type": "address"
        }
      ],
      "name": "balanceOf",
      "outputs": [
        {
          "internalType": "uint256",
          "name": "",
          "type": "uint256"
        }
      ],
      "stateMutability": "view",
      "type": "function",
      "constant": true
    },
    {
      "inputs": [
        {
          "internalType": "address",
          "name": "spender",
          "type": "address"
        },
        {
          "internalType": "uint256",
          "name": "subtractedValue",
          "type": "uint256"
        }
      ],
      "name": "decreaseAllowance",
      "outputs": [
        {
          "internalType": "bool",
          "name": "",
          "type": "bool"
        }
      ],
      "stateMutability": "nonpayable",
      "type": "function"
    },
    {
      "inputs": [
        {
          "internalType": "address",
          "name": "spender",
          "type": "address"
        },
        {
          "internalType": "uint256",
          "name": "addedValue",
          "type": "uint256"
        }
      ],
      "name": "increaseAllowance",
      "outputs": [
        {
          "internalType": "bool",
          "name": "",
          "type": "bool"
        }
      ],
      "stateMutability": "nonpayable",
      "type": "function"
    },
    {
      "inputs": [],
      "name": "name",
      "outputs": [
        {
          "internalType": "string",
          "name": "",
          "type": "string"
        }
      ],
      "stateMutability": "view",
      "type": "function",
      "constant": true
    },
    {
      "inputs": [],
      "name": "symbol",
      "outputs": [
        {
          "internalType": "string",
          "name": "",
          "type": "string"
        }
      ],
      "stateMutability": "view",
      "type": "function",
      "constant": true
    },
    {
      "inputs": [],
      "name": "totalSupply",
      "outputs": [
        {
          "internalType": "uint256",
          "name": "",
          "type": "uint256"
        }
      ],
      "stateMutability": "view",
      "type": "function",
      "constant": true
    },
    {
      "inputs": [
        {
          "internalType": "address",
          "name": "to",
          "type": "address"
        },
        {
          "internalType": "uint256",
          "name": "amount",
          "type": "uint256"
        }
      ],
      "name": "transfer",
      "outputs": [
        {
          "internalType": "bool",
          "name": "",
          "type": "bool"
        }
      ],
      "stateMutability": "nonpayable",
      "type": "function"
    },
    {
      "inputs": [
        {
          "internalType": "address",
          "name": "from",
          "type": "address"
        },
        {
          "internalType": "address",
          "name": "to",
          "type": "address"
        },
        {
          "internalType": "uint256",
          "name": "amount",
          "type": "uint256"
        }
      ],
      "name": "transferFrom",
      "outputs": [
        {
          "internalType": "bool",
          "name": "",
          "type": "bool"
        }
      ],
      "stateMutability": "nonpayable",
      "type": "function"
    },
    {
      "inputs": [],
      "name": "decimals",
      "outputs": [
        {
          "internalType": "uint8",
          "name": "",
          "type": "uint8"
        }
      ],
      "stateMutability": "view",
      "type": "function",
      "constant": true
    },
    {
      "inputs": [
        {
          "internalType": "address",
          "name": "ticketAddress",
          "type": "address"
        }
      ],
      "name": "buyTicket",
      "outputs": [],
      "stateMutability": "payable",
      "type": "function",
      "payable": true
    },
    {
      "inputs": [
        {
          "internalType": "address",
          "name": "ticketAddress",
          "type": "address"
        }
      ],
      "name": "upgradeTicket",
      "outputs": [],
      "stateMutability": "payable",
      "type": "function",
      "payable": true
    },
    {
      "inputs": [],
      "name": "verifyTicket",
      "outputs": [
        {
          "internalType": "bool",
          "name": "",
          "type": "bool"
        }
      ],
      "stateMutability": "view",
      "type": "function",
      "constant": true
    }
  ],
  "bytecode": "0x60806040526614f604cc2cc000600555660a4d88ddd940006006553480156200002757600080fd5b50604051620020943803806200209483398181016040528101906200004d91906200034f565b828281600390805190602001906200006792919062000216565b5080600490805190602001906200008092919062000216565b5050506200009530826200009e60201b60201c565b5050506200065b565b600073ffffffffffffffffffffffffffffffffffffffff168273ffffffffffffffffffffffffffffffffffffffff16141562000111576040517f08c379a000000000000000000000000000000000000000000000000000000000815260040162000108906200042a565b60405180910390fd5b62000125600083836200020c60201b60201c565b8060026000828254620001399190620004e1565b92505081905550806000808473ffffffffffffffffffffffffffffffffffffffff1673ffffffffffffffffffffffffffffffffffffffff168152602001908152602001600020600082825401925050819055508173ffffffffffffffffffffffffffffffffffffffff16600073ffffffffffffffffffffffffffffffffffffffff167fddf252ad1be2c89b69c2b068fc378daa952ba7f163c4a11628f55a4df523b3ef83604051620001ec91906200044c565b60405180910390a362000208600083836200021160201b60201c565b5050565b505050565b505050565b82805462000224906200057e565b90600052602060002090601f01602090048101928262000248576000855562000294565b82601f106200026357805160ff191683800117855562000294565b8280016001018555821562000294579182015b828111156200029357825182559160200191906001019062000276565b5b509050620002a39190620002a7565b5090565b5b80821115620002c2576000816000905550600101620002a8565b5090565b6000620002dd620002d7846200049d565b62000469565b905082815260208101848484011115620002f657600080fd5b6200030384828562000548565b509392505050565b600082601f8301126200031d57600080fd5b81516200032f848260208601620002c6565b91505092915050565b600081519050620003498162000641565b92915050565b6000806000606084860312156200036557600080fd5b600084015167ffffffffffffffff8111156200038057600080fd5b6200038e868287016200030b565b935050602084015167ffffffffffffffff811115620003ac57600080fd5b620003ba868287016200030b565b9250506040620003cd8682870162000338565b9150509250925092565b6000620003e6601f83620004d0565b91507f45524332303a206d696e7420746f20746865207a65726f2061646472657373006000830152602082019050919050565b62000424816200053e565b82525050565b600060208201905081810360008301526200044581620003d7565b9050919050565b600060208201905062000463600083018462000419565b92915050565b6000604051905081810181811067ffffffffffffffff8211171562000493576200049262000612565b5b8060405250919050565b600067ffffffffffffffff821115620004bb57620004ba62000612565b5b601f19601f8301169050602081019050919050565b600082825260208201905092915050565b6000620004ee826200053e565b9150620004fb836200053e565b9250827fffffffffffffffffffffffffffffffffffffffffffffffffffffffffffffffff03821115620005335762000532620005b4565b5b828201905092915050565b6000819050919050565b60005b83811015620005685780820151818401526020810190506200054b565b8381111562000578576000848401525b50505050565b600060028204905060018216806200059757607f821691505b60208210811415620005ae57620005ad620005e3565b5b50919050565b7f4e487b7100000000000000000000000000000000000000000000000000000000600052601160045260246000fd5b7f4e487b7100000000000000000000000000000000000000000000000000000000600052602260045260246000fd5b7f4e487b7100000000000000000000000000000000000000000000000000000000600052604160045260246000fd5b6200064c816200053e565b81146200065857600080fd5b50565b611a29806200066b6000396000f3fe6080604052600436106100dd5760003560e01c806370a082311161007f578063a457c2d711610059578063a457c2d7146102c9578063a5f8cdbb14610306578063a9059cbb14610322578063dd62ed3e1461035f576100dd565b806370a08231146102455780638970944f1461028257806395d89b411461029e576100dd565b806323b872dd116100bb57806323b872dd14610175578063313ce567146101b257806339509351146101dd5780634d589a711461021a576100dd565b806306fdde03146100e2578063095ea7b31461010d57806318160ddd1461014a575b600080fd5b3480156100ee57600080fd5b506100f761039c565b604051610104919061163b565b60405180910390f35b34801561011957600080fd5b50610134600480360381019061012f91906110ff565b61042e565b6040516101419190611620565b60405180910390f35b34801561015657600080fd5b5061015f610451565b60405161016c91906117dd565b60405180910390f35b34801561018157600080fd5b5061019c600480360381019061019791906110b0565b61045b565b6040516101a99190611620565b60405180910390f35b3480156101be57600080fd5b506101c761048a565b6040516101d491906117f8565b60405180910390f35b3480156101e957600080fd5b5061020460048036038101906101ff91906110ff565b61048f565b6040516102119190611620565b60405180910390f35b34801561022657600080fd5b5061022f6104c6565b60405161023c9190611620565b60405180910390f35b34801561025157600080fd5b5061026c6004803603810190610267919061104b565b6104d9565b60405161027991906117dd565b60405180910390f35b61029c6004803603810190610297919061104b565b610521565b005b3480156102aa57600080fd5b506102b361077c565b6040516102c0919061163b565b60405180910390f35b3480156102d557600080fd5b506102f060048036038101906102eb91906110ff565b61080e565b6040516102fd9190611620565b60405180910390f35b610320600480360381019061031b919061104b565b610885565b005b34801561032e57600080fd5b50610349600480360381019061034491906110ff565b610a81565b6040516103569190611620565b60405180910390f35b34801561036b57600080fd5b5061038660048036038101906103819190611074565b610aa4565b60405161039391906117dd565b60405180910390f35b6060600380546103ab9061190d565b80601f01602080910402602001604051908101604052809291908181526020018280546103d79061190d565b80156104245780601f106103f957610100808354040283529160200191610424565b820191906000526020600020905b81548152906001019060200180831161040757829003601f168201915b5050505050905090565b600080610439610b2b565b9050610446818585610b33565b600191505092915050565b6000600254905090565b600080610466610b2b565b9050610473858285610cfe565b61047e858585610d8a565b60019150509392505050565b600090565b60008061049a610b2b565b90506104bb8185856104ac8589610aa4565b6104b6919061182f565b610b33565b600191505092915050565b600060016104d3326104d9565b14905090565b60008060008373ffffffffffffffffffffffffffffffffffffffff1673ffffffffffffffffffffffffffffffffffffffff168152602001908152602001600020549050919050565b600061052c306104d9565b1161056c576040517f08c379a00000000000000000000000000000000000000000000000000000000081526004016105639061179d565b60405180910390fd5b6000610577326104d9565b146105b7576040517f08c379a00000000000000000000000000000000000000000000000000000000081526004016105ae906116dd565b60405180910390fd5b60065434146105fb576040517f08c379a00000000000000000000000000000000000000000000000000000000081526004016105f29061167d565b60405180910390fd5b60008190508073ffffffffffffffffffffffffffffffffffffffff16634d589a716040518163ffffffff1660e01b815260040160206040518083038186803b15801561064657600080fd5b505afa15801561065a573d6000803e3d6000fd5b505050506040513d601f19601f8201168201806040525081019061067e919061113b565b6106bd576040517f08c379a00000000000000000000000000000000000000000000000000000000081526004016106b49061173d565b60405180910390fd5b8073ffffffffffffffffffffffffffffffffffffffff166377973ac96040518163ffffffff1660e01b8152600401600060405180830381600087803b15801561070557600080fd5b505af1158015610719573d6000803e3d6000fd5b5050505060003090508073ffffffffffffffffffffffffffffffffffffffff166108fc6006549081150290604051600060405180830381858888f1935050505015801561076a573d6000803e3d6000fd5b5061077730326001610d8a565b505050565b60606004805461078b9061190d565b80601f01602080910402602001604051908101604052809291908181526020018280546107b79061190d565b80156108045780601f106107d957610100808354040283529160200191610804565b820191906000526020600020905b8154815290600101906020018083116107e757829003601f168201915b5050505050905090565b600080610819610b2b565b905060006108278286610aa4565b90508381101561086c576040517f08c379a0000000000000000000000000000000000000000000000000000000008152600401610863906117bd565b60405180910390fd5b6108798286868403610b33565b60019250505092915050565b6000610890306104d9565b116108d0576040517f08c379a00000000000000000000000000000000000000000000000000000000081526004016108c79061179d565b60405180910390fd5b60006108db326104d9565b1461091b576040517f08c379a0000000000000000000000000000000000000000000000000000000008152600401610912906116dd565b60405180910390fd5b60008190508073ffffffffffffffffffffffffffffffffffffffff16634d589a716040518163ffffffff1660e01b815260040160206040518083038186803b15801561096657600080fd5b505afa15801561097a573d6000803e3d6000fd5b505050506040513d601f19601f8201168201806040525081019061099e919061113b565b156109de576040517f08c379a00000000000000000000000000000000000000000000000000000000081526004016109d59061169d565b60405180910390fd5b6005543414610a22576040517f08c379a0000000000000000000000000000000000000000000000000000000008152600401610a199061167d565b60405180910390fd5b60003090508073ffffffffffffffffffffffffffffffffffffffff166108fc6005549081150290604051600060405180830381858888f19350505050158015610a6f573d6000803e3d6000fd5b50610a7c30326001610d8a565b505050565b600080610a8c610b2b565b9050610a99818585610d8a565b600191505092915050565b6000600160008473ffffffffffffffffffffffffffffffffffffffff1673ffffffffffffffffffffffffffffffffffffffff16815260200190815260200160002060008373ffffffffffffffffffffffffffffffffffffffff1673ffffffffffffffffffffffffffffffffffffffff16815260200190815260200160002054905092915050565b600033905090565b600073ffffffffffffffffffffffffffffffffffffffff168373ffffffffffffffffffffffffffffffffffffffff161415610ba3576040517f08c379a0000000000000000000000000000000000000000000000000000000008152600401610b9a9061177d565b60405180910390fd5b600073ffffffffffffffffffffffffffffffffffffffff168273ffffffffffffffffffffffffffffffffffffffff161415610c13576040517f08c379a0000000000000000000000000000000000000000000000000000000008152600401610c0a906116bd565b60405180910390fd5b80600160008573ffffffffffffffffffffffffffffffffffffffff1673ffffffffffffffffffffffffffffffffffffffff16815260200190815260200160002060008473ffffffffffffffffffffffffffffffffffffffff1673ffffffffffffffffffffffffffffffffffffffff168152602001908152602001600020819055508173ffffffffffffffffffffffffffffffffffffffff168373ffffffffffffffffffffffffffffffffffffffff167f8c5be1e5ebec7d5bd14f71427d1e84f3dd0314c0f7b2291e5b200ac8c7c3b92583604051610cf191906117dd565b60405180910390a3505050565b6000610d0a8484610aa4565b90507fffffffffffffffffffffffffffffffffffffffffffffffffffffffffffffffff8114610d845781811015610d76576040517f08c379a0000000000000000000000000000000000000000000000000000000008152600401610d6d906116fd565b60405180910390fd5b610d838484848403610b33565b5b50505050565b600073ffffffffffffffffffffffffffffffffffffffff168373ffffffffffffffffffffffffffffffffffffffff161415610dfa576040517f08c379a0000000000000000000000000000000000000000000000000000000008152600401610df19061175d565b60405180910390fd5b600073ffffffffffffffffffffffffffffffffffffffff168273ffffffffffffffffffffffffffffffffffffffff161415610e6a576040517f08c379a0000000000000000000000000000000000000000000000000000000008152600401610e619061165d565b60405180910390fd5b610e75838383611002565b60008060008573ffffffffffffffffffffffffffffffffffffffff1673ffffffffffffffffffffffffffffffffffffffff16815260200190815260200160002054905081811015610efb576040517f08c379a0000000000000000000000000000000000000000000000000000000008152600401610ef29061171d565b60405180910390fd5b8181036000808673ffffffffffffffffffffffffffffffffffffffff1673ffffffffffffffffffffffffffffffffffffffff16815260200190815260200160002081905550816000808573ffffffffffffffffffffffffffffffffffffffff1673ffffffffffffffffffffffffffffffffffffffff168152602001908152602001600020600082825401925050819055508273ffffffffffffffffffffffffffffffffffffffff168473ffffffffffffffffffffffffffffffffffffffff167fddf252ad1be2c89b69c2b068fc378daa952ba7f163c4a11628f55a4df523b3ef84604051610fe991906117dd565b60405180910390a3610ffc848484611007565b50505050565b505050565b505050565b60008135905061101b816119ae565b92915050565b600081519050611030816119c5565b92915050565b600081359050611045816119dc565b92915050565b60006020828403121561105d57600080fd5b600061106b8482850161100c565b91505092915050565b6000806040838503121561108757600080fd5b60006110958582860161100c565b92505060206110a68582860161100c565b9150509250929050565b6000806000606084860312156110c557600080fd5b60006110d38682870161100c565b93505060206110e48682870161100c565b92505060406110f586828701611036565b9150509250925092565b6000806040838503121561111257600080fd5b60006111208582860161100c565b925050602061113185828601611036565b9150509250929050565b60006020828403121561114d57600080fd5b600061115b84828501611021565b91505092915050565b61116d81611897565b82525050565b600061117e82611813565b611188818561181e565b93506111988185602086016118da565b6111a18161199d565b840191505092915050565b60006111b960238361181e565b91507f45524332303a207472616e7366657220746f20746865207a65726f206164647260008301527f65737300000000000000000000000000000000000000000000000000000000006020830152604082019050919050565b600061121f60118361181e565b91507f4e6f7420656e6f756768206d6f6e6579210000000000000000000000000000006000830152602082019050919050565b600061125f60218361181e565b91507f5468652073656e64657220616c7265616479206f776e732061207469636b657460008301527f21000000000000000000000000000000000000000000000000000000000000006020830152604082019050919050565b60006112c560228361181e565b91507f45524332303a20617070726f766520746f20746865207a65726f20616464726560008301527f73730000000000000000000000000000000000000000000000000000000000006020830152604082019050919050565b600061132b60268361181e565b91507f596f7527766520616c726561647920707572636861736564206120564950207460008301527f69636b65742100000000000000000000000000000000000000000000000000006020830152604082019050919050565b6000611391601d8361181e565b91507f45524332303a20696e73756666696369656e7420616c6c6f77616e63650000006000830152602082019050919050565b60006113d160268361181e565b91507f45524332303a207472616e7366657220616d6f756e742065786365656473206260008301527f616c616e636500000000000000000000000000000000000000000000000000006020830152604082019050919050565b600061143760268361181e565b91507f5468652073656e64657220646f65736e2774206f776e2061206261736963207460008301527f69636b65742100000000000000000000000000000000000000000000000000006020830152604082019050919050565b600061149d60258361181e565b91507f45524332303a207472616e736665722066726f6d20746865207a65726f20616460008301527f64726573730000000000000000000000000000000000000000000000000000006020830152604082019050919050565b600061150360248361181e565b91507f45524332303a20617070726f76652066726f6d20746865207a65726f2061646460008301527f72657373000000000000000000000000000000000000000000000000000000006020830152604082019050919050565b600061156960108361181e565b91507f4e6f207469636b657473206c65667421000000000000000000000000000000006000830152602082019050919050565b60006115a960258361181e565b91507f45524332303a2064656372656173656420616c6c6f77616e63652062656c6f7760008301527f207a65726f0000000000000000000000000000000000000000000000000000006020830152604082019050919050565b61160b816118c3565b82525050565b61161a816118cd565b82525050565b60006020820190506116356000830184611164565b92915050565b600060208201905081810360008301526116558184611173565b905092915050565b60006020820190508181036000830152611676816111ac565b9050919050565b6000602082019050818103600083015261169681611212565b9050919050565b600060208201905081810360008301526116b681611252565b9050919050565b600060208201905081810360008301526116d6816112b8565b9050919050565b600060208201905081810360008301526116f68161131e565b9050919050565b6000602082019050818103600083015261171681611384565b9050919050565b60006020820190508181036000830152611736816113c4565b9050919050565b600060208201905081810360008301526117568161142a565b9050919050565b6000602082019050818103600083015261177681611490565b9050919050565b60006020820190508181036000830152611796816114f6565b9050919050565b600060208201905081810360008301526117b68161155c565b9050919050565b600060208201905081810360008301526117d68161159c565b9050919050565b60006020820190506117f26000830184611602565b92915050565b600060208201905061180d6000830184611611565b92915050565b600081519050919050565b600082825260208201905092915050565b600061183a826118c3565b9150611845836118c3565b9250827fffffffffffffffffffffffffffffffffffffffffffffffffffffffffffffffff0382111561187a5761187961193f565b5b828201905092915050565b6000611890826118a3565b9050919050565b60008115159050919050565b600073ffffffffffffffffffffffffffffffffffffffff82169050919050565b6000819050919050565b600060ff82169050919050565b60005b838110156118f85780820151818401526020810190506118dd565b83811115611907576000848401525b50505050565b6000600282049050600182168061192557607f821691505b602082108114156119395761193861196e565b5b50919050565b7f4e487b7100000000000000000000000000000000000000000000000000000000600052601160045260246000fd5b7f4e487b7100000000000000000000000000000000000000000000000000000000600052602260045260246000fd5b6000601f19601f8301169050919050565b6119b781611885565b81146119c257600080fd5b50565b6119ce81611897565b81146119d957600080fd5b50565b6119e5816118c3565b81146119f057600080fd5b5056fea264697066735822122067a50292192e0a26d6170ac5f6650872f4d1f578db709901e0f06b9c7ab4554664736f6c63430008000033",
  "immutableReferences": {},
  "source": "// SPDX-License-Identifier: MIT\npragma solidity ^0.8.0;\n\nimport \"@openzeppelin/contracts/token/ERC20/ERC20.sol\";\nimport \"../contracts/Ticket.sol\";\n\ncontract TicketVIP is ERC20 {\n\n    uint256 private ticketPrice = 5900000000000000; // 0.0059 ETH in Wei\n    uint256 private upgradePrice = 2900000000000000; // 0.0029 ETH in Wei\n\n    constructor(\n        string memory name,\n        string memory symbol,\n        uint256 initialSupply) ERC20(name, symbol) {\n        _mint(address(this), initialSupply);\n    }\n\n    function decimals() public view virtual override returns (uint8) {\n        return 0;\n    }\n\n    function buyTicket(address ticketAddress) external payable {\n        // check if there is any ticket left\n        require(balanceOf(address(this)) > 0, \"No tickets left!\");\n        \n        // check if the sender has already purchased a VIP ticker or a ticket\n        require(balanceOf(tx.origin) == 0, \"You've already purchased a VIP ticket!\");\n        Ticket ticket = Ticket(ticketAddress);\n        require(!ticket.verifyTicket(), \"The sender already owns a ticket!\");\n\n        // check if sender has enough money\n        require(msg.value == ticketPrice, \"Not enough money!\"); \n        \n        // Transfer the ticket price from sender to the contract and the ticket\n        address payable contractAddress = payable(address(this));\n        contractAddress.transfer(ticketPrice);\n        _transfer(address(this), tx.origin, 1);\n    }\n\n    function upgradeTicket(address ticketAddress) external payable {\n        // check if there is any ticket left\n        require(balanceOf(address(this)) > 0, \"No tickets left!\");\n        \n        // check if the sender has already purchased a ticket\n        require(balanceOf(tx.origin) == 0, \"You've already purchased a VIP ticket!\");\n    \n        // check if sender has enough money\n        require(msg.value == upgradePrice, \"Not enough money!\");\n\n        // check if the sender owns a basic ticket. In that case, give it back to the contract\n        Ticket ticket = Ticket(ticketAddress);\n        require(ticket.verifyTicket(), \"The sender doesn't own a basic ticket!\");\n        ticket.giveBackTicket();\n\n        // Transfer the ticket price from sender to the contract and give the VIP ticket to sender\n        address payable contractAddress = payable(address(this));\n        contractAddress.transfer(upgradePrice);\n        _transfer(address(this), tx.origin, 1);\n    }\n\n    function verifyTicket() external view returns (bool) {\n        return balanceOf(tx.origin) == 1;\n    }\n\n    // TODO: function to withdraw money\n}",
  "sourcePath": "/home/osboxes/dev/unisacon/contracts/TicketVIP.sol",
  "compiler": {
    "name": "solc",
    "version": "0.8.0+commit.c7dfd78e.Emscripten.clang"
  },
  "schemaVersion": "3.4.14",
  "updatedAt": "2023-08-11T18:15:20.937Z",
  "networkType": "ethereum",
  "devdoc": {
    "kind": "dev",
    "methods": {
      "allowance(address,address)": {
        "details": "See {IERC20-allowance}."
      },
      "approve(address,uint256)": {
        "details": "See {IERC20-approve}. NOTE: If `amount` is the maximum `uint256`, the allowance is not updated on `transferFrom`. This is semantically equivalent to an infinite approval. Requirements: - `spender` cannot be the zero address."
      },
      "balanceOf(address)": {
        "details": "See {IERC20-balanceOf}."
      },
      "decimals()": {
        "details": "Returns the number of decimals used to get its user representation. For example, if `decimals` equals `2`, a balance of `505` tokens should be displayed to a user as `5.05` (`505 / 10 ** 2`). Tokens usually opt for a value of 18, imitating the relationship between Ether and Wei. This is the default value returned by this function, unless it's overridden. NOTE: This information is only used for _display_ purposes: it in no way affects any of the arithmetic of the contract, including {IERC20-balanceOf} and {IERC20-transfer}."
      },
      "decreaseAllowance(address,uint256)": {
        "details": "Atomically decreases the allowance granted to `spender` by the caller. This is an alternative to {approve} that can be used as a mitigation for problems described in {IERC20-approve}. Emits an {Approval} event indicating the updated allowance. Requirements: - `spender` cannot be the zero address. - `spender` must have allowance for the caller of at least `subtractedValue`."
      },
      "increaseAllowance(address,uint256)": {
        "details": "Atomically increases the allowance granted to `spender` by the caller. This is an alternative to {approve} that can be used as a mitigation for problems described in {IERC20-approve}. Emits an {Approval} event indicating the updated allowance. Requirements: - `spender` cannot be the zero address."
      },
      "name()": {
        "details": "Returns the name of the token."
      },
      "symbol()": {
        "details": "Returns the symbol of the token, usually a shorter version of the name."
      },
      "totalSupply()": {
        "details": "See {IERC20-totalSupply}."
      },
      "transfer(address,uint256)": {
        "details": "See {IERC20-transfer}. Requirements: - `to` cannot be the zero address. - the caller must have a balance of at least `amount`."
      },
      "transferFrom(address,address,uint256)": {
        "details": "See {IERC20-transferFrom}. Emits an {Approval} event indicating the updated allowance. This is not required by the EIP. See the note at the beginning of {ERC20}. NOTE: Does not update the allowance if the current allowance is the maximum `uint256`. Requirements: - `from` and `to` cannot be the zero address. - `from` must have a balance of at least `amount`. - the caller must have allowance for ``from``'s tokens of at least `amount`."
      }
    },
    "version": 1
  },
  "userdoc": {
    "kind": "user",
    "methods": {},
    "version": 1
  }
}