{
  "contractName": "Ticket",
  "abi": [
    {
      "inputs": [
        {
          "internalType": "string",
          "name": "name",
          "type": "string"
        },
        {
          "internalType": "string",
          "name": "symbol",
          "type": "string"
        },
        {
          "internalType": "uint256",
          "name": "initialSupply",
          "type": "uint256"
        }
      ],
      "stateMutability": "nonpayable",
      "type": "constructor"
    },
    {
      "anonymous": false,
      "inputs": [
        {
          "indexed": true,
          "internalType": "address",
          "name": "owner",
          "type": "address"
        },
        {
          "indexed": true,
          "internalType": "address",
          "name": "spender",
          "type": "address"
        },
        {
          "indexed": false,
          "internalType": "uint256",
          "name": "value",
          "type": "uint256"
        }
      ],
      "name": "Approval",
      "type": "event"
    },
    {
      "anonymous": false,
      "inputs": [
        {
          "indexed": true,
          "internalType": "address",
          "name": "from",
          "type": "address"
        },
        {
          "indexed": true,
          "internalType": "address",
          "name": "to",
          "type": "address"
        },
        {
          "indexed": false,
          "internalType": "uint256",
          "name": "value",
          "type": "uint256"
        }
      ],
      "name": "Transfer",
      "type": "event"
    },
    {
      "inputs": [
        {
          "internalType": "address",
          "name": "owner",
          "type": "address"
        },
        {
          "internalType": "address",
          "name": "spender",
          "type": "address"
        }
      ],
      "name": "allowance",
      "outputs": [
        {
          "internalType": "uint256",
          "name": "",
          "type": "uint256"
        }
      ],
      "stateMutability": "view",
      "type": "function",
      "constant": true
    },
    {
      "inputs": [
        {
          "internalType": "address",
          "name": "spender",
          "type": "address"
        },
        {
          "internalType": "uint256",
          "name": "amount",
          "type": "uint256"
        }
      ],
      "name": "approve",
      "outputs": [
        {
          "internalType": "bool",
          "name": "",
          "type": "bool"
        }
      ],
      "stateMutability": "nonpayable",
      "type": "function"
    },
    {
      "inputs": [
        {
          "internalType": "address",
          "name": "account",
          "type": "address"
        }
      ],
      "name": "balanceOf",
      "outputs": [
        {
          "internalType": "uint256",
          "name": "",
          "type": "uint256"
        }
      ],
      "stateMutability": "view",
      "type": "function",
      "constant": true
    },
    {
      "inputs": [
        {
          "internalType": "address",
          "name": "spender",
          "type": "address"
        },
        {
          "internalType": "uint256",
          "name": "subtractedValue",
          "type": "uint256"
        }
      ],
      "name": "decreaseAllowance",
      "outputs": [
        {
          "internalType": "bool",
          "name": "",
          "type": "bool"
        }
      ],
      "stateMutability": "nonpayable",
      "type": "function"
    },
    {
      "inputs": [
        {
          "internalType": "address",
          "name": "spender",
          "type": "address"
        },
        {
          "internalType": "uint256",
          "name": "addedValue",
          "type": "uint256"
        }
      ],
      "name": "increaseAllowance",
      "outputs": [
        {
          "internalType": "bool",
          "name": "",
          "type": "bool"
        }
      ],
      "stateMutability": "nonpayable",
      "type": "function"
    },
    {
      "inputs": [],
      "name": "name",
      "outputs": [
        {
          "internalType": "string",
          "name": "",
          "type": "string"
        }
      ],
      "stateMutability": "view",
      "type": "function",
      "constant": true
    },
    {
      "inputs": [],
      "name": "symbol",
      "outputs": [
        {
          "internalType": "string",
          "name": "",
          "type": "string"
        }
      ],
      "stateMutability": "view",
      "type": "function",
      "constant": true
    },
    {
      "inputs": [],
      "name": "totalSupply",
      "outputs": [
        {
          "internalType": "uint256",
          "name": "",
          "type": "uint256"
        }
      ],
      "stateMutability": "view",
      "type": "function",
      "constant": true
    },
    {
      "inputs": [
        {
          "internalType": "address",
          "name": "to",
          "type": "address"
        },
        {
          "internalType": "uint256",
          "name": "amount",
          "type": "uint256"
        }
      ],
      "name": "transfer",
      "outputs": [
        {
          "internalType": "bool",
          "name": "",
          "type": "bool"
        }
      ],
      "stateMutability": "nonpayable",
      "type": "function"
    },
    {
      "inputs": [
        {
          "internalType": "address",
          "name": "from",
          "type": "address"
        },
        {
          "internalType": "address",
          "name": "to",
          "type": "address"
        },
        {
          "internalType": "uint256",
          "name": "amount",
          "type": "uint256"
        }
      ],
      "name": "transferFrom",
      "outputs": [
        {
          "internalType": "bool",
          "name": "",
          "type": "bool"
        }
      ],
      "stateMutability": "nonpayable",
      "type": "function"
    },
    {
      "inputs": [],
      "name": "decimals",
      "outputs": [
        {
          "internalType": "uint8",
          "name": "",
          "type": "uint8"
        }
      ],
      "stateMutability": "view",
      "type": "function",
      "constant": true
    },
    {
      "inputs": [
        {
          "internalType": "address",
          "name": "ticketVIPAddress",
          "type": "address"
        }
      ],
      "name": "setTicketVIP",
      "outputs": [],
      "stateMutability": "nonpayable",
      "type": "function"
    },
    {
      "inputs": [],
      "name": "buyTicket",
      "outputs": [],
      "stateMutability": "payable",
      "type": "function",
      "payable": true
    },
    {
      "inputs": [],
      "name": "giveBackTicket",
      "outputs": [],
      "stateMutability": "nonpayable",
      "type": "function"
    },
    {
      "inputs": [],
      "name": "verifyTicket",
      "outputs": [
        {
          "internalType": "bool",
          "name": "",
          "type": "bool"
        }
      ],
      "stateMutability": "view",
      "type": "function",
      "constant": true
    }
  ],
  "bytecode": "0x6080604052660aa87bee5380006007553480156200001c57600080fd5b5060405162001f2a38038062001f2a833981810160405281019062000042919062000385565b828281600390805190602001906200005c9291906200024c565b508060049080519060200190620000759291906200024c565b5050506200008a3082620000d460201b60201c565b33600560006101000a81548173ffffffffffffffffffffffffffffffffffffffff021916908373ffffffffffffffffffffffffffffffffffffffff16021790555050505062000691565b600073ffffffffffffffffffffffffffffffffffffffff168273ffffffffffffffffffffffffffffffffffffffff16141562000147576040517f08c379a00000000000000000000000000000000000000000000000000000000081526004016200013e9062000460565b60405180910390fd5b6200015b600083836200024260201b60201c565b80600260008282546200016f919062000517565b92505081905550806000808473ffffffffffffffffffffffffffffffffffffffff1673ffffffffffffffffffffffffffffffffffffffff168152602001908152602001600020600082825401925050819055508173ffffffffffffffffffffffffffffffffffffffff16600073ffffffffffffffffffffffffffffffffffffffff167fddf252ad1be2c89b69c2b068fc378daa952ba7f163c4a11628f55a4df523b3ef8360405162000222919062000482565b60405180910390a36200023e600083836200024760201b60201c565b5050565b505050565b505050565b8280546200025a90620005b4565b90600052602060002090601f0160209004810192826200027e5760008555620002ca565b82601f106200029957805160ff1916838001178555620002ca565b82800160010185558215620002ca579182015b82811115620002c9578251825591602001919060010190620002ac565b5b509050620002d99190620002dd565b5090565b5b80821115620002f8576000816000905550600101620002de565b5090565b6000620003136200030d84620004d3565b6200049f565b9050828152602081018484840111156200032c57600080fd5b620003398482856200057e565b509392505050565b600082601f8301126200035357600080fd5b815162000365848260208601620002fc565b91505092915050565b6000815190506200037f8162000677565b92915050565b6000806000606084860312156200039b57600080fd5b600084015167ffffffffffffffff811115620003b657600080fd5b620003c48682870162000341565b935050602084015167ffffffffffffffff811115620003e257600080fd5b620003f08682870162000341565b925050604062000403868287016200036e565b9150509250925092565b60006200041c601f8362000506565b91507f45524332303a206d696e7420746f20746865207a65726f2061646472657373006000830152602082019050919050565b6200045a8162000574565b82525050565b600060208201905081810360008301526200047b816200040d565b9050919050565b60006020820190506200049960008301846200044f565b92915050565b6000604051905081810181811067ffffffffffffffff82111715620004c957620004c862000648565b5b8060405250919050565b600067ffffffffffffffff821115620004f157620004f062000648565b5b601f19601f8301169050602081019050919050565b600082825260208201905092915050565b6000620005248262000574565b9150620005318362000574565b9250827fffffffffffffffffffffffffffffffffffffffffffffffffffffffffffffffff03821115620005695762000568620005ea565b5b828201905092915050565b6000819050919050565b60005b838110156200059e57808201518184015260208101905062000581565b83811115620005ae576000848401525b50505050565b60006002820490506001821680620005cd57607f821691505b60208210811415620005e457620005e362000619565b5b50919050565b7f4e487b7100000000000000000000000000000000000000000000000000000000600052601160045260246000fd5b7f4e487b7100000000000000000000000000000000000000000000000000000000600052602260045260246000fd5b7f4e487b7100000000000000000000000000000000000000000000000000000000600052604160045260246000fd5b620006828162000574565b81146200068e57600080fd5b50565b61188980620006a16000396000f3fe6080604052600436106100e85760003560e01c806370a082311161008a578063a457c2d711610059578063a457c2d7146102f8578063a9059cbb14610335578063dd62ed3e14610372578063edca914c146103af576100e8565b806370a082311461025057806377973ac91461028d57806391b72932146102a457806395d89b41146102cd576100e8565b806323b872dd116100c657806323b872dd14610180578063313ce567146101bd57806339509351146101e85780634d589a7114610225576100e8565b806306fdde03146100ed578063095ea7b31461011857806318160ddd14610155575b600080fd5b3480156100f957600080fd5b506101026103b9565b60405161010f919061149b565b60405180910390f35b34801561012457600080fd5b5061013f600480360381019061013a9190610f85565b61044b565b60405161014c9190611480565b60405180910390f35b34801561016157600080fd5b5061016a61046e565b604051610177919061163d565b60405180910390f35b34801561018c57600080fd5b506101a760048036038101906101a29190610f36565b610478565b6040516101b49190611480565b60405180910390f35b3480156101c957600080fd5b506101d26104a7565b6040516101df9190611658565b60405180910390f35b3480156101f457600080fd5b5061020f600480360381019061020a9190610f85565b6104ac565b60405161021c9190611480565b60405180910390f35b34801561023157600080fd5b5061023a6104e3565b6040516102479190611480565b60405180910390f35b34801561025c57600080fd5b5061027760048036038101906102729190610ed1565b6104f6565b604051610284919061163d565b60405180910390f35b34801561029957600080fd5b506102a261053e565b005b3480156102b057600080fd5b506102cb60048036038101906102c69190610ed1565b610598565b005b3480156102d957600080fd5b506102e2610636565b6040516102ef919061149b565b60405180910390f35b34801561030457600080fd5b5061031f600480360381019061031a9190610f85565b6106c8565b60405161032c9190611480565b60405180910390f35b34801561034157600080fd5b5061035c60048036038101906103579190610f85565b61073f565b6040516103699190611480565b60405180910390f35b34801561037e57600080fd5b5061039960048036038101906103949190610efa565b610762565b6040516103a6919061163d565b60405180910390f35b6103b76107e9565b005b6060600380546103c89061176d565b80601f01602080910402602001604051908101604052809291908181526020018280546103f49061176d565b80156104415780601f1061041657610100808354040283529160200191610441565b820191906000526020600020905b81548152906001019060200180831161042457829003601f168201915b5050505050905090565b6000806104566109b1565b90506104638185856109b9565b600191505092915050565b6000600254905090565b6000806104836109b1565b9050610490858285610b84565b61049b858585610c10565b60019150509392505050565b600090565b6000806104b76109b1565b90506104d88185856104c98589610762565b6104d3919061168f565b6109b9565b600191505092915050565b600060016104f0326104f6565b14905090565b60008060008373ffffffffffffffffffffffffffffffffffffffff1673ffffffffffffffffffffffffffffffffffffffff168152602001908152602001600020549050919050565b6000610549326104f6565b141561058a576040517f08c379a0000000000000000000000000000000000000000000000000000000008152600401610581906115dd565b60405180910390fd5b61059632306001610c10565b565b600560009054906101000a900473ffffffffffffffffffffffffffffffffffffffff1673ffffffffffffffffffffffffffffffffffffffff163373ffffffffffffffffffffffffffffffffffffffff16146105f257600080fd5b80600660006101000a81548173ffffffffffffffffffffffffffffffffffffffff021916908373ffffffffffffffffffffffffffffffffffffffff16021790555050565b6060600480546106459061176d565b80601f01602080910402602001604051908101604052809291908181526020018280546106719061176d565b80156106be5780601f10610693576101008083540402835291602001916106be565b820191906000526020600020905b8154815290600101906020018083116106a157829003601f168201915b5050505050905090565b6000806106d36109b1565b905060006106e18286610762565b905083811015610726576040517f08c379a000000000000000000000000000000000000000000000000000000000815260040161071d9061161d565b60405180910390fd5b61073382868684036109b9565b60019250505092915050565b60008061074a6109b1565b9050610757818585610c10565b600191505092915050565b6000600160008473ffffffffffffffffffffffffffffffffffffffff1673ffffffffffffffffffffffffffffffffffffffff16815260200190815260200160002060008373ffffffffffffffffffffffffffffffffffffffff1673ffffffffffffffffffffffffffffffffffffffff16815260200190815260200160002054905092915050565b60006107f4306104f6565b11610834576040517f08c379a000000000000000000000000000000000000000000000000000000000815260040161082b906115fd565b60405180910390fd5b600061083f326104f6565b1461087f576040517f08c379a00000000000000000000000000000000000000000000000000000000081526004016108769061157d565b60405180910390fd5b600660009054906101000a900473ffffffffffffffffffffffffffffffffffffffff1673ffffffffffffffffffffffffffffffffffffffff16634d589a716040518163ffffffff1660e01b815260040160206040518083038186803b1580156108e757600080fd5b505afa1580156108fb573d6000803e3d6000fd5b505050506040513d601f19601f8201168201806040525081019061091f9190610fc1565b1561095f576040517f08c379a00000000000000000000000000000000000000000000000000000000081526004016109569061151d565b60405180910390fd5b60075434146109a3576040517f08c379a000000000000000000000000000000000000000000000000000000000815260040161099a906114dd565b60405180910390fd5b6109af30326001610c10565b565b600033905090565b600073ffffffffffffffffffffffffffffffffffffffff168373ffffffffffffffffffffffffffffffffffffffff161415610a29576040517f08c379a0000000000000000000000000000000000000000000000000000000008152600401610a20906115bd565b60405180910390fd5b600073ffffffffffffffffffffffffffffffffffffffff168273ffffffffffffffffffffffffffffffffffffffff161415610a99576040517f08c379a0000000000000000000000000000000000000000000000000000000008152600401610a90906114fd565b60405180910390fd5b80600160008573ffffffffffffffffffffffffffffffffffffffff1673ffffffffffffffffffffffffffffffffffffffff16815260200190815260200160002060008473ffffffffffffffffffffffffffffffffffffffff1673ffffffffffffffffffffffffffffffffffffffff168152602001908152602001600020819055508173ffffffffffffffffffffffffffffffffffffffff168373ffffffffffffffffffffffffffffffffffffffff167f8c5be1e5ebec7d5bd14f71427d1e84f3dd0314c0f7b2291e5b200ac8c7c3b92583604051610b77919061163d565b60405180910390a3505050565b6000610b908484610762565b90507fffffffffffffffffffffffffffffffffffffffffffffffffffffffffffffffff8114610c0a5781811015610bfc576040517f08c379a0000000000000000000000000000000000000000000000000000000008152600401610bf39061153d565b60405180910390fd5b610c0984848484036109b9565b5b50505050565b600073ffffffffffffffffffffffffffffffffffffffff168373ffffffffffffffffffffffffffffffffffffffff161415610c80576040517f08c379a0000000000000000000000000000000000000000000000000000000008152600401610c779061159d565b60405180910390fd5b600073ffffffffffffffffffffffffffffffffffffffff168273ffffffffffffffffffffffffffffffffffffffff161415610cf0576040517f08c379a0000000000000000000000000000000000000000000000000000000008152600401610ce7906114bd565b60405180910390fd5b610cfb838383610e88565b60008060008573ffffffffffffffffffffffffffffffffffffffff1673ffffffffffffffffffffffffffffffffffffffff16815260200190815260200160002054905081811015610d81576040517f08c379a0000000000000000000000000000000000000000000000000000000008152600401610d789061155d565b60405180910390fd5b8181036000808673ffffffffffffffffffffffffffffffffffffffff1673ffffffffffffffffffffffffffffffffffffffff16815260200190815260200160002081905550816000808573ffffffffffffffffffffffffffffffffffffffff1673ffffffffffffffffffffffffffffffffffffffff168152602001908152602001600020600082825401925050819055508273ffffffffffffffffffffffffffffffffffffffff168473ffffffffffffffffffffffffffffffffffffffff167fddf252ad1be2c89b69c2b068fc378daa952ba7f163c4a11628f55a4df523b3ef84604051610e6f919061163d565b60405180910390a3610e82848484610e8d565b50505050565b505050565b505050565b600081359050610ea18161180e565b92915050565b600081519050610eb681611825565b92915050565b600081359050610ecb8161183c565b92915050565b600060208284031215610ee357600080fd5b6000610ef184828501610e92565b91505092915050565b60008060408385031215610f0d57600080fd5b6000610f1b85828601610e92565b9250506020610f2c85828601610e92565b9150509250929050565b600080600060608486031215610f4b57600080fd5b6000610f5986828701610e92565b9350506020610f6a86828701610e92565b9250506040610f7b86828701610ebc565b9150509250925092565b60008060408385031215610f9857600080fd5b6000610fa685828601610e92565b9250506020610fb785828601610ebc565b9150509250929050565b600060208284031215610fd357600080fd5b6000610fe184828501610ea7565b91505092915050565b610ff3816116f7565b82525050565b600061100482611673565b61100e818561167e565b935061101e81856020860161173a565b611027816117fd565b840191505092915050565b600061103f60238361167e565b91507f45524332303a207472616e7366657220746f20746865207a65726f206164647260008301527f65737300000000000000000000000000000000000000000000000000000000006020830152604082019050919050565b60006110a560118361167e565b91507f4e6f7420656e6f756768206d6f6e6579210000000000000000000000000000006000830152602082019050919050565b60006110e560228361167e565b91507f45524332303a20617070726f766520746f20746865207a65726f20616464726560008301527f73730000000000000000000000000000000000000000000000000000000000006020830152604082019050919050565b600061114b60268361167e565b91507f596f7527766520616c726561647920707572636861736564206120564950207460008301527f69636b65742100000000000000000000000000000000000000000000000000006020830152604082019050919050565b60006111b1601d8361167e565b91507f45524332303a20696e73756666696369656e7420616c6c6f77616e63650000006000830152602082019050919050565b60006111f160268361167e565b91507f45524332303a207472616e7366657220616d6f756e742065786365656473206260008301527f616c616e636500000000000000000000000000000000000000000000000000006020830152604082019050919050565b600061125760228361167e565b91507f596f7527766520616c7265616479207075726368617365642061207469636b6560008301527f74210000000000000000000000000000000000000000000000000000000000006020830152604082019050919050565b60006112bd60258361167e565b91507f45524332303a207472616e736665722066726f6d20746865207a65726f20616460008301527f64726573730000000000000000000000000000000000000000000000000000006020830152604082019050919050565b600061132360248361167e565b91507f45524332303a20617070726f76652066726f6d20746865207a65726f2061646460008301527f72657373000000000000000000000000000000000000000000000000000000006020830152604082019050919050565b600061138960198361167e565b91507f596f7520646f6e2774206f776e20616e79207469636b657421000000000000006000830152602082019050919050565b60006113c960108361167e565b91507f4e6f207469636b657473206c65667421000000000000000000000000000000006000830152602082019050919050565b600061140960258361167e565b91507f45524332303a2064656372656173656420616c6c6f77616e63652062656c6f7760008301527f207a65726f0000000000000000000000000000000000000000000000000000006020830152604082019050919050565b61146b81611723565b82525050565b61147a8161172d565b82525050565b60006020820190506114956000830184610fea565b92915050565b600060208201905081810360008301526114b58184610ff9565b905092915050565b600060208201905081810360008301526114d681611032565b9050919050565b600060208201905081810360008301526114f681611098565b9050919050565b60006020820190508181036000830152611516816110d8565b9050919050565b600060208201905081810360008301526115368161113e565b9050919050565b60006020820190508181036000830152611556816111a4565b9050919050565b60006020820190508181036000830152611576816111e4565b9050919050565b600060208201905081810360008301526115968161124a565b9050919050565b600060208201905081810360008301526115b6816112b0565b9050919050565b600060208201905081810360008301526115d681611316565b9050919050565b600060208201905081810360008301526115f68161137c565b9050919050565b60006020820190508181036000830152611616816113bc565b9050919050565b60006020820190508181036000830152611636816113fc565b9050919050565b60006020820190506116526000830184611462565b92915050565b600060208201905061166d6000830184611471565b92915050565b600081519050919050565b600082825260208201905092915050565b600061169a82611723565b91506116a583611723565b9250827fffffffffffffffffffffffffffffffffffffffffffffffffffffffffffffffff038211156116da576116d961179f565b5b828201905092915050565b60006116f082611703565b9050919050565b60008115159050919050565b600073ffffffffffffffffffffffffffffffffffffffff82169050919050565b6000819050919050565b600060ff82169050919050565b60005b8381101561175857808201518184015260208101905061173d565b83811115611767576000848401525b50505050565b6000600282049050600182168061178557607f821691505b60208210811415611799576117986117ce565b5b50919050565b7f4e487b7100000000000000000000000000000000000000000000000000000000600052601160045260246000fd5b7f4e487b7100000000000000000000000000000000000000000000000000000000600052602260045260246000fd5b6000601f19601f8301169050919050565b611817816116e5565b811461182257600080fd5b50565b61182e816116f7565b811461183957600080fd5b50565b61184581611723565b811461185057600080fd5b5056fea2646970667358221220c34b014132ca3dd754de48f8fbb19c49eafbd73d15e10ccfa5291c76813ae84964736f6c63430008000033",
  "immutableReferences": {},
  "source": "// SPDX-License-Identifier: MIT\npragma solidity ^0.8.0;\n\nimport \"@openzeppelin/contracts/token/ERC20/ERC20.sol\";\nimport \"../contracts/TicketVIP.sol\";\n\ncontract Ticket is ERC20 {\n\n    address private owner;\n    TicketVIP ticketVIP;\n    uint256 private ticketPrice = 3000000000000000; // 0.0030 ETH in Wei\n    \n    constructor(\n        string memory name,\n        string memory symbol,\n        uint256 initialSupply) ERC20(name, symbol) {\n        _mint(address(this), initialSupply);\n        owner = msg.sender;\n    }\n    \n    function decimals() public view virtual override returns (uint8) {\n        return 0;\n    }\n\n    function setTicketVIP(address ticketVIPAddress) external {\n        require(msg.sender == owner);\n        ticketVIP = TicketVIP(ticketVIPAddress);\n    }\n\n    function buyTicket() payable external {\n        // check if there are any tickets left\n        require(balanceOf(address(this)) > 0, \"No tickets left!\");\n        \n        // check if the sender has already purchased a ticket\n        require(balanceOf(tx.origin) == 0, \"You've already purchased a ticket!\");\n\n        // check if the sender has already purchased a VIP ticket\n        require(!ticketVIP.verifyTicket(), \"You've already purchased a VIP ticket!\");\n\n        // check if sender has enough money\n        require(msg.value == ticketPrice, \"Not enough money!\"); \n\n        // transfer the ticket to the sender\n        _transfer(address(this), tx.origin, 1);\n    }\n\n    function giveBackTicket() external {\n        // check if the sender owns a ticket\n        require(balanceOf(tx.origin) != 0, \"You don't own any ticket!\");\n\n        // give back the ticket to the contract\n        _transfer(tx.origin, address(this), 1);\n    }\n\n    function verifyTicket() external view returns (bool) {\n        return balanceOf(tx.origin) == 1;\n    }\n\n}",
  "sourcePath": "/home/osboxes/dev/unisacon/contracts/Ticket.sol",
  "compiler": {
    "name": "solc",
    "version": "0.8.0+commit.c7dfd78e.Emscripten.clang"
  },
  "schemaVersion": "3.4.14",
  "updatedAt": "2023-09-04T16:07:18.103Z",
  "networkType": "ethereum",
  "devdoc": {
    "kind": "dev",
    "methods": {
      "allowance(address,address)": {
        "details": "See {IERC20-allowance}."
      },
      "approve(address,uint256)": {
        "details": "See {IERC20-approve}. NOTE: If `amount` is the maximum `uint256`, the allowance is not updated on `transferFrom`. This is semantically equivalent to an infinite approval. Requirements: - `spender` cannot be the zero address."
      },
      "balanceOf(address)": {
        "details": "See {IERC20-balanceOf}."
      },
      "decimals()": {
        "details": "Returns the number of decimals used to get its user representation. For example, if `decimals` equals `2`, a balance of `505` tokens should be displayed to a user as `5.05` (`505 / 10 ** 2`). Tokens usually opt for a value of 18, imitating the relationship between Ether and Wei. This is the default value returned by this function, unless it's overridden. NOTE: This information is only used for _display_ purposes: it in no way affects any of the arithmetic of the contract, including {IERC20-balanceOf} and {IERC20-transfer}."
      },
      "decreaseAllowance(address,uint256)": {
        "details": "Atomically decreases the allowance granted to `spender` by the caller. This is an alternative to {approve} that can be used as a mitigation for problems described in {IERC20-approve}. Emits an {Approval} event indicating the updated allowance. Requirements: - `spender` cannot be the zero address. - `spender` must have allowance for the caller of at least `subtractedValue`."
      },
      "increaseAllowance(address,uint256)": {
        "details": "Atomically increases the allowance granted to `spender` by the caller. This is an alternative to {approve} that can be used as a mitigation for problems described in {IERC20-approve}. Emits an {Approval} event indicating the updated allowance. Requirements: - `spender` cannot be the zero address."
      },
      "name()": {
        "details": "Returns the name of the token."
      },
      "symbol()": {
        "details": "Returns the symbol of the token, usually a shorter version of the name."
      },
      "totalSupply()": {
        "details": "See {IERC20-totalSupply}."
      },
      "transfer(address,uint256)": {
        "details": "See {IERC20-transfer}. Requirements: - `to` cannot be the zero address. - the caller must have a balance of at least `amount`."
      },
      "transferFrom(address,address,uint256)": {
        "details": "See {IERC20-transferFrom}. Emits an {Approval} event indicating the updated allowance. This is not required by the EIP. See the note at the beginning of {ERC20}. NOTE: Does not update the allowance if the current allowance is the maximum `uint256`. Requirements: - `from` and `to` cannot be the zero address. - `from` must have a balance of at least `amount`. - the caller must have allowance for ``from``'s tokens of at least `amount`."
      }
    },
    "version": 1
  },
  "userdoc": {
    "kind": "user",
    "methods": {},
    "version": 1
  }
}