{
  "contractName": "TicketVIP",
  "abi": [
    {
      "inputs": [
        {
          "internalType": "string",
          "name": "name",
          "type": "string"
        },
        {
          "internalType": "string",
          "name": "symbol",
          "type": "string"
        },
        {
          "internalType": "uint256",
          "name": "initialSupply",
          "type": "uint256"
        }
      ],
      "stateMutability": "nonpayable",
      "type": "constructor"
    },
    {
      "anonymous": false,
      "inputs": [
        {
          "indexed": true,
          "internalType": "address",
          "name": "owner",
          "type": "address"
        },
        {
          "indexed": true,
          "internalType": "address",
          "name": "spender",
          "type": "address"
        },
        {
          "indexed": false,
          "internalType": "uint256",
          "name": "value",
          "type": "uint256"
        }
      ],
      "name": "Approval",
      "type": "event"
    },
    {
      "anonymous": false,
      "inputs": [
        {
          "indexed": true,
          "internalType": "address",
          "name": "from",
          "type": "address"
        },
        {
          "indexed": true,
          "internalType": "address",
          "name": "to",
          "type": "address"
        },
        {
          "indexed": false,
          "internalType": "uint256",
          "name": "value",
          "type": "uint256"
        }
      ],
      "name": "Transfer",
      "type": "event"
    },
    {
      "inputs": [
        {
          "internalType": "address",
          "name": "owner",
          "type": "address"
        },
        {
          "internalType": "address",
          "name": "spender",
          "type": "address"
        }
      ],
      "name": "allowance",
      "outputs": [
        {
          "internalType": "uint256",
          "name": "",
          "type": "uint256"
        }
      ],
      "stateMutability": "view",
      "type": "function",
      "constant": true
    },
    {
      "inputs": [
        {
          "internalType": "address",
          "name": "spender",
          "type": "address"
        },
        {
          "internalType": "uint256",
          "name": "amount",
          "type": "uint256"
        }
      ],
      "name": "approve",
      "outputs": [
        {
          "internalType": "bool",
          "name": "",
          "type": "bool"
        }
      ],
      "stateMutability": "nonpayable",
      "type": "function"
    },
    {
      "inputs": [
        {
          "internalType": "address",
          "name": "account",
          "type": "address"
        }
      ],
      "name": "balanceOf",
      "outputs": [
        {
          "internalType": "uint256",
          "name": "",
          "type": "uint256"
        }
      ],
      "stateMutability": "view",
      "type": "function",
      "constant": true
    },
    {
      "inputs": [
        {
          "internalType": "address",
          "name": "spender",
          "type": "address"
        },
        {
          "internalType": "uint256",
          "name": "subtractedValue",
          "type": "uint256"
        }
      ],
      "name": "decreaseAllowance",
      "outputs": [
        {
          "internalType": "bool",
          "name": "",
          "type": "bool"
        }
      ],
      "stateMutability": "nonpayable",
      "type": "function"
    },
    {
      "inputs": [
        {
          "internalType": "address",
          "name": "spender",
          "type": "address"
        },
        {
          "internalType": "uint256",
          "name": "addedValue",
          "type": "uint256"
        }
      ],
      "name": "increaseAllowance",
      "outputs": [
        {
          "internalType": "bool",
          "name": "",
          "type": "bool"
        }
      ],
      "stateMutability": "nonpayable",
      "type": "function"
    },
    {
      "inputs": [],
      "name": "name",
      "outputs": [
        {
          "internalType": "string",
          "name": "",
          "type": "string"
        }
      ],
      "stateMutability": "view",
      "type": "function",
      "constant": true
    },
    {
      "inputs": [],
      "name": "symbol",
      "outputs": [
        {
          "internalType": "string",
          "name": "",
          "type": "string"
        }
      ],
      "stateMutability": "view",
      "type": "function",
      "constant": true
    },
    {
      "inputs": [],
      "name": "totalSupply",
      "outputs": [
        {
          "internalType": "uint256",
          "name": "",
          "type": "uint256"
        }
      ],
      "stateMutability": "view",
      "type": "function",
      "constant": true
    },
    {
      "inputs": [
        {
          "internalType": "address",
          "name": "to",
          "type": "address"
        },
        {
          "internalType": "uint256",
          "name": "amount",
          "type": "uint256"
        }
      ],
      "name": "transfer",
      "outputs": [
        {
          "internalType": "bool",
          "name": "",
          "type": "bool"
        }
      ],
      "stateMutability": "nonpayable",
      "type": "function"
    },
    {
      "inputs": [
        {
          "internalType": "address",
          "name": "from",
          "type": "address"
        },
        {
          "internalType": "address",
          "name": "to",
          "type": "address"
        },
        {
          "internalType": "uint256",
          "name": "amount",
          "type": "uint256"
        }
      ],
      "name": "transferFrom",
      "outputs": [
        {
          "internalType": "bool",
          "name": "",
          "type": "bool"
        }
      ],
      "stateMutability": "nonpayable",
      "type": "function"
    },
    {
      "inputs": [],
      "name": "decimals",
      "outputs": [
        {
          "internalType": "uint8",
          "name": "",
          "type": "uint8"
        }
      ],
      "stateMutability": "view",
      "type": "function",
      "constant": true
    },
    {
      "inputs": [
        {
          "internalType": "address",
          "name": "ticketAddress",
          "type": "address"
        }
      ],
      "name": "setTicket",
      "outputs": [],
      "stateMutability": "nonpayable",
      "type": "function"
    },
    {
      "inputs": [],
      "name": "buyTicket",
      "outputs": [],
      "stateMutability": "payable",
      "type": "function",
      "payable": true
    },
    {
      "inputs": [],
      "name": "upgradeTicket",
      "outputs": [],
      "stateMutability": "payable",
      "type": "function",
      "payable": true
    },
    {
      "inputs": [],
      "name": "verifyTicket",
      "outputs": [
        {
          "internalType": "bool",
          "name": "",
          "type": "bool"
        }
      ],
      "stateMutability": "view",
      "type": "function",
      "constant": true
    }
  ],
  "bytecode": "0x60806040526614f604cc2cc000600755660a4d88ddd940006008553480156200002757600080fd5b50604051620021173803806200211783398181016040528101906200004d919062000390565b828281600390805190602001906200006792919062000257565b5080600490805190602001906200008092919062000257565b505050620000953082620000df60201b60201c565b33600560006101000a81548173ffffffffffffffffffffffffffffffffffffffff021916908373ffffffffffffffffffffffffffffffffffffffff1602179055505050506200069c565b600073ffffffffffffffffffffffffffffffffffffffff168273ffffffffffffffffffffffffffffffffffffffff16141562000152576040517f08c379a000000000000000000000000000000000000000000000000000000000815260040162000149906200046b565b60405180910390fd5b62000166600083836200024d60201b60201c565b80600260008282546200017a919062000522565b92505081905550806000808473ffffffffffffffffffffffffffffffffffffffff1673ffffffffffffffffffffffffffffffffffffffff168152602001908152602001600020600082825401925050819055508173ffffffffffffffffffffffffffffffffffffffff16600073ffffffffffffffffffffffffffffffffffffffff167fddf252ad1be2c89b69c2b068fc378daa952ba7f163c4a11628f55a4df523b3ef836040516200022d91906200048d565b60405180910390a362000249600083836200025260201b60201c565b5050565b505050565b505050565b8280546200026590620005bf565b90600052602060002090601f016020900481019282620002895760008555620002d5565b82601f10620002a457805160ff1916838001178555620002d5565b82800160010185558215620002d5579182015b82811115620002d4578251825591602001919060010190620002b7565b5b509050620002e49190620002e8565b5090565b5b8082111562000303576000816000905550600101620002e9565b5090565b60006200031e6200031884620004de565b620004aa565b9050828152602081018484840111156200033757600080fd5b6200034484828562000589565b509392505050565b600082601f8301126200035e57600080fd5b81516200037084826020860162000307565b91505092915050565b6000815190506200038a8162000682565b92915050565b600080600060608486031215620003a657600080fd5b600084015167ffffffffffffffff811115620003c157600080fd5b620003cf868287016200034c565b935050602084015167ffffffffffffffff811115620003ed57600080fd5b620003fb868287016200034c565b92505060406200040e8682870162000379565b9150509250925092565b600062000427601f8362000511565b91507f45524332303a206d696e7420746f20746865207a65726f2061646472657373006000830152602082019050919050565b62000465816200057f565b82525050565b60006020820190508181036000830152620004868162000418565b9050919050565b6000602082019050620004a460008301846200045a565b92915050565b6000604051905081810181811067ffffffffffffffff82111715620004d457620004d362000653565b5b8060405250919050565b600067ffffffffffffffff821115620004fc57620004fb62000653565b5b601f19601f8301169050602081019050919050565b600082825260208201905092915050565b60006200052f826200057f565b91506200053c836200057f565b9250827fffffffffffffffffffffffffffffffffffffffffffffffffffffffffffffffff03821115620005745762000573620005f5565b5b828201905092915050565b6000819050919050565b60005b83811015620005a95780820151818401526020810190506200058c565b83811115620005b9576000848401525b50505050565b60006002820490506001821680620005d857607f821691505b60208210811415620005ef57620005ee62000624565b5b50919050565b7f4e487b7100000000000000000000000000000000000000000000000000000000600052601160045260246000fd5b7f4e487b7100000000000000000000000000000000000000000000000000000000600052602260045260246000fd5b7f4e487b7100000000000000000000000000000000000000000000000000000000600052604160045260246000fd5b6200068d816200057f565b81146200069957600080fd5b50565b611a6b80620006ac6000396000f3fe6080604052600436106100e85760003560e01c80634d589a711161008a578063a457c2d711610059578063a457c2d7146102eb578063a9059cbb14610328578063dd62ed3e14610365578063edca914c146103a2576100e8565b80634d589a711461024e57806358b5ddcf1461027957806370a082311461028357806395d89b41146102c0576100e8565b80631c65c78b116100c65780631c65c78b1461018057806323b872dd146101a9578063313ce567146101e65780633950935114610211576100e8565b806306fdde03146100ed578063095ea7b31461011857806318160ddd14610155575b600080fd5b3480156100f957600080fd5b506101026103ac565b60405161010f919061167d565b60405180910390f35b34801561012457600080fd5b5061013f600480360381019061013a9190611167565b61043e565b60405161014c9190611662565b60405180910390f35b34801561016157600080fd5b5061016a610461565b604051610177919061181f565b60405180910390f35b34801561018c57600080fd5b506101a760048036038101906101a291906110b3565b61046b565b005b3480156101b557600080fd5b506101d060048036038101906101cb9190611118565b610509565b6040516101dd9190611662565b60405180910390f35b3480156101f257600080fd5b506101fb610538565b604051610208919061183a565b60405180910390f35b34801561021d57600080fd5b5061023860048036038101906102339190611167565b61053d565b6040516102459190611662565b60405180910390f35b34801561025a57600080fd5b50610263610574565b6040516102709190611662565b60405180910390f35b610281610587565b005b34801561028f57600080fd5b506102aa60048036038101906102a591906110b3565b6107d0565b6040516102b7919061181f565b60405180910390f35b3480156102cc57600080fd5b506102d5610818565b6040516102e2919061167d565b60405180910390f35b3480156102f757600080fd5b50610312600480360381019061030d9190611167565b6108aa565b60405161031f9190611662565b60405180910390f35b34801561033457600080fd5b5061034f600480360381019061034a9190611167565b610921565b60405161035c9190611662565b60405180910390f35b34801561037157600080fd5b5061038c600480360381019061038791906110dc565b610944565b604051610399919061181f565b60405180910390f35b6103aa6109cb565b005b6060600380546103bb9061194f565b80601f01602080910402602001604051908101604052809291908181526020018280546103e79061194f565b80156104345780601f1061040957610100808354040283529160200191610434565b820191906000526020600020905b81548152906001019060200180831161041757829003601f168201915b5050505050905090565b600080610449610b93565b9050610456818585610b9b565b600191505092915050565b6000600254905090565b3373ffffffffffffffffffffffffffffffffffffffff16600560009054906101000a900473ffffffffffffffffffffffffffffffffffffffff1673ffffffffffffffffffffffffffffffffffffffff16146104c557600080fd5b80600660006101000a81548173ffffffffffffffffffffffffffffffffffffffff021916908373ffffffffffffffffffffffffffffffffffffffff16021790555050565b600080610514610b93565b9050610521858285610d66565b61052c858585610df2565b60019150509392505050565b600090565b600080610548610b93565b905061056981858561055a8589610944565b6105649190611871565b610b9b565b600191505092915050565b60006001610581326107d0565b14905090565b6000610592306107d0565b116105d2576040517f08c379a00000000000000000000000000000000000000000000000000000000081526004016105c9906117df565b60405180910390fd5b60006105dd326107d0565b1461061d576040517f08c379a0000000000000000000000000000000000000000000000000000000008152600401610614906116ff565b60405180910390fd5b6008543414610661576040517f08c379a0000000000000000000000000000000000000000000000000000000008152600401610658906116bf565b60405180910390fd5b600660009054906101000a900473ffffffffffffffffffffffffffffffffffffffff1673ffffffffffffffffffffffffffffffffffffffff16634d589a716040518163ffffffff1660e01b815260040160206040518083038186803b1580156106c957600080fd5b505afa1580156106dd573d6000803e3d6000fd5b505050506040513d601f19601f8201168201806040525081019061070191906111a3565b610740576040517f08c379a00000000000000000000000000000000000000000000000000000000081526004016107379061177f565b60405180910390fd5b600660009054906101000a900473ffffffffffffffffffffffffffffffffffffffff1673ffffffffffffffffffffffffffffffffffffffff166377973ac96040518163ffffffff1660e01b8152600401600060405180830381600087803b1580156107aa57600080fd5b505af11580156107be573d6000803e3d6000fd5b505050506107ce30326001610df2565b565b60008060008373ffffffffffffffffffffffffffffffffffffffff1673ffffffffffffffffffffffffffffffffffffffff168152602001908152602001600020549050919050565b6060600480546108279061194f565b80601f01602080910402602001604051908101604052809291908181526020018280546108539061194f565b80156108a05780601f10610875576101008083540402835291602001916108a0565b820191906000526020600020905b81548152906001019060200180831161088357829003601f168201915b5050505050905090565b6000806108b5610b93565b905060006108c38286610944565b905083811015610908576040517f08c379a00000000000000000000000000000000000000000000000000000000081526004016108ff906117ff565b60405180910390fd5b6109158286868403610b9b565b60019250505092915050565b60008061092c610b93565b9050610939818585610df2565b600191505092915050565b6000600160008473ffffffffffffffffffffffffffffffffffffffff1673ffffffffffffffffffffffffffffffffffffffff16815260200190815260200160002060008373ffffffffffffffffffffffffffffffffffffffff1673ffffffffffffffffffffffffffffffffffffffff16815260200190815260200160002054905092915050565b60006109d6306107d0565b11610a16576040517f08c379a0000000000000000000000000000000000000000000000000000000008152600401610a0d906117df565b60405180910390fd5b6000610a21326107d0565b14610a61576040517f08c379a0000000000000000000000000000000000000000000000000000000008152600401610a58906116ff565b60405180910390fd5b600660009054906101000a900473ffffffffffffffffffffffffffffffffffffffff1673ffffffffffffffffffffffffffffffffffffffff16634d589a716040518163ffffffff1660e01b815260040160206040518083038186803b158015610ac957600080fd5b505afa158015610add573d6000803e3d6000fd5b505050506040513d601f19601f82011682018060405250810190610b0191906111a3565b15610b41576040517f08c379a0000000000000000000000000000000000000000000000000000000008152600401610b389061175f565b60405180910390fd5b6007543414610b85576040517f08c379a0000000000000000000000000000000000000000000000000000000008152600401610b7c906116bf565b60405180910390fd5b610b9130326001610df2565b565b600033905090565b600073ffffffffffffffffffffffffffffffffffffffff168373ffffffffffffffffffffffffffffffffffffffff161415610c0b576040517f08c379a0000000000000000000000000000000000000000000000000000000008152600401610c02906117bf565b60405180910390fd5b600073ffffffffffffffffffffffffffffffffffffffff168273ffffffffffffffffffffffffffffffffffffffff161415610c7b576040517f08c379a0000000000000000000000000000000000000000000000000000000008152600401610c72906116df565b60405180910390fd5b80600160008573ffffffffffffffffffffffffffffffffffffffff1673ffffffffffffffffffffffffffffffffffffffff16815260200190815260200160002060008473ffffffffffffffffffffffffffffffffffffffff1673ffffffffffffffffffffffffffffffffffffffff168152602001908152602001600020819055508173ffffffffffffffffffffffffffffffffffffffff168373ffffffffffffffffffffffffffffffffffffffff167f8c5be1e5ebec7d5bd14f71427d1e84f3dd0314c0f7b2291e5b200ac8c7c3b92583604051610d59919061181f565b60405180910390a3505050565b6000610d728484610944565b90507fffffffffffffffffffffffffffffffffffffffffffffffffffffffffffffffff8114610dec5781811015610dde576040517f08c379a0000000000000000000000000000000000000000000000000000000008152600401610dd59061171f565b60405180910390fd5b610deb8484848403610b9b565b5b50505050565b600073ffffffffffffffffffffffffffffffffffffffff168373ffffffffffffffffffffffffffffffffffffffff161415610e62576040517f08c379a0000000000000000000000000000000000000000000000000000000008152600401610e599061179f565b60405180910390fd5b600073ffffffffffffffffffffffffffffffffffffffff168273ffffffffffffffffffffffffffffffffffffffff161415610ed2576040517f08c379a0000000000000000000000000000000000000000000000000000000008152600401610ec99061169f565b60405180910390fd5b610edd83838361106a565b60008060008573ffffffffffffffffffffffffffffffffffffffff1673ffffffffffffffffffffffffffffffffffffffff16815260200190815260200160002054905081811015610f63576040517f08c379a0000000000000000000000000000000000000000000000000000000008152600401610f5a9061173f565b60405180910390fd5b8181036000808673ffffffffffffffffffffffffffffffffffffffff1673ffffffffffffffffffffffffffffffffffffffff16815260200190815260200160002081905550816000808573ffffffffffffffffffffffffffffffffffffffff1673ffffffffffffffffffffffffffffffffffffffff168152602001908152602001600020600082825401925050819055508273ffffffffffffffffffffffffffffffffffffffff168473ffffffffffffffffffffffffffffffffffffffff167fddf252ad1be2c89b69c2b068fc378daa952ba7f163c4a11628f55a4df523b3ef84604051611051919061181f565b60405180910390a361106484848461106f565b50505050565b505050565b505050565b600081359050611083816119f0565b92915050565b60008151905061109881611a07565b92915050565b6000813590506110ad81611a1e565b92915050565b6000602082840312156110c557600080fd5b60006110d384828501611074565b91505092915050565b600080604083850312156110ef57600080fd5b60006110fd85828601611074565b925050602061110e85828601611074565b9150509250929050565b60008060006060848603121561112d57600080fd5b600061113b86828701611074565b935050602061114c86828701611074565b925050604061115d8682870161109e565b9150509250925092565b6000806040838503121561117a57600080fd5b600061118885828601611074565b92505060206111998582860161109e565b9150509250929050565b6000602082840312156111b557600080fd5b60006111c384828501611089565b91505092915050565b6111d5816118d9565b82525050565b60006111e682611855565b6111f08185611860565b935061120081856020860161191c565b611209816119df565b840191505092915050565b6000611221602383611860565b91507f45524332303a207472616e7366657220746f20746865207a65726f206164647260008301527f65737300000000000000000000000000000000000000000000000000000000006020830152604082019050919050565b6000611287601183611860565b91507f4e6f7420656e6f756768206d6f6e6579210000000000000000000000000000006000830152602082019050919050565b60006112c7602283611860565b91507f45524332303a20617070726f766520746f20746865207a65726f20616464726560008301527f73730000000000000000000000000000000000000000000000000000000000006020830152604082019050919050565b600061132d602683611860565b91507f596f7527766520616c726561647920707572636861736564206120564950207460008301527f69636b65742100000000000000000000000000000000000000000000000000006020830152604082019050919050565b6000611393601d83611860565b91507f45524332303a20696e73756666696369656e7420616c6c6f77616e63650000006000830152602082019050919050565b60006113d3602683611860565b91507f45524332303a207472616e7366657220616d6f756e742065786365656473206260008301527f616c616e636500000000000000000000000000000000000000000000000000006020830152604082019050919050565b6000611439602283611860565b91507f596f7527766520616c7265616479207075726368617365642061207469636b6560008301527f74210000000000000000000000000000000000000000000000000000000000006020830152604082019050919050565b600061149f602083611860565b91507f596f7520646f6e27742068617665206120726567756c6172207469636b6574216000830152602082019050919050565b60006114df602583611860565b91507f45524332303a207472616e736665722066726f6d20746865207a65726f20616460008301527f64726573730000000000000000000000000000000000000000000000000000006020830152604082019050919050565b6000611545602483611860565b91507f45524332303a20617070726f76652066726f6d20746865207a65726f2061646460008301527f72657373000000000000000000000000000000000000000000000000000000006020830152604082019050919050565b60006115ab601083611860565b91507f4e6f207469636b657473206c65667421000000000000000000000000000000006000830152602082019050919050565b60006115eb602583611860565b91507f45524332303a2064656372656173656420616c6c6f77616e63652062656c6f7760008301527f207a65726f0000000000000000000000000000000000000000000000000000006020830152604082019050919050565b61164d81611905565b82525050565b61165c8161190f565b82525050565b600060208201905061167760008301846111cc565b92915050565b6000602082019050818103600083015261169781846111db565b905092915050565b600060208201905081810360008301526116b881611214565b9050919050565b600060208201905081810360008301526116d88161127a565b9050919050565b600060208201905081810360008301526116f8816112ba565b9050919050565b6000602082019050818103600083015261171881611320565b9050919050565b6000602082019050818103600083015261173881611386565b9050919050565b60006020820190508181036000830152611758816113c6565b9050919050565b600060208201905081810360008301526117788161142c565b9050919050565b6000602082019050818103600083015261179881611492565b9050919050565b600060208201905081810360008301526117b8816114d2565b9050919050565b600060208201905081810360008301526117d881611538565b9050919050565b600060208201905081810360008301526117f88161159e565b9050919050565b60006020820190508181036000830152611818816115de565b9050919050565b60006020820190506118346000830184611644565b92915050565b600060208201905061184f6000830184611653565b92915050565b600081519050919050565b600082825260208201905092915050565b600061187c82611905565b915061188783611905565b9250827fffffffffffffffffffffffffffffffffffffffffffffffffffffffffffffffff038211156118bc576118bb611981565b5b828201905092915050565b60006118d2826118e5565b9050919050565b60008115159050919050565b600073ffffffffffffffffffffffffffffffffffffffff82169050919050565b6000819050919050565b600060ff82169050919050565b60005b8381101561193a57808201518184015260208101905061191f565b83811115611949576000848401525b50505050565b6000600282049050600182168061196757607f821691505b6020821081141561197b5761197a6119b0565b5b50919050565b7f4e487b7100000000000000000000000000000000000000000000000000000000600052601160045260246000fd5b7f4e487b7100000000000000000000000000000000000000000000000000000000600052602260045260246000fd5b6000601f19601f8301169050919050565b6119f9816118c7565b8114611a0457600080fd5b50565b611a10816118d9565b8114611a1b57600080fd5b50565b611a2781611905565b8114611a3257600080fd5b5056fea2646970667358221220d537feb81fed556d7692c30aa1c400549f28e8ad6efb8daf034d98d0fc66cb9464736f6c63430008000033",
  "immutableReferences": {},
  "source": "// SPDX-License-Identifier: MIT\npragma solidity ^0.8.0;\n\nimport \"@openzeppelin/contracts/token/ERC20/ERC20.sol\";\nimport \"../contracts/Ticket.sol\";\n\ncontract TicketVIP is ERC20 {\n\n    address owner;\n    Ticket ticket;\n    uint256 private ticketPrice = 5900000000000000; // 0.0059 ETH in Wei\n    uint256 private upgradePrice = 2900000000000000; // 0.0029 ETH in Wei\n\n    constructor(\n        string memory name,\n        string memory symbol,\n        uint256 initialSupply) ERC20(name, symbol) {\n        _mint(address(this), initialSupply);\n        owner = msg.sender;\n    }\n\n    function decimals() public view virtual override returns (uint8) {\n        return 0;\n    }\n\n    function setTicket(address ticketAddress) external {\n        require(owner == msg.sender);\n        ticket = Ticket(ticketAddress);\n    }\n\n    function buyTicket() external payable {\n        // check if there are any tickets left\n        require(balanceOf(address(this)) > 0, \"No tickets left!\");\n        \n        // check if the sender has already purchased a VIP ticket\n        require(balanceOf(tx.origin) == 0, \"You've already purchased a VIP ticket!\");\n\n        // check if the sender has already purchased a ticket\n        require(!ticket.verifyTicket(), \"You've already purchased a ticket!\");\n\n        // check if sender has enough money\n        require(msg.value == ticketPrice, \"Not enough money!\"); \n        \n        // transfer the ticket to the sender\n        _transfer(address(this), tx.origin, 1);\n    }\n\n    function upgradeTicket() external payable {\n        // check if there are any tickets left\n        require(balanceOf(address(this)) > 0, \"No tickets left!\");\n        \n        // check if the sender has already purchased a VIP ticket\n        require(balanceOf(tx.origin) == 0, \"You've already purchased a VIP ticket!\");\n    \n        // check if sender has enough money\n        require(msg.value == upgradePrice, \"Not enough money!\");\n\n        // check if the sender owns a regular ticket.\n        require(ticket.verifyTicket(), \"You don't have a regular ticket!\");\n\n        // give back the regular ticket to the Ticket.sol contract\n        ticket.giveBackTicket();\n\n        // transfer the ticket to the sender\n        _transfer(address(this), tx.origin, 1);\n    }\n\n    function verifyTicket() external view returns (bool) {\n        return balanceOf(tx.origin) == 1;\n    }\n    \n}",
  "sourcePath": "/home/osboxes/dev/unisacon/contracts/TicketVIP.sol",
  "compiler": {
    "name": "solc",
    "version": "0.8.0+commit.c7dfd78e.Emscripten.clang"
  },
  "schemaVersion": "3.4.14",
  "updatedAt": "2023-09-04T16:07:18.148Z",
  "networkType": "ethereum",
  "devdoc": {
    "kind": "dev",
    "methods": {
      "allowance(address,address)": {
        "details": "See {IERC20-allowance}."
      },
      "approve(address,uint256)": {
        "details": "See {IERC20-approve}. NOTE: If `amount` is the maximum `uint256`, the allowance is not updated on `transferFrom`. This is semantically equivalent to an infinite approval. Requirements: - `spender` cannot be the zero address."
      },
      "balanceOf(address)": {
        "details": "See {IERC20-balanceOf}."
      },
      "decimals()": {
        "details": "Returns the number of decimals used to get its user representation. For example, if `decimals` equals `2`, a balance of `505` tokens should be displayed to a user as `5.05` (`505 / 10 ** 2`). Tokens usually opt for a value of 18, imitating the relationship between Ether and Wei. This is the default value returned by this function, unless it's overridden. NOTE: This information is only used for _display_ purposes: it in no way affects any of the arithmetic of the contract, including {IERC20-balanceOf} and {IERC20-transfer}."
      },
      "decreaseAllowance(address,uint256)": {
        "details": "Atomically decreases the allowance granted to `spender` by the caller. This is an alternative to {approve} that can be used as a mitigation for problems described in {IERC20-approve}. Emits an {Approval} event indicating the updated allowance. Requirements: - `spender` cannot be the zero address. - `spender` must have allowance for the caller of at least `subtractedValue`."
      },
      "increaseAllowance(address,uint256)": {
        "details": "Atomically increases the allowance granted to `spender` by the caller. This is an alternative to {approve} that can be used as a mitigation for problems described in {IERC20-approve}. Emits an {Approval} event indicating the updated allowance. Requirements: - `spender` cannot be the zero address."
      },
      "name()": {
        "details": "Returns the name of the token."
      },
      "symbol()": {
        "details": "Returns the symbol of the token, usually a shorter version of the name."
      },
      "totalSupply()": {
        "details": "See {IERC20-totalSupply}."
      },
      "transfer(address,uint256)": {
        "details": "See {IERC20-transfer}. Requirements: - `to` cannot be the zero address. - the caller must have a balance of at least `amount`."
      },
      "transferFrom(address,address,uint256)": {
        "details": "See {IERC20-transferFrom}. Emits an {Approval} event indicating the updated allowance. This is not required by the EIP. See the note at the beginning of {ERC20}. NOTE: Does not update the allowance if the current allowance is the maximum `uint256`. Requirements: - `from` and `to` cannot be the zero address. - `from` must have a balance of at least `amount`. - the caller must have allowance for ``from``'s tokens of at least `amount`."
      }
    },
    "version": 1
  },
  "userdoc": {
    "kind": "user",
    "methods": {},
    "version": 1
  }
}